:100000000C94D5020C9428130C941C030C941C0320
:100010000C941C030C941C030C941C030C941C03E4
:100020000C941C030C941C030C942C2C0C94FE2C90
:100030000C94B5210C941C030C941C030C941C030D
:100040000C941C030C941C030C941C030C941C03B4
:100050000C941C030C941D220C941C030C941C0384
:100060000C941C030C941C030C941C030C941C0394
:100070000C941C030C941C030C941C030C941C0384
:100080000C941C030C941C030C941C030C941C0374
:100090000C941C030C941C030C941C030C941C0364
:1000A0000C941C030C941C030C941C037B047D0413
:1000B00088047F0481048304850487048A048C04F3
:1000C0008E049904900492049404960498049B046A
:1000D00084178417B617B617FF171F18A819A81981
:1000E0006118A8190219021974197D19A819A11902
:1000F0000F190F190F190F190F190F190F190F19C0
:100100000F190F190F190F190F190F190F190F19AF
:1001100020192E1935193C194619371A371A491A58
:10012000491A401A491A491A491A371A371A451AE8
:10013000491A491A451A6B2D922D842E922D842E20
:10014000DE2D012E842E572E662E35001E001F0038
:100150002000210022002B0014001A0008001500C6
:100160001700296104001600070009000A00E100D9
:100170001D001B00060019000500E000E200E3007E
:100180002C00015128002300240025002600270010
:100190002A001C0018000C001200130031000B0094
:1001A0000D000E000F003300340011001000360067
:1001B00037003800E5002C000151280000002D0018
:1001C0002E003A003B003C003D003E003F00A900ED
:1001D0000000000000002D022E02AA00AC00AE00BC
:1001E000AB002D002E007F0000000000000000008A
:1001F0000000E4006500E60000000100000040008F
:10020000410042004300440045002F002F0230020D
:100210003000000000005000510052004F0000006C
:1002200000000000000000000000000000000000CE
:100230000100000000000000000000047F3F1F6478
:100240003214643214783C1E1E140A05222325261B
:1002500028292A2C2D2F3032333536383A3B3D3E73
:100260004042434547494A4C4E5051535557595ABD
:100270005C5E6062646668696B6D6F7173757779D7
:100280007B7D7F81838587898A8C8E9092949698D6
:100290009A9C9E9FA1A3A5A7A8AAACAEAFB1B3B4E8
:1002A000B6B8B9BBBCBEBFC1C2C3C5C6C7C9CACB3D
:1002B000CCCDCED0D1D2D2D3D4D5D6D7D7D8D9D908
:1002C000DADADBDBDBDCDCDCDCDCDDDDDDDDDCDC71
:1002D000DCDCDCDBDBDBDADAD9D9D8D7D7D6D5D48E
:1002E000D3D2D2D1D0CECDCCCBCAC9C7C6C5C3C25A
:1002F000C1BFBEBCBBB9B8B6B4B3B1AFAEACAAA8AF
:10030000A7A5A3A19F9E9C9A98969492908E8C8A62
:1003100089878583817F7D7B79777573716F6D6B3D
:100320006968666462605E5C5A5957555351504E15
:100330004C4A4947454342403E3D3B3A38363533C7
:1003400032302F2D2C2A292826252322FFAA7F553B
:100350004000000000000000000000010101010158
:10036000010101010202020202020202030303036D
:100370000303030404040404050505050506060635
:10038000060607070707080808080909090A0A0AEC
:100390000B0B0B0C0C0C0D0D0D0E0E0E0F0F101089
:1003A000101111121213131414151516161717180D
:1003B0001819191A1A1B1C1C1D1D1E1F1F20212174
:1003C00022232324252526272828292A2B2C2C2DB7
:1003D0002E2F30313132333435363738393A3B3CD1
:1003E0003D3E3F404142434445464748494B4C4DC2
:1003F0004E4F50525354555758595A5C5D5E606188
:1004000063646567686A6B6C6E6F71727476777916
:100410007A7C7D7F8182848687898B8D8E90929471
:100420009597999B9D9FA1A2A4A6A8AAACAEB0B295
:10043000B4B6B9BBBDBFC1C3C5C8CACCCED0D3D575
:10044000D7DADCDEE1E3E6E8EAEDEFF2F4F7F9FC17
:10045000FF0403300000002A0354006800650020F8
:10046000004E00790071007500690073007400206F
:10047000004B006500790062006F0061007200644B
:100480000000000E034B0065006500620069006F0C
:100490000000000403090409023B00020100A0FA65
:1004A00009040000010301010009211101000122DA
:1004B00040000705810308000A0904010001030048
:1004C0000000092111010001228500070582032097
:1004D000000A120110010000000810CB56110003A1
:1004E0000102030105010902A10185020901A10020
:1004F00005091901290515002501950575018102D8
:100500009501750381010501093009311581257FA8
:1005100095027508810609381581257F95017508B2
:100520008106050C0A38021581257F950175088121
:1005300006C0C005010980A101850316010026033C
:10054000001A81002A8300751095018100C0050CF6
:100550000901A1018504160100269C021A01002A46
:100560009C02751095018100C005010906A10105D5
:100570000719E029E7150025019508750181029505
:100580000175088101050819012905950575019175
:10059000029501750391010507190029FF15002631
:1005A000FF00950675088100C00011241FBECFEF23
:1005B000DAE0DEBFCDBF04B603FE27C08091920211
:1005C00090919302A0919402B09195028730904B44
:1005D000A740B04BD1F41092920210929302109265
:1005E00094021092950214BE84B7877F84BF0FB621
:1005F000F894A895809160008861809360001092C3
:1006000060000FBEE0E0F8E3099511E0A0E0B1E082
:10061000E2E1FFE502C005900D92A437B107D9F7DA
:1006200022E0A4E7B1E001C01D92A239B207E1F7D0
:100630000E944E290C94872F0C9400000C94B30850
:1006400081E0089581E008950C9422031F93CF93D5
:10065000DF9300D000D01F92CDB7DEB749835A8315
:100660002091C20189819A81211112C0662349F02B
:100670000E945E1F182F682F89819A810E94011F96
:1006800003C00E94311F182F69817A81812F04C015
:100690000E945E1F69817A810F900F900F900F90DA
:1006A0000F90DF91CF911F910C940606FC014081C1
:1006B00051816281738184810C9426030C94B50866
:1006C000E82FE295EF70F0E032A1282F2F7081E043
:1006D00090E001C0880F2A95EAF78095832382A3D2
:1006E0000895CF92DF92EF92FF92883030F481111B
:1006F00005C0909180009F7704C087E090918000B2
:10070000906890938000282F30E0AFEFBFEF0E94F9
:10071000182F27E030E040E050E00E94F02E2C3708
:1007200084E138074105510530F4C90169E070E002
:100730000E94C82E29C0DA01C9018A50974DAF4FD7
:10074000BF4F6627782F892F9A2F25EF38E241E097
:1007500050E00E94F02E69017A01CA01B9010E949D
:10076000B82E9B01AC01C701B6010E94B82EBB2771
:10077000A92F982F872F009721E0A207B10511F02C
:10078000BC0102C06FEF7FEF709389006093880017
:10079000FF90EF90DF90CF900895259A85E30E9417
:1007A000600382E88093800089E1809381008FEF6D
:1007B0009FEF90938700809386000C94BC260E9444
:1007C0008E20811102C00E941D210E94CD030C9435
:1007D0001E0308950C94E9030C94EA0308950E9403
:1007E000271A0E94EE032FEF84E39CE02150804003
:1007F0009040E1F700C000000C9443220F931F9338
:10080000CF93DF938C010E945603EC01B8010E9444
:100810002403882309F4F0C1B801CE010E942E12EE
:10082000882309F4E9C1CA3CFCE5DF0739F4F80183
:1008300082818111E1C10E94940DDEC1CB3C8CE527
:10084000D80708F00CC1C33C9CE5D90761F4F80156
:100850008281882309F4D0C10E94DE1F8272E1F0F8
:100860000E940B10C9C1C43CECE5DE07C0F0C63CD9
:100870009CE5D90709F4C9C008F0D9C0C43CFCE51F
:10088000DF0709F0C9C0F8018281882309F4B4C1E7
:100890000E94DE1F827221F30E94FE0FADC1C5319E
:1008A000FCE5DF0708F07BC0C2308CE5D80708F410
:1008B00052C0F8018281882309F454C00E948E201E
:1008C000811102C00E941D210E94A12090E09093FE
:1008D000830280938202FE01E350FC45E231F10580
:1008E00030F4EA5AFF4F809182020C94122F8091CB
:1008F0008202816027C0826025C0846023C080613D
:1009000021C080621FC080641DC080681BC08460DD
:10091000886018C08E7F16C08D7F14C08B7F12C078
:100920008F7E10C08F7D0EC08F7B0CC08F770AC06A
:100930008B7F877F07C087FB222720F991E09227D2
:1009400090FB87F980938202809182020E94A52009
:100950000E94271A51C1C1159CE5D90751F0C13039
:10096000DC4579F0C801DF91CF911F910F910C9474
:100970002003F8018281882309F43EC10E94EF031D
:100980003BC1F8018281882309F436C18091380285
:10099000982F909590FB80F9809338022DC1C63135
:1009A000FCE5DF0739F50E94DE1F282FF801828160
:1009B0004091210150912201882379F02A7A91E017
:1009C00009F490E090937401911102C069E201C0B2
:1009D00065E3CA010E9451210AC08091740181110E
:1009E00002C069E201C065E3CA010E9453210E946E
:1009F0002A2002C1C23CDC4509F0B4CFF801828153
:100A00008111FAC00E947610F7C0F801828181112D
:100A1000F3C00E94580DF0C0C53CDC4509F0A2CFE0
:100A2000F80182818111E8C00E944B0DE5C0F801F8
:100A30008281C83CFCE5DF0729F48111DDC00E94FA
:100A4000760DDAC0C93CDC4528F48111D5C00E947E
:100A5000670DD2C08111D0C00E94850DCDC0C13DAF
:100A6000ECE5DE0791F4F8018281882309F4C4C023
:100A70000E94B50B8F3028F00E94B50B843108F42A
:100A80000BCF8FE00E940E10B7C0C23DFCE5DF0720
:100A900008F05AC0CD3C8CE5D80739F4F8018281C2
:100AA000882309F4A9C081E0EDCFCE3C9CE5D907AD
:100AB000C0F4CB3CECE5DE0741F4F80182818823E9
:100AC00009F49AC00E94BD0B97C0CC3CDC4509F0EC
:100AD00049CFF8018281882309F48EC00E94CE0B91
:100AE0008BC0F8018281CF3CFCE5DF0771F48823DD
:100AF00009F482C00E94B50B863028F00E94B50B25
:100B0000883008F4C9CE86E0BDCFC03DDC4570F426
:100B1000882309F471C00E94B50B823028F00E942E
:100B2000B50B853008F4B8CE82E0ACCF882309F449
:100B300063C00E94B50B893028F00E94B50B8E303F
:100B400008F4AACE89E09ECFC53DECE5DE0739F476
:100B5000F8018281882309F44FC083E293CFC63D18
:100B6000FCE5DF0740F5F8018281C33DFCE5DF07C6
:100B700029F4882309F440C088E184CFC43DDC45D2
:100B800068F48823C9F10E94B50B853128F00E94D2
:100B9000B50B873108F480CE85E174CF882361F1ED
:100BA0000E94B50B893128F00E94B50B823208F4FF
:100BB00073CE89E167CFCD3DECE5DE0741F4F80166
:100BC00082818823C9F082E00E94EF2915C0CE3DC2
:100BD000FCE5DF0739F4F8018281882369F00E947F
:100BE0001D210AC0CC3DDC4509F0BCCEF801828154
:100BF000882311F080E0E8CF80E0DF91CF911F9152
:100C00000F91089580E090E00895089596E0799F0F
:100C1000F00111249CE3899FE00DF11D1124E60FE2
:100C2000F11DEE0FFF1FE65BFE4F85919491089535
:100C3000880F991FFC01E65CFD4F85919491089502
:100C4000CF93DF930E9406060E941308EC018115E2
:100C500021E5920708F042C0811560E5960708F08B
:100C600031C1883E910500F5803E910508F0D7C15D
:100C7000883A910570F4853A910508F0A6C0813054
:100C8000910509F4CCC108F47DC1049708F0C7C1EF
:100C900079C18F3B910508F4A3C0803C910508F40D
:100CA00071C1805C9109FDC0C11580E3D80780F453
:100CB000C11590E2D90708F0F2C0C03FD10508F491
:100CC00061C1CF3FD10511F008F0A9C1D065A7C11E
:100CD000C11520E4D20708F0F2C0E7C0811569E52C
:100CE000960760F5C11588E5D80708F037C1C1152A
:100CF00094E5D90778F4C11523E5D20708F013C1AC
:100D0000C11562E5D60708F0F8C0DC2FCC27C16F0B
:100D1000D06A85C1C11585E5D80708F41AC1C11587
:100D200096E5D90708F02EC18C2F0E9490088F718C
:100D3000C82FD0E0DC2FCC27D06271C18D3B2CE5D1
:100D4000920709F416C1F0F4CB3B8CE5D80709F4FF
:100D50000AC108F00BC1C1152AE5D20708F012C17B
:100D60008C2F8F700E94900894E0D695C7959A9525
:100D7000E1F7CF70D0E0DC2FCC27D06A8F70806E87
:100D8000C82B4DC1803C9C4509F4F9C0C13C8CE5A1
:100D9000D80760F4CE3B9CE5D90709F4EDC0CF3B02
:100DA000DC4509F0EFC0C0E0D2ED39C1CE0190566C
:100DB0008115904208F0E6C08D2F8F710E94900837
:100DC000DD27D0628F71D82B2AC1853A910509F4AD
:100DD000DCC0863A910509F0DBC0C2E8D0E41FC14F
:100DE000883A910509F4D7C0893A910509F4D6C02B
:100DF0008A3A910509F4D5C08B3A910509F4D4C01B
:100E00008C3A910509F4D3C08B3B910509F4D2C00B
:100E10008C3B910509F4D1C08D3A910509F4D0C0FD
:100E2000803B910509F4CFC08E3A910509F4CEC0FC
:100E30008F3A910509F4CDC0813B910509F4CCC0EE
:100E4000823B910509F4CBC0833B910509F4CAC0EC
:100E5000843B910509F4C9C0853B910509F4C8C0DC
:100E6000863B910509F4C7C0873B910509F4C6C0CC
:100E7000883B910509F4C5C0893B910509F4C4C0BC
:100E80008D3B910509F4C3C08E3B910509F4C2C0A6
:100E90008A3B910509F4C1C0C0E0D4E4C0C0CE01D2
:100EA0009F700E941806EC01BAC0CE019927D3FFAB
:100EB00003C0EC01D86CB3C0EC01D06CB0C0DF70E3
:100EC000D06AADC0837021E030E002C0220F331F32
:100ED0008A95E2F73C68CE0174E0969587957A95FD
:100EE000E1F78370382BCF70C695C69580E2C89F16
:100EF000E0011124C22BD32B92C04C2F469546956E
:100F000090E2499FA0011124C370DD2721E030E069
:100F1000C90102C0880F991FCA95E2F7EC01C42BE2
:100F2000D52BDC687CC04C2F4695469580E2489FC7
:100F3000A0011124C370DD2721E030E0C90102C007
:100F4000880F991FCA95E2F7EC01C42BD52BDA68FC
:100F500066C0DC2FCC27C46FD06A61C0DC2FCC27E1
:100F6000C06FD06A5CC0C0E0D4ED59C0C0E0D5ED20
:100F700056C0C0E0D1ED53C0C0E0D0ED50C0C0E0DD
:100F8000D3ED4DC0C0E0D0E04AC0C1E8D0E447C0D6
:100F9000C3E8D0E444C0C2EED4E441C0C9EED4E416
:100FA0003EC0CAEED4E43BC0C5EBD4E438C0C6EBC7
:100FB000D4E435C0C3EBD4E432C0C4EBD4E42FC0D6
:100FC000C7EBD4E42CC0CCECD4E429C0CDECD4E401
:100FD00026C0C3E8D5E423C0CAE8D5E420C0C2E9EE
:100FE000D5E41DC0C4E9D5E41AC0C1E2D6E417C0F7
:100FF000C3E2D6E414C0C4E2D6E411C0C5E2D6E42C
:101000000EC0C6E2D6E40BC0C7E2D6E408C0CFE605
:10101000D4E405C0C0E7D4E402C0CAE2D6E4CE01FD
:10102000DF91CF9108958238910549F1B0F4813371
:10103000910509F458C048F48932910509F44EC06D
:101040008A32910509F454C008958533910509F455
:1010500040C08933910599F00895833E910529F1A7
:1010600038F4803E910591F0823E9105A1F00895FB
:10107000863E9105F9F0873E910531F10895209162
:10108000820220FD3AC021FD38C00895809182027D
:1010900080FD35C032C08091820282FF32C08091D3
:1010A000820284FD30C083EE39C08091820282FDCD
:1010B00028C0F5CF8091820283FF27C080918202F1
:1010C00084FD21C087EE2AC08091820283FD1DC06D
:1010D000F5CF8091820285FD1AC01BC080918202EB
:1010E00085FD17C014C08091820286FD14C015C012
:1010F0008091820286FD11C00EC080EE0FC089E390
:101100000DC082EE0BC080E009C086EE07C089E208
:1011100005C085E303C08AE201C081E390E0089541
:101120009091820292FF0DC0282F2871283019F467
:10113000877F846006C0282F2471243011F48B7FB0
:10114000886093FF0DC0282F2871283119F4877EFD
:10115000846106C0282F2471243111F48B7E8861AC
:1011600094FD877E0895089508950C94B408089519
:10117000E82FF0E0E558FE4F8081089508958091B2
:1011800038028360886080933802809100018091EA
:101190000001811102C095E001C090E090935202DD
:1011A00085E0891B80935102AAE3B1E041E050E061
:1011B00025E02A0F8D91E82FE295EF70F0E031A144
:1011C0008F70BA0102C0660F771F8A95E2F7CB01D4
:1011D000962F9095932391A392A1892B82A32A13F2
:1011E000E9CFA4E3B1E041E050E026E02A0F8D9181
:1011F000E82FE295EF70F0E031A18F70BA0102C0E4
:10120000660F771F8A95E2F7CB01962F909593236F
:1012100091A392A1892B82A32A13E9CFEBE7F1E0F6
:101220008AE08E0F11928E13FDCF85E00E94DD09BA
:101230000C94DF037F928F929F92AF92BF92CF92D6
:10124000DF92EF92FF920F931F93CF93DF936AE3A6
:1012500071E0A6E7B1E0812C01E010E095E09A0F83
:101260007D017C901C92EB018991BE01E82FE295F3
:10127000EF70F0E021A18F70A80101C0440F8A95A2
:10128000EAF7822F842B81A322A1842F8095282323
:1012900022A3D0EADA95F1F7C4E3AC2EC1E0BC2E6C
:1012A00020E030E0E50199905E01C92CC2945FE036
:1012B000C522D12CE601C8A0D12CD92DDF7002C0E7
:1012C000D594C794DA95E2F7C0FC07C06801022EF6
:1012D00001C0CC0C0A94EAF702C0C12CD12CDC90DE
:1012E000CD28CC922F5F3F4F26303105D9F621A172
:1012F000822381A382A1482B42A3119681E0F701AA
:101300002081721201C080E0882A9A13A9CF6091CF
:10131000520270E065587E4F282D45E086E791E047
:101320000E94DE09882DDF91CF911F910F91FF90D0
:10133000EF90DF90CF90BF90AF909F908F907F9075
:101340000895CF930E941A09C82F0E941A0A882371
:1013500039F120915102822F90E085589E4F0E94D2
:10136000750A811118C0909175019F5F9093750166
:10137000963098F04091510220E030E050E0F901C1
:10138000E40FF51FE558FE4F10822F5F3F4F2530C9
:101390003105A9F702C0109275010E945E030AC0D0
:1013A00020915202822F90E085589E4F0E949E0A03
:1013B0000E94B7088C2FCF9108950895FF920F9344
:1013C0001F93CF93DF938C01F62ED72FC42F2223A8
:1013D00049F081E0809387010E94E7219093860184
:1013E00080938501809187018823C1F080918501D8
:1013F000909186010E94F321069780F0EF2DFD2F3A
:10140000D8014C2F50E0CD01801B910B841795071C
:101410001CF48D918193F7CF10928701DF91CF91CA
:101420001F910F91FF900895559889B185FB8827EA
:1014300080F9089580918801811112C08091D800AF
:1014400080618093D8008AE18A95F1F700C080918D
:10145000D90080FD02C082E001C081E08093880154
:1014600081E090918801913009F080E008950E9418
:10147000140A809300018091000166E0882311F036
:1014800080E001C086E00E94580B0E941A0A811178
:101490000C944C0A0C94520A62E070E081E091E0F6
:1014A0000C94CD1262E070E081E091E00C94D612D1
:1014B0000E94720F882361F081E991E00E94780F09
:1014C00081E090E00E94B813892B11F40C94750F01
:1014D000089580919001883039F460E081E991E0CD
:1014E0000E949410109290010895CF93DF93D82F0B
:1014F000C92F0E94580A80E090E00E94B813892BFF
:10150000C9F4ED2FFC2F80E090E0DC01A557BE4F21
:101510002C912193019685309105B9F70E944E27B1
:10152000882319F00E949A2701C080E080938A01E5
:1015300081E001C080E0DF91CF910895CF93DF93E8
:1015400000D0CDB7DEB789839A830E94690A89816A
:10155000E82F9A81F92F80E090E02191DC01A557D6
:10156000BE4F2C93019685309105B9F780918A0181
:101570000F900F90DF91CF910C947103CF92DF9277
:10158000EF92FF920F931F93CF93DF937B01282F4E
:10159000382FE82FF0E0F11006C0EF5AFC4F6491AD
:1015A000762F862F7BC00F2D10E046E0649FC00190
:1015B0001124CFEFD0E0BE010E94C82EAB016BEA30
:1015C0006403C001659F900D11248E0D911D8E0D39
:1015D000911D982F990F890FBE01601B710B6E9F93
:1015E000D0016F9FB00D7E9FB00D11249B2F8F9D5A
:1015F000B0011124672F77277E01E61AF70AEE9EC5
:10160000B001EF9E700DFE9E700D11246E01C81A80
:10161000D108C09E7001C19EF00CD09EF00C112428
:101620000F2D1127C01BD10BCE9F8001CF9F100D16
:10163000DE9F100D1124812F4230510591F04CF4A2
:1016400041155105E1F041305105B9F4822F272FA2
:1016500016C04430510569F044F04630510579F028
:101660000CC0822F2B2F912F0AC02B2F932F872F47
:1016700006C08B2F922F212F02C08B2F972FE22F86
:10168000F0E0EF5AFC4F7491E82FF0E0EF5AFC4F76
:101690006491E92FF0E0EF5AFC4F8491DF91CF91F4
:1016A0001F910F91FF90EF90DF90CF9008950895D4
:1016B0008093A001609315010895CF93DF93762F57
:1016C000E901682F842F0E94BE0A798368838A8388
:1016D000DF91CF91089580915302282F269530E015
:1016E0002115310519F48170826005C0253231055C
:1016F00024F08170886480935302089588E090E01C
:101700000C94472FCF93DF9300D000D0CDB7DEB736
:10171000AB01BC0149835A836B837C830E946B0BB2
:1017200049815A816B817C8188E090E00F900F9015
:101730000F900F90DF91CF910C94652FE3E5F2E0CD
:1017400083E0808311828FEF828383831482A8EAEF
:10175000B1E012968C911297836012968C936081FF
:101760007181828193810C94820B8091530280FF5E
:1017700002C08695089580E00895809157028330D5
:1017800018F48F5F80935702609153027091540256
:1017900080915502909156020C94820B80915702D1
:1017A000882319F081508093570260915302709101
:1017B000540280915502909156020C94820B6091D4
:1017C000150170E08091530280FF0AC08091A00152
:1017D00023E0829FC0011124885A9D4F0C94BE11B2
:1017E00080919F0190911401891780F7E82FF0E014
:1017F0009F01220F331FE20FF31FE85AFD4F1182A2
:10180000108212828F5FF0CF9091530290FF16C02A
:1018100090919F0120911401921770F4E92FF0E04C
:10182000DF01AA0FBB1FEA0FFB1FE85AFD4F8183A0
:10183000608342839F5FF0CF0C94DF0B0895CF93BA
:10184000DF9300D01F92CDB7DEB79091530290FF87
:101850000AC09E012F5F3F4F0E945D0B4B81698143
:101860008A810E94040C0F900F900F90DF91CF910E
:101870000895CF93DF93EC01EC81F0E0E45BFD4F42
:101880004491E3E5F2E0628181810E941F0C8C812A
:101890008F5F8C83DF91CF910895CF93DF93EC011D
:1018A000E3E5F2E0438162818C810E941F0C8C8110
:1018B0008F5F8C83DF91CF9108950F931F93CF9308
:1018C000DF9300D01F92CDB7DEB78C0180919901D4
:1018D00081110AC09E012F5F3F4F4FEF6FEF0E94B3
:1018E0005D0B8A8180939901F8018481813051F0E8
:1018F00028F0823061F4409199010AC080919901E9
:1019000040E007C06091990140E080E003C040E002
:1019100080E060E00E94040CF801248130E0C901FD
:10192000019663E070E00E94DC2E84830F900F909C
:101930000F90DF91CF911F910F910895AF92BF92B9
:10194000CF92DF92EF92FF920F931F93CF93DF938B
:1019500000D01F92CDB7DEB7182FF62E042FE22E3F
:101960009091530290FF7FC0E92FE695AE2FB0E033
:10197000AC5BBE4F8C918093A8019E7F923061F446
:101980009E012F5F3F4F812F0E945D0B4B8169812C
:101990008A810E94040C44C0823019F400915602DE
:1019A0003FC0863019F4109154023AC08930D9F3FF
:1019B0008931B1F5E9518E2F8170D82EE695F0E08E
:1019C000E45BFC4FA590B490C12CBB246091130143
:1019D000C61620F5EC2DF0E0EA9DC001EB9D900DC0
:1019E000FA9D900D112470E00E94C82E812FD11015
:1019F00002C0860F01C0861B90919F01E90FF11D67
:101A00009F01220F331FE20FF31F9F01285A3D4F02
:101A1000402F6F2D0E945D0BC394D8CF0E94DF0B27
:101A200080915402811308C0809155028F1104C027
:101A300080915602801729F08091AA0182608093DC
:101A4000AA0110935402F092550200935602EE2020
:101A500051F060915302709154028091550290911F
:101A600056020E94820B0F900F900F90DF91CF9142
:101A70001F910F91FF90EF90DF90CF90BF90AF90AC
:101A80000895E3E5F2E09181282F4381628188E0A7
:101A9000890F0C949E0C81E00C94410DE3E5F2E07B
:101AA0009181282F4381628188EF890F0C949E0CCD
:101AB00081E00C944E0DE3E5F2E0628121E1620FDA
:101AC00008F46FEF282F438181810C949E0C81E0F4
:101AD0000C945B0DE3E5F2E0628121E1621B08F406
:101AE00060E0282F438181810C949E0C81E00C944E
:101AF0006A0DE3E5F2E0438121E1420F08F44FEF84
:101B0000282F628181810C949E0C81E00C94790DC8
:101B1000E3E5F2E0438121E1421B08F440E0282F95
:101B2000628181810C949E0C81E00C94880D20E0F0
:101B30000C949E0CFF920F931F93CF93DF93EC01B5
:101B4000F12C0FEF10E060911301F616E8F42091EC
:101B50009F0130E02F0D311DC901880F991F280FFB
:101B6000391F285A3D4F70E0C8010E94DC2E962F85
:101B70008C814091560260915502F99E800D11248E
:101B80000E945D0BF394DFCF0E94DF0B9A818C8162
:101B900090FF02C08F5F01C081508C83DF91CF9195
:101BA0001F910F91FF9008958F929F92AF92BF92D5
:101BB000CF92DF92EF92FF920F931F93CF93DF9319
:101BC0001F92CDB7DEB78C01FC01828180FF02C07D
:101BD0009FEF01C091E0F801848181110DC0913027
:101BE00031F480911301815080939B0102C01092C7
:101BF0009B0181E0F8018483B12C80911301B81618
:101C000008F041C0CB2CD12C80919F01A601480F38
:101C1000511D9A01220F331F240F351FA901485A65
:101C20005D4F4A01FA0111821082128274E0E72EA0
:101C3000F12CA12C20919B012A0D27FF03C080913C
:101C40001301280F022E000C330BC216D306A1F489
:101C5000809156028E9DA0018F9D500D11245595A7
:101C6000479555954795940160915502809154028E
:101C700099830E945D0B9981A90EF1E0EF1AF1089A
:101C8000C9F6B394BACF99830E94DF0B20919B01D0
:101C90009981913081F4211108C080911301815004
:101CA00080939B01F801148212C0215020939B0164
:101CB000F80194830CC030E0C901019660911301D2
:101CC00070E00E94DC2E80939B01F80184830F90CA
:101CD000DF91CF911F910F91FF90EF90DF90CF9008
:101CE000BF90AF909F908F9008951F93CF93DF93F5
:101CF000EC018C81811109C081E08C8310929A01E2
:101D000092E0909312018093110180919F01909134
:101D10001401891770F4E82FF0E09F01220F331FA0
:101D2000E20FF31FE85AFD4F1182108212828F5F7B
:101D3000F0CF10E0609113011617B8F5E12FF0E035
:101D400070E0CF010E94DC2E40919F01480F8091EE
:101D50009A01082E000C990B50E0E817F907C4F01F
:101D600020911201022E000C330B2E173F0784F036
:101D70009A01220F331F240F351F285A3D4F4091DF
:101D8000560260915502809154020E945D0B0BC077
:101D9000FA01EE0FFF1F4E0F5F1FFA01E85AFD4FC9
:101DA0001182108212821F5FC5CF0E94DF0B8091CB
:101DB000110120919A01280F20939A01909112010C
:101DC000980F9093120119165CF4022E000C330B3D
:101DD0004091130150E0415051092417350734F068
:101DE000819580931101813009F41C82DF91CF919C
:101DF0001F9108950F931F93CF93DF938C01FC01E4
:101E00008481958101968170992795838483C0E0B0
:101E1000D5E580911301C817F8F420919F0130E0B7
:101E20002C0F311DC901880F991F280F391F285AFF
:101E30003D4F4C2F4695F80184819581840F911D6B
:101E4000817040915602609155028D9F802D112422
:101E50000E945D0BCF5FDDCFDF91CF911F910F917E
:101E60000C94DF0B0F931F93CF93DF93EC0100E0F3
:101E700010E080911301282F30E00217130724F59A
:101E800090919F019801290F311DA901440F551F01
:101E9000240F351F285A3D4F869590E04C81081736
:101EA00019071CF4442331F002C0411103C04091D2
:101EB000560201C040E060915502809154020E9498
:101EC0005D0B0F5F1F4FD5CF0E94DF0B2C8130E0E1
:101ED0002F5F3F4F217033272C83DF91CF911F91CC
:101EE0000F9108958091AA0108951092AA01089572
:101EF00025E0E3E5F2E0DC0101900D922A95E1F79F
:101F00002091A8013091A9014091AA01FC012583EB
:101F1000368347830895E8EAF1E011828281846084
:101F20008283089560915302669570E04BE050E023
:101F300086E191E00E94322F892B19F481E0809391
:101F4000A9010E94E7219093A2018093A1018091B1
:101F5000AA0184608093AA010895E8EAF1E0118261
:101F600082818460828308959091530290FF3AC0E9
:101F70009170811102C0926006C0853210F09864A1
:101F800002C0880F982B909353028091AA01816020
:101F90008093AA01662351F060915302709154021C
:101FA00080915502909156020E94820B60915302DB
:101FB000669570E04BE050E086E191E00E94322FA0
:101FC000892B19F00E94AD0F02C00E94920F81E090
:101FD0008093A40140915602609155028091540271
:101FE0000C94970D0895682F90915302969581E077
:101FF000890F853208F081E00C94B40F81E00C94D5
:10200000F30F682F9091530296958FEF890F09F483
:1020100084E20C94B40F81E00C94011061E00C9404
:10202000B40FE3E5F2E080818160808386950C94B3
:102030000E1060E00C94B40F8091A701811138C09C
:10204000809138028160809338020E948E20811135
:1020500004C00E941D210E949E0B0E947E0B609373
:1020600053027093540280935502909356028091CC
:10207000AA0183608093AA016E7F61F40E949E0B87
:102080000E947E0B6093530270935402809355021A
:10209000909356020E946B0B0E948B0F809153020B
:1020A00080FF03C086950E94191081E08093A701EC
:1020B0000895E3E5F2E080818E7F80836081718105
:1020C000828193810E94820B0E94AD0FE8EAF1E0C9
:1020D0008281816082832FEF80E792E021508040EF
:1020E0009040E1F700C000000C94DF0B8091530298
:1020F00080FD0C9459100C941110E3E5F2E08081FE
:102100008E7F80830E94AD0FE8EAF1E082818160DA
:1021100082832FEF80E792E0215080409040E1F7EA
:1021200000C000000C94DF0B1F93CF93DF93EC01F2
:10213000162F8F8180FF0FC0888180FF0AC0809199
:102140005302816080935302888186950E94B40F68
:1021500002C00E947D108F8181FF06C0212F4B811C
:102160006A8189810E949E0C8F8182FF08C08E81C6
:10217000882319F00E94920F02C00E94AD0F8F8138
:1021800083FF03C081E08093A401DF91CF911F9171
:102190000895EF92FF920F931F93CF93DF93809157
:1021A000A901882309F4B1C08091A801E0915302EC
:1021B000E695E81BE093A301823049F4F0E0E85B88
:1021C000FD4FE491CE2FD0E009E31CE049C08630FA
:1021D00049F4F0E0EB5BFD4FE491CE2FD0E00DE44D
:1021E0001CE03EC0893051F4E695F0E0EE5BFD4F17
:1021F000E491CE2FD0E00AE91DE032C08F3051F4D7
:10220000E695F0E0E15CFD4FE491CE2FD0E004EDE7
:102210001DE026C0853149F4F0E0E45CFD4FE49117
:10222000CE2FD0E005E71EE01BC0883181F083325D
:1022300039F4EAE3F2E0C591D4910DE51CE010C059
:10224000843251F4C4EFD1E002E31FE009C0C8EECC
:10225000D3E00AEF1EE004C0C0EDD7E007E51BE0C5
:102260008091A401882389F01092A4010E94E721A3
:102270009E0120953095820F931F9093A201809329
:10228000A1011092A6011092A5018091A101909147
:10229000A2010E94F3218C179D07B8F180919E0145
:1022A0008823B1F010929E0180919C0190919D0134
:1022B0000E94F3218033954758F00E94E7219093C4
:1022C0009D0180939C018091AA0188608093AA015E
:1022D000E090A501F090A601E091A101F091A2018A
:1022E000CE0FDF1FD093A201C093A10181EA91E03C
:1022F000F80109958091A5019091A601892B29F4F7
:10230000EF2819F081E080939E01DF91CF911F911A
:102310000F91FF90EF90089525B1342F309523232E
:1023200035B1432B3FB7F894FC01680F791FE617CE
:10233000F70789F0819198E045B9000000C087FF58
:1023400025B9880F000000C000C000C025B900C03A
:102350009A9591F7ECCF3FBF089524B1242B24B96F
:102360009B01220F331F620F731F0E948C1187EC99
:1023700090E00197F1F700C00000089540E10C944F
:10238000AD110F931F93CF93DF93C62FD42F022F3E
:10239000FC0182818823C9F06093AD010E94E7218E
:1023A0009093AC018093AB0180E28C0F883008F0F1
:1023B00050C0C77081E001C0880FCA95EAF7DF916D
:1023C000CF911F910F910C9440171091AD011613EE
:1023D00030C08091AB019091AC010E94F321883C08
:1023E000910538F5C0E2CD0F1D17B9F080E2810FDD
:1023F000883040F4177081E001C0880F1A95EAF721
:102400000E944717C83048F481E09D2F977001C0A3
:10241000880F9A95EAF70E944017802F0E942D1787
:10242000C830B8F4D77081E001C0880FDA95EAF7B8
:102430000AC080E28C0F883060F4C77081E001C070
:10244000880FCA95EAF7DF91CF911F910F910C94F5
:102450004717DF91CF911F910F9108959C01CB01F8
:10246000203F4CE53407F9F078F4283DFCE53F07C0
:10247000B9F0293D4CE5340711F1273D3C4531F5D4
:1024800026E241EE61EE1EC0223FFCE53F0799F0D7
:1024900070F0233F3C45D1F427E245EE66EE12C0D2
:1024A00027E245EE0EC026E241EE60EE0BC027E2C9
:1024B00045EE64EE07C026E241EE62EE03C028E27C
:1024C00041E065EE0E94C11180E00895FC01828127
:1024D000882319F01092AD01089581E008958EE1EE
:1024E000489B02C08150E1F7489BFECF0895589861
:1024F00080E28A95F1F7589A0895FC013AE03A95FE
:10250000F1F720E090E080E031E0961779F040E1CB
:102510004A95F1F7880F489B02C08160232700C0CD
:10252000000040E14A95F1F79F5FEFCF90E19A9567
:10253000F1F799B100C0000030E13A95F1F79170E0
:1025400092272081920F90830895EF92FF920F932C
:102550001F93CF93DF931F92CDB7DEB7F62E19826C
:10256000E82E8C01802F8E198F1558F40E946F125F
:1025700068E0CE0101960E947D12F80181938F01DF
:10258000F1CF81E09981911180E00F90DF91CF919F
:102590001F910F91FF90EF9008959093B001809359
:1025A000AF016093AE01509A589A08959093B0018C
:1025B0008093AF016093AE015098589AE89AE9E68B
:1025C000F0E080818C7F80830895615091E001C0AC
:1025D000990F6A95EAF720E031E0992361F0492FDD
:1025E000482319F0589A232701C0589840E24A9589
:1025F000F1F79695F2CF222311F0589A01C058981E
:1026000080E28A95F1F758980895EF92FF920F9320
:102610001F93CF93DF931F92CDB7DEB7162F082FEE
:102620007C018E2D801B811758F4F70181917F0169
:1026300089830E94771268E089810E94E512F1CFB8
:102640000F90DF91CF911F910F91FF90EF90089520
:102650001F920F920FB60F9211240F931F932F9377
:102660003F934F935F936F937F938F939F93AF931A
:10267000BF93EF93FF93CF93DF931F92CDB7DEB756
:1026800019820E946F1267E0CE0101960E947D12AE
:10269000382F369536953695932F96959570232F2E
:1026A0002570920F292F2370969596958770920F1B
:1026B000891348C08981811145C08091AE0183177B
:1026C00008F440C080E18A95F1F7589A509AA2E048
:1026D000AA95F1F700C00091AF011091B001B8E0E8
:1026E0003B9F000D111D11245898F8016581662348
:1026F00021F0868197810E9405130E947712F0E1F4
:10270000FA95F1F758985098589A80E18A95F1F720
:10271000D80112966C911297662369F013968D91E9
:102720009C9114970E94A512D801ED91FC91811102
:1027300005C082E004C0D801ED91FC9188E080835F
:102740000E946F120F90DF91CF91FF91EF91BF9197
:10275000AF919F918F917F916F915F914F913F9139
:102760002F911F910F910F900FBE0F901F901895F2
:102770000F931F93CF93DF932091AE0130E0281782
:1027800039070CF471C09C0193E0220F331F9A9516
:10279000E1F7C091AF01D091B001C20FD31FF894FF
:1027A000509A589845E04A95F1F70000982F969571
:1027B00095708570890F982F937086958695890FEF
:1027C0008901082B0E94771284E08A95F1F700C0F6
:1027D00067E0802F0E94E51240E14A95F1F750989A
:1027E000589A489902C000C0FCCF87E090E0489B0F
:1027F0000EC0019751F4509A589AE881F98181E00E
:102800008083789481E090E031C000C0F0CF6D818A
:10281000662381F08E819F810E94A51281110AC0DA
:10282000509A589AE881F98182E08083789482E016
:1028300090E01CC00E946F1280E28A95F1F75898D0
:10284000509A40E14A95F1F76A81662321F08B8125
:102850009C810E9405130E947712E881F981108201
:10286000789480E090E002C084E090E0DF91CF9126
:102870001F910F9108959093B6018093B50108952B
:10288000E091B501F091B601309721F00190F0810F
:10289000E02D099480E00895E091B501F091B60132
:1028A000309721F00280F381E02D09940895E091A2
:1028B000B501F091B601309739F022E0DC012C939C
:1028C0000480F581E02D099408952091B3013091A1
:1028D000B4018217930771F09093B4018093B30110
:1028E000E091B501F091B601309721F00680F781B3
:1028F000E02D099408952091B1013091B201821721
:10290000930771F09093B2018093B101E091B5010A
:10291000F091B601309721F00084F185E02D099403
:10292000089585B7806885BF85B7806885BF08959D
:1029300008950C94981408950C949B140E9491147B
:102940000E94370A0C9499140E94DE210E94BF084D
:102950000E9467220E94BC260E941C100C949C14AA
:10296000CF92DF92EF92FF920F931F93CF93DF935B
:10297000CDB7DEB72B970FB6F894DEBF0FBECDBF35
:102980000E94A1090E941A0A811111C08FEF898348
:102990008A831B820E94E7218160782F9D838C832C
:1029A00049815A816B818D810E94581556C088EBF0
:1029B000C82E81E0D82E00E010E0E02E802F0E948B
:1029C000B808F60141916F01F42EF82631F40F5F3B
:1029D0001F4F0A30110589F7D9CF9091380291FF26
:1029E00004C08B870E94BE088B8520E030E04F2D0D
:1029F00050E0922FBA01022E02C0759567950A9495
:102A0000E2F760FF24C02E83EF8221E030E069010D
:102A100002C0CC0CDD1C9A95E2F790E08C219D2140
:102A2000892B09F420E028870E94E7218160782F14
:102A30009A8789874E815F8168858A850E945815AB
:102A4000F801E854FE4F8081C826C08206C02F5F7F
:102A50003F4F2630310569F6BACF0E94FA23109114
:102A6000B7010E9440141817A1F00E9440148093EF
:102A7000B7012B960FB6F894DEBF0FBECDBFDF9126
:102A8000CF911F910F91FF90EF90DF90CF900C941A
:102A9000EC032B960FB6F894DEBF0FBECDBFDF91CF
:102AA000CF911F910F91FF90EF90DF90CF900895FD
:102AB000CF93DF93CDB7DEB72B970FB6F894DEBF79
:102AC0000FBECDBF4F83588769877A878B87DE011A
:102AD000119686E0FD0111928A95E9F785E0FE01E5
:102AE000379601900D928A95E1F749815A816B8161
:102AF0007C818D819E810E94D11C2B960FB6F8940B
:102B0000DEBF0FBECDBFDF91CF910895FC01808164
:102B100091810E949F1F0895CF93DF931F92CDB79D
:102B2000DEB7882309F42DC1682F8238C1F40E94D2
:102B3000401481FD26C169E3809121019091220119
:102B40000E9451210E942A202FEF81EE94E0215013
:102B500080409040E1F700C0000069E319C083386D
:102B600011F50E94401480FD0CC163E580912101A4
:102B7000909122010E9451210E942A202FEF81EE84
:102B800094E0215080409040E1F700C0000063E5F0
:102B900080912101909122010E9453210F90DF9199
:102BA000CF910C942A208438C1F40E94401482FDF5
:102BB000E8C067E480912101909122010E94512197
:102BC0000E942A202FEF81EE94E021508040904017
:102BD000E1F700C0000067E4DBCF8CEF860F813A9D
:102BE00070F4862F69830E942B2669818111C9C0E8
:102BF00080912101909122010E945121CFCF80E24A
:102C0000860F883048F4677081E001C0880F6A95AC
:102C1000EAF70E94E11FC2CF8BE5860F833088F46C
:102C2000653A29F0663A31F083E890E005C081E822
:102C300090E002C082E890E00F90DF91CF910C9479
:102C4000651488E5860F873108F091C0683A09F469
:102C500045C0693A09F445C06A3A09F445C06B3A7F
:102C600009F445C06C3A09F445C06B3B09F445C012
:102C70006C3B09F445C06D3A09F445C0603B09F46A
:102C800045C06E3A09F445C06F3A09F445C0613B4E
:102C900009F445C0623B09F445C0633B09F445C0F3
:102CA000643B09F445C0653B09F445C0663B09F443
:102CB00045C0673B09F445C0683B09F445C0693B22
:102CC00009F445C06D3B09F445C06E3B09F445C0AD
:102CD0006A3B09F445C080E090E044C082EE90E099
:102CE00041C089EE90E03EC08AEE90E03BC085EBAB
:102CF00090E038C086EB90E035C083EB90E032C0C6
:102D000084EB90E02FC087EB90E02CC08CEC90E03F
:102D100029C08DEC90E026C083E891E023C08AE8CA
:102D200091E020C082E991E01DC084E991E01AC0E1
:102D300081E292E017C083E292E014C084E292E064
:102D400011C085E292E00EC086E292E00BC087E2FD
:102D500092E008C08FE690E005C080E790E002C0F6
:102D60008AE292E00F90DF91CF910C947B14603F48
:102D700040F0862F0E9402230F90DF91CF910C9498
:102D8000EF230F90DF91CF910895882309F464C059
:102D9000823879F40E94401481FF5EC069E380911B
:102DA0002101909122010E9451210E942A2069E371
:102DB00010C08338B1F40E94401480FF4DC063E519
:102DC00080912101909122010E9451210E942A208C
:102DD00063E580912101909122010E9453210C947E
:102DE0002A20843879F40E94401482FF35C067E4B9
:102DF00080912101909122010E9451210E942A205C
:102E000067E4E7CF9CEF980F913A10F4682FE1CF79
:102E100090E2980F983050F4877091E001C0990FBC
:102E20008A95EAF7892F0E94E71FD9CF9BE5980F73
:102E3000933020F480E090E00C94651498E5980FAE
:102E4000973120F480E090E00C947B14803F20F0D8
:102E50000E946A230C94EF230895CF93C82F0E94F9
:102E60008C15C93349F42FEF87EE93E02150804051
:102E70009040E1F700C000008C2FCF910C94C51654
:102E8000882321F00E94E11F0C942A2008958823B2
:102E900021F00E94E71F0C942A2008954F925F9220
:102EA0006F927F92BF92CF92DF92EF92FF920F9339
:102EB0001F93CF93DF937C01062FC72FFC01158151
:102EC00012951F70D281D1110E94FE1F0E94D71F40
:102ED000882379F0DD2369F080E2800F883048F0A4
:102EE00082E00E9475200E94D71F91E0B82EB9267B
:102EF00001C0B12CCC2EC2948FE0C822D12CF60197
:102F0000E859FF4F0C94122F8C2F807FCF708823AD
:102F100011F0C295C07FDD2399F0CC2309F4CFC115
:102F200080E2800F883010F0011104C08C2F0E94C5
:102F3000E11F03C08C2F0E94F11F0E942A20BFC1F5
:102F4000802F0E94C516CC2309F402C280E2800FB4
:102F5000883010F0011104C08C2F0E94E71F03C0BD
:102F60008C2F0E94F71F0E942A20F2C18C2F807F95
:102F7000CF70803211F0C295C07F002319F001306C
:102F8000C9F022C0DD2371F0112341F0113031F47A
:102F90000E9411208C2B0E941720DAC10E94112060
:102FA0008C2B45C1112319F0113009F4D1C10E94B5
:102FB000202023C0DD2321F0163008F0C9C10EC047
:102FC000153008F0C5C119C0DD2351F0112331F0CF
:102FD000F701858180FF73C18F7085838C2F27C196
:102FE000112359F0093309F07BC1FFEF27EE83E08D
:102FF000F15020408040E1F771C18C2F1EC18C2F11
:1030000086958695837090E0009719F0019761F09E
:103010009FC1DD2321F0802F9C2F937002C080E0A0
:1030200090E00E946514A4C1DD2321F0802F9C2F25
:10303000937002C080E090E00E947B1499C1DD2370
:10304000F9F0053F51F0063F71F0043FA9F480917B
:103050007C0290917D0281600BC080917C029091F6
:103060007D02826005C080917C0290917D02846027
:1030700090937D0280937C02802F0E9402231EC0C9
:10308000053F51F0063F71F0043FA9F480917C02A6
:1030900090917D028E7F0BC080917C0290917D0289
:1030A0008D7F05C080917C0290917D028B7F9093F3
:1030B0007D0280937C02802F0E946A230E94EF236E
:1030C00057C18C2F837009F04BC0D1114DC1202FF7
:1030D000229526952770220F220F602F6F70862F62
:1030E00090E0A0E0B0E02C013D01022E04C0440CB1
:1030F000551C661C771C0A94D2F704FF10C08FE0A1
:1031000090E0A0E0B0E004C0880F991FAA1FBB1F89
:103110002A95D2F780959095A095B09503C080E050
:1031200090E0DC01C695C695C370D0E0BC01CD012E
:103130006429752986299729C230D10559F0C330F1
:10314000D10559F0219719F00E94161E0DC10E9459
:10315000041E0AC10E94281E07C10E94021E04C14B
:10316000DD2319F08C2F817001C08695882309F426
:10317000FBC0202F229526952770220F220F602F4B
:103180006F70862F90E0A0E0B0E02C013D01022E90
:1031900004C0440C551C661C771C0A94D2F704FF2B
:1031A00010C08FE090E0A0E0B0E004C0880F991F4D
:1031B000AA1FBB1F2A95D2F780959095A095B09530
:1031C00003C080E090E0DC01C695C695C370D0E0F6
:1031D000BC01CD016429752986299729C230D10502
:1031E00059F0C330D10559F0219719F00E94DC1E27
:1031F000BBC00E94CA1EB8C00E94EE1EB5C00E948D
:103200003D1EB2C0802F90E0FC01E05EF109E53187
:10321000F10508F050C0E858FF4F0C94122F0F70C2
:103220008C2F8F71DD2331F00E94631E802F0E944E
:1032300040178EC00E94841E802F0E94471788C0AE
:10324000DD2341F0153008F083C08C2F8F710E9470
:10325000A91E7EC0163008F07BC0F7CFDD2339F001
:103260008C2F8F710E94631E73C0DD23C9F38C2FD6
:103270008F710E94841E6CC0DD2329F08C2F8F710A
:103280000E944E1E65C00E94491E62C0DD2349F0A7
:10329000CF718C2F0E94631E63E08C2F0E946020F0
:1032A00057C081E00E947520123008F451C082E0BE
:1032B0000E9475204DC0DD2331F0112389F2802F4B
:1032C0000E948C1545C0112391F2093349F49FEFF8
:1032D000E7EEF3E09150E040F040E1F700C000007D
:1032E000802F0E94C51634C04C2F4F70602FC7012D
:1032F0000E9402060E94751D3BC0D11139C0CF70DB
:10330000D0E0C230D10599F03CF4209769F02197C4
:10331000F9F40E9400272CC0C430D10571F054F09C
:103320002597B1F480E00AC00E94DD2621C00E94EA
:1033300047271EC00E9452271BC087E00E947B27A0
:1033400017C04C2F4F70602FC7010E94050610C098
:1033500028E0C216D10441F05CF09AE0C91AD10805
:10336000E2E0CE16D10420F40E9440140E94EC0347
:10337000BB20F1F00E94D31F80FD1AC0F70112821A
:103380000E94CD1F0E94631EC7010E94E6190E9481
:10339000CD1FDF91CF911F910F91FF90EF90DF90A4
:1033A000CF90BF907F906F905F904F900C94841E51
:1033B000DF91CF911F910F91FF90EF90DF90CF9011
:1033C000BF907F906F905F904F9008950F931F93E1
:1033D000CF93DF93EC01888199812B813C81232B52
:1033E000B9F09F3F11F48F3F99F0CE010E94FE0388
:1033F000882371F0688179818A810E94AA1F8C01DB
:103400000E94001F0E94011EB801CE010E944E17AB
:10341000DF91CF911F910F9108950E94FE1F0E948E
:103420000E200E942A200E9495240E94EF2380E013
:1034300090E00E94651480E090E00C947B148091F1
:103440002101909122010E9455210C940D1A0E9495
:10345000EE1F0C941F1AE92FE295EF70F0E03297FF
:10346000EE30F105B0F4E357FF4F0C94122F803F7C
:1034700091F018F4803E68F40EC0843F51F40BC004
:10348000803E48F0813F29F406C093FB882780F9ED
:10349000089580E0089581E008950E949F1F0E9492
:1034A0002B1A0895CF93DF9300D000D01F92CDB791
:1034B000DEB70F900F900F900F900F90DF91CF918C
:1034C0000895CF93DF9300D000D000D0CDB7DEB702
:1034D00026960FB6F894DEBF0FBECDBFDF91CF9119
:1034E00008951F93CF93DF93C091C30116E080919D
:1034F000C401C81799F0D0E01C9FF0011D9FF00D8A
:103500001124EB53FE4F408151816281738184818C
:1035100095810E94611A2196C770E9CFDF91CF9102
:103520001F9108954091F5015091F6016091F701C6
:103530007091F8018091F9019091FA010C94611A4F
:103540008091FA0182958F7009F054C08091F70143
:10355000882309F44FC08091C301A091C4016091F8
:10356000F5017091F6014091F8015091F901B6E032
:103570008A1709F43FC090E041155105C1F17F3F22
:1035800011F46F3FA1F1B89FF001B99FF00D112424
:10359000EB53FE4F218172132AC02081621327C092
:1035A0002281211124C0238134812417350710F48E
:1035B00021503109241B350B283C3105C0F42091E2
:1035C000FA012F7020612093FA0126E0289FF00174
:1035D000299FF00D1124E653FE4F80818F7080618A
:1035E000808385EF91E00E94E6190C94711A019690
:1035F0008770BECF0895CF92DF92EF92FF920F9324
:103600001F93CF93DF93CDB7DEB762970FB6F894D1
:10361000DEBF0FBECDBF8C0185E0F801DE011D9637
:1036200001900D928A95E1F7D8014C9111965C9129
:10363000119712966C9112971396CD90DC90149777
:103640003091F5017091F6018091F8019091F901A6
:10365000009709F46BC17F3F19F43F3F09F466C13D
:10366000E090F701EE2009F4C0C02091FA01C816DD
:10367000D90628F0F601E81BF90BCF0104C08095AC
:1036800090958C0D9D1DFF24F394883C910578F056
:10369000F12C207F09F0C6C07C2DD98AC88A89897F
:1036A0000E94521A85EF91E00E94E619B1C0822F64
:1036B000807F09F046C0751314C0341312C0611125
:1036C00010C02F7020612093FA010E94921A85EF9A
:1036D00091E00E94E6198091FA01D80115968C9329
:1036E0002EC0CD2819F15F3F11F44F3FF9F0F62EAF
:1036F00061111CC08091C3012091C40136E0821782
:1037000009F45AC090E0389FF001399FF00D112460
:10371000EB53FE4F7181571306C07081471303C0EE
:103720007281711103C001968770E9CFF62E66236E
:1037300009F427C18091FA0181608093FA01F12C8C
:1037400020C1751308C0341306C0611104C08091F4
:10375000FA01D801C3C04D875E878D859E856A8B2F
:103760000E944D1A6A898823E1F16623D1F12091E4
:10377000FA01822F82958F7090E0029774F0809109
:10378000F5019091F60198878F831986DB86CA86AA
:103790002C87CE0107960E94E61986E0F801A5EF76
:1037A000B1E001900D928A95E1F70E94A01A0E9463
:1037B000921AFF24F394E5C04D875E878D859E8520
:1037C0000E949F1F292F22952F7030E02230310553
:1037D0000CF0CBC09F7009F0C5C0805E883008F443
:1037E000D0C0C8010E94E619E4CFC816D90608F473
:1037F00053C0F601E81BF90BCF01883C910508F492
:1038000050C0F12C7C2DD98AC88A89890E94521A0D
:10381000E5EFF1E086E0DF011D928A95E9F70E946D
:10382000921AAFC0751314C0341312C0611110C0C6
:103830008091FA01F8018583C8010E94E61986E0AB
:10384000E5EFF1E0DF011D928A95E9F7FE2C99C0C2
:103850004D875E878D859E856A8B0E944D1A6A8989
:10386000882309F4BECF662309F4BBCF2091FA0167
:10387000822F82958F7090E002970CF48ECF80910A
:10388000F5019091F6019A8389831B82DD82CC82B7
:103890002E83CE0101967FCF809590958C0D9D1D36
:1038A000ACCFF62E662309F49CCF75132EC03413CB
:1038B0002CC02091FA0120FD1FC0822F82958F70AD
:1038C000D9F0D80115962C9315978F3049F08F5F5A
:1038D000982F9295907F822F8F70892B15968C93BD
:1038E000C8010E94E61986E0F801A5EFB1E0019059
:1038F0000D928A95E1F793CF86E0F801A5EFB1E04C
:1039000001900D928A95E1F73CC04D875E878D85C9
:103910009E850E944D1A811140CF8091FA018160ED
:103920008093FA01C8010E94E6192BC0662309F4AE
:1039300058CF4D875E878D859E850E944D1AF82E43
:10394000882309F44ECF86E0F801A5EFB1E001909D
:103950000D928A95E1F785EF91E00E9486150E940D
:10396000A01A5DCF811139CF0CC0243031050CF085
:1039700038CF9F7009F431CFF8019581907F09F01D
:103980002CCF8F2D62960FB6F894DEBF0FBECDBF41
:10399000DF91CF911F910F91FF90EF90DF90CF902B
:1039A00008951F93CF93DF93CDB7DEB72C970FB653
:1039B000F894DEBF0FBECDBF4F83588769877A87E3
:1039C0008B879C87CE0107960E94FB1A882369F09B
:1039D0008F8198852A853B85232BF1F19F3F09F044
:1039E00063C08F3F09F060C037C086E0FE013796A4
:1039F000DE01119601900D928A95E1F76F8178852D
:103A0000EA85FB85309741F17F3F11F46F3F21F14B
:103A10002091C40130E0C901019687709927409137
:103A2000C30150E08417950709F447C069837A837E
:103A3000FD83EC8396E0929FD001939FB00D1124FB
:103A4000AB53BE4FFE01319601900D929A95E1F76E
:103A50008093C4010E94711A16E08091C301909175
:103A6000C4018917C1F1189FC00111248B539E4FC7
:103A70000E94FB1A882379F1E091C3011E9FF00197
:103A80001124EB53FE4F4081518162817381848107
:103A900095810E94611A8091C30190E00196877020
:103AA00099278093C301D9CF4F81588569857A853D
:103AB0008B859C850E94611ACFCF0E94271A109295
:103AC000C4011092C301E5EFF1E086E0DF011D9231
:103AD0008A95E9F7C1CF2C960FB6F894DEBF0FBEDA
:103AE000CDBFDF91CF911F910895EF92FF920F9379
:103AF0001F93CF93DF938C01892B09F46CC0F12CB9
:103B0000EE24E394E8012196F8018491843740F48F
:103B1000843008F051C0813081F0823019F15BC0EF
:103B2000853709F444C0A8F19CE7980F903708F056
:103B300052C08F770E94C51641C00E5F1F4FFE0115
:103B4000C49180E28C0F883048F4C7708E2D01C07C
:103B5000880FCA95EAF70E94012014C08C2F0E949A
:103B60008C152DC00E5F1F4FFE01C49180E28C0F9B
:103B7000883058F4C7708E2D01C0880FCA95EAF7B7
:103B80000E9407200E942A201AC08C2F0E94C5166E
:103B900016C00E5F1F4FFE01C491CC2381F08FE948
:103BA0009FE00197F1F700C00000C150F6CF0E5F13
:103BB0001F4FFE01F49003C00E948C158E018F2DC3
:103BC000882309F49FCFEFE9FFE03197F1F700C0B8
:103BD00000008150F5CFDF91CF911F910F91FF90A1
:103BE000EF90089508950C94F21D0E94F31D6093C8
:103BF0002702709328028093290290932A020C9442
:103C00000D1A08950C94F51D0F931F930091270230
:103C1000109128022091290230912A02602B712BE9
:103C2000822B932B1F910F910C94F51D0F931F93D3
:103C300000912702109128022091290230912A0236
:103C400060237123822393231F910F910C94F51D00
:103C50000F931F93009127021091280220912902AF
:103C600030912A0260277127822793271F910F9195
:103C70000C94F51D08950C943A1E0E943B1E60930F
:103C800023027093240280932502909326020C94C1
:103C90000D1A60E070E0CB010C943D1E0F931F9352
:103CA00041E050E060E070E08A019B0104C0000F39
:103CB000111F221F331F8A95D2F7C901B8011F9126
:103CC0000F910C943D1E0F931F9341E050E060E074
:103CD00070E004C0440F551F661F771F8A95D2F706
:103CE0008091230290912402A0912502B091260296
:103CF0008A019B01082B192B2A2B3B2BC901B801E8
:103D00001F910F910C943D1E0F931F9341E050E0C3
:103D100060E070E004C0440F551F661F771F8A954E
:103D2000D2F74095509560957095809123029091BF
:103D30002402A0912502B09126028A019B0108234A
:103D400019232A233B23C901B8011F910F910C9419
:103D50003D1E0F931F9341E050E060E070E004C00F
:103D6000440F551F661F771F8A95D2F78091230253
:103D700090912402A0912502B09126028A019B0114
:103D8000082719272A273B27C901B8011F910F913E
:103D90000C943D1E0F931F93009123021091240257
:103DA0002091250230912602602B712B822B932BC0
:103DB0001F910F910C943D1E0F931F9300912302AE
:103DC0001091240220912502309126026023712354
:103DD000822393231F910F910C943D1E0F931F93E9
:103DE0000091230210912402209125023091260295
:103DF00060277127822793271F910F910C943D1EF6
:103E00000895292F220F920F990F890FA82FA69599
:103E1000A695A695877051E001C0550F8A95EAF7DF
:103E200085E0A89FD001112420E030E070E0F90186
:103E3000EA0FFB1FE550FE4F4081CB01022E02C06E
:103E4000969587950A94E2F7817099278195842742
:103E50008523842780832F5F3F4F2530310539F735
:103E60000895292F220F920F990F890F682F6695B9
:103E700066956695982F977085E0689FB00111242C
:103E800040E050E080E0FA01E60FF71FE550FE4FFA
:103E9000208130E0092E02C0369527950A94E2F77A
:103EA00021703327042E01C0220F0A94EAF7822BD7
:103EB0004F5F5F4F4530510531F70895BF92CF9264
:103EC000DF92EF92FF920F931F93CF93DF938C01BA
:103ED000C0902702D0902802E0902902F0902A0298
:103EE0008091230290912402A0912502B091260294
:103EF000C82AD92AEA2AFB2ACFE1D0E0D701C60195
:103F00000C2E04C0B695A795979587950A94D2F77D
:103F100080FF07C0BC2EB8018C2F0E94200601979D
:103F200019F4219758F7B12C8B2DDF91CF911F9168
:103F30000F91FF90EF90DF90CF90BF900895CF93B7
:103F4000DF93EC010E945E1FBE010E942006DF91FC
:103F5000CF9108951F93CF93DF93EB019091C2010E
:103F6000992321F0CB010E949F1F13C0882349F0A1
:103F7000CB010E945E1F182F682FCE010E94011FE7
:103F800004C0CB010E94311F182FBE01812F0E9457
:103F90002006DF91CF911F91089580912B02859586
:103FA00085958595089580912B028770089590914D
:103FB0002B02977081E009F480E008958091370228
:103FC000089590913702892B809337020895809548
:103FD0009091370289238093370208951092370217
:103FE000089590913602892B80933602089580952A
:103FF00090913602892380933602089510923602FA
:10400000089590913502892B80933502089580950B
:1040100090913502892380933502089510923502DC
:10402000089580912C02089508950C941420909185
:104030002C02981721F080932C020C9415200895DF
:1040400080912C02882329F010922C0280E00C949D
:1040500015200895E0912101F0912201809137020D
:104060008083E0912101F0912201908180913602BC
:10407000892B8083E0912101F09122019081809130
:104080003502892B808380912C02882381F0E09176
:104090002101F09122019081892B8083809121015F
:1040A000909122010E941F2181110E942020809165
:1040B0002101909122010C944C1408950C945D20E0
:1040C00098E0899F90011124262B20932B020E94B7
:1040D000631E80912B028595859585950C945E20B5
:1040E00010922B0280E00C945E2020912B02809590
:1040F000822380932B02982F977079F430E0482F19
:10410000082E000C550B2417350739F08595859539
:1041100085950E94841E0C947020089580E090E0A4
:104120000E944D2F21E08D3E9E4F09F020E0822F0E
:10413000089582E090E00C943F2F83E090E00C948F
:104140003F2F84E090E00C943F2F682F84E090E0B4
:104150000C94532F86E090E00C943F2F682F86E05C
:1041600090E00C94532FAB01BC018FE090E00C94D5
:10417000652FAB01BC0183E190E00C94652F60E0FA
:1041800070E0CB010C94B92060E070E0CB010E949C
:10419000B3200C94BF206DEE7EEF80E090E00E9493
:1041A000712F60E082E090E00E94532F60E083E096
:1041B00090E00E94532F1092270210922802109232
:1041C000290210922A0260E084E090E00E94532FBE
:1041D00060E085E090E00E94532F60E086E090E090
:1041E0000E94532F6FEF87E090E00E94532F40E032
:1041F00050E0BA0188E090E00E94652F60E08DE019
:1042000090E00E94532F40E050E0BA0188E190E036
:104210000E94652F60E087E190E00E94532F40E00C
:1042200050E0BA018CE190E00E94652F60E080E2EE
:1042300090E00E94532F0C94C4200C94CB20FC01DE
:10424000329697E080E0915029F021912223D9F312
:104250008F5FF9CF08959C01FC0132969FEF80E0BB
:104260004191461789F09F3F19F4411101C0982FE1
:104270008F5F8630A9F79F3F39F0F901E90FF11DF3
:1042800097FDFA95628308950895FC013296089689
:104290002081261301C010823196E817F907C1F773
:1042A00008950C942B210C944521029626E0FC01E4
:1042B00011922A95E9F7089508950C945C210E94C3
:1042C0005D2180918902843061F11092390220E4ED
:1042D00088E190E00FB6F894A895809360000FBE37
:1042E0002093600080E00E94710380E00E94EC0354
:1042F0000E945D2183B7817F846083BF83B7816023
:1043000083BF7894889583B78E7F83BF0FB6F89468
:10431000A895809160008861809360001092600091
:104320000FBE089508950895CF930E9492210E9490
:10433000A1090E949321C0E08C2F0E94B80881112E
:1043400004C0CF5FCA30C1F701C081E0CF910895AA
:1043500008950C94A8210E94271A0E94BC260E944E
:1043600040140E94EC030C94A9211F920F920FB6E7
:104370000F9211248F939F93AF93BF938091390233
:10438000811113C080917E0290917F02A0918002E2
:10439000B09181024196A11DB11D80937E02909340
:1043A0007F02A0938002B0938102BF91AF919F9151
:1043B0008F910F900FBE0F901F90189582E084BDD3
:1043C00093E095BD9AEF97BD80936E0008952FB747
:1043D000F89480917E0290917F02A0918002B0912A
:1043E00081022FBF0895CF92DF92EF92FF920F9339
:1043F0001F932FB7F89440917E0250917F026091F5
:104400008002709181022FBF6A017B01EE24FF249C
:104410008C0120E030E0C016D106E206F30610F46D
:10442000415051099A01281B390BC9011F910F9165
:10443000FF90EF90DF90CF90089578941F920F92A5
:104440000FB60F9211248F939F93AF93BF938091D8
:104450007E0290917F02A0918002B091810201962C
:10446000A11DB11D80937E0290937F02A0938002D4
:10447000B0938102BF91AF919F918F910F900FBE2A
:104480000F901F90189581E08093E00080E2809368
:10449000D8001092C9008FE19EE40197F1F700C0A7
:1044A000000087E090EBDC018093920290939302EE
:1044B000A0939402B09395029CE088E10FB6F89423
:1044C000A895809360000FBE90936000FFCF0E947C
:1044D0008E20811102C00E941D210E94992080938C
:1044E00038020E94A12090E0909383028093820280
:1044F0000E949D20682F70E080E090E00C94021EE6
:1045000080913D0280FF0BC06091260185E0689F8D
:10451000B001112475956795759567952BC081FF3E
:1045200009C06091260185E0689FB001112475954E
:10453000679520C082FF07C06091260185E0689FD3
:10454000B001112417C090913C029923D1F06091E1
:104550002501961788F72091260185E0289F900174
:104560001124929FA001939F500D112470E0CA0165
:104570000E94DC2E6038710540F46115710539F038
:1045800002C065E070E0862F08958FE7089581E00E
:10459000089580913D0280FF08C06091240170E081
:1045A000759567957595679521C081FF06C06091E7
:1045B000240170E07595679519C082FF04C0609171
:1045C000240170E010C090913C029923C1F06091E9
:1045D00023019617A0F780912401899FC00111241F
:1045E00070E00E94DC2E6038710528F461157105B9
:1045F00021F0862F08958FE7089581E0089561E006
:1046000070E0F4CF803F21F40E948022819504C0A5
:10461000813F29F40E948022809341020895823FC5
:1046200021F40E948022819504C0833F29F40E94D6
:104630008022809340020895893F19F40E94C92284
:1046400005C08A3F31F40E94C922819580934202BD
:1046500008958B3F21F40E94C922819504C08C3FAC
:1046600029F40E94C922809343020895843F21F4D3
:1046700080913F02816017C0853F21F480913F0205
:10468000826011C0863F21F480913F0284600BC09C
:10469000873F21F480913F02886005C0883F31F454
:1046A00080913F02806180933F0208958D3F21F405
:1046B00080913D0281600BC08E3F21F480913D02CC
:1046C000826005C08F3F29F480913D028460809311
:1046D0003D020895803F39F48091410287FF6CC00C
:1046E0001092410269C0813F29F48091410218165D
:1046F000BCF362C090914002823F29F497FF5CC0F6
:104700001092400259C0833F19F41916CCF354C0DB
:10471000893F41F48091420218160CF04DC010926E
:1047200042024AC08A3F29F48091420287FF44C076
:10473000F6CF8B3F39F48091430287FF3DC0109242
:1047400043023AC08C3F29F4809143021816BCF30F
:1047500033C0843F21F480913F028E7F17C0853F94
:1047600021F480913F028D7F11C0863F21F480911A
:104770003F028B7F0BC0873F21F480913F02877FF0
:1047800005C0883F31F480913F028F7E80933F02C5
:1047900013C08D3F21F480913D028E7F0BC08E3F70
:1047A00021F480913D028D7F05C08F3F29F48091D7
:1047B0003D028B7F80933D028091400281110EC0AB
:1047C0008091410281110AC080914202811106C08C
:1047D00080914302811102C010923C0208958EE341
:1047E00092E00E9457140E94E72190933B0280932D
:1047F0003A0208951F93CF93DF9380913A029091EC
:104800003B020E94F321AC0190913C02992321F0DC
:104810002091270130E006C0209128018AE0289FDE
:10482000900111244217530708F47BC08091400285
:10483000C0914102D091420210914302811107C000
:10484000C1116BC0D11169C0111167C06AC09F3F0F
:1048500019F09F5F90933C02181624F40E94802266
:10486000809340028091400287FF05C00E94802211
:104870008195809340021C1624F40E94802280932C
:1048800041028091410287FF05C00E9480228195EC
:1048900080934102309140023323E1F020914102A4
:1048A0002223C1F045EB3403C0011124892F990F55
:1048B000990B009709F481E08093400235EB2303C4
:1048C000C0011124892F990F990B009709F481E0F9
:1048D000809341021D1624F40E94C9228093420253
:1048E0008091420287FF05C00E94C9228195809372
:1048F0004202111624F40E94C9228093430280913F
:10490000430287FF05C00E94C9228195809343021C
:10491000DF91CF911F910C94EF239F3F09F099CF26
:10492000A1CFDF91CF911F910895EEE3F2E086E0F1
:10493000DF011D928A95E9F710923C0210923D0228
:104940000895833081F128F4813059F08230D1F01C
:104950000895853009F449C0B8F1863009F456C08D
:10496000089580912801262F30E0280F311D2F3F18
:10497000310524F4680F6093280108958FEF809328
:104980002801089580912701262F30E0280F311D3E
:104990002F3F310524F4680F6093270108958FEFAE
:1049A00080932701089580912601262F30E0280F5B
:1049B000311D2F3F310524F4680F609326010895BF
:1049C0008FEF80932601089580912501262F30E0F6
:1049D000280F311D2F3F310524F4680F6093250106
:1049E00008958FEF80932501089580912401262F4B
:1049F00030E0280F311D2F3F310524F4680F6093FC
:104A0000240108958FEF809324010895809123015C
:104A1000262F30E0280F311D2F3F310524F4680F79
:104A20006093230108958FEF8093230108958330CD
:104A300011F128F4813049F0823091F008958530E9
:104A400081F120F18630C1F1089580912801681725
:104A500020F4861B80932801089510922801089560
:104A600080912701681720F4861B80932701089501
:104A700010922701089580912601681720F4861B63
:104A800080932601089510922601089580912501B2
:104A9000681720F4861B8093250108951092250144
:104AA000089580912401681720F4861B80932401C7
:104AB000089510922401089580912301681720F42D
:104AC000861B8093230108951092230108950F936C
:104AD0001F938B3109F474C058F58B3009F4A1C0D1
:104AE00078F4863009F446C020F4853009F44CC0CF
:104AF0009FC0873009F456C0883009F492C098C02E
:104B0000803109F470C068F48E3009F091C0809152
:104B1000380282FB222720F991E0922790FB82F94C
:104B200058C0863109F47DC0893109F47AC080C04B
:104B30008A32E9F060F4873209F475C028F48E31C6
:104B400008F476C08D515AC08932F1F071C08334B7
:104B500050F48A3308F051C0853309F464C08833B7
:104B600009F45FC065C0833409F45DC061C00E9470
:104B70001D2157C080913802817F8E7F809338023B
:104B800081E08093450255C00E94271A0FEF13ED74
:104B900020E3015010402040E1F700C000000E94D7
:104BA00043223FC080913802982F9095917090FBDE
:104BB00080F980933802911134C0897F877F10C0BB
:104BC0008091380281FB222720F991E0922790FB07
:104BD00081F980933802992321F180913802816014
:104BE000809338021EC08091380283FB222720F96F
:104BF00091E0922790FB83F9ECCF895341E050E09C
:104C000060E070E08A019B0104C0000F111F221FA9
:104C1000331F8A95D2F7C901B8010E94021E0E9473
:104C2000271A81E006C061E070E080E090E0F5CFF7
:104C300080E01F910F91089580E0089580E008952D
:104C40008E518A3030F4E82FF0E0E759FE4F808132
:104C5000089580E00895CF93C82F80914502813058
:104C600051F018F0823099F17DC00E94DE1F82322F
:104C700009F07AC004C00E94DE1F823261F48C2FDA
:104C80000E941C26811104C08C2F0E9467251DC024
:104C900081E090E01AC08C2F0E941E26811114C062
:104CA000C43179F048F4CB3079F0C03109F060C0FC
:104CB00082E08093450208C0C93219F0C83321F060
:104CC00057C01092450254C081E0817053C0C93270
:104CD00089F118F5C43171F1B0F4C73009F046C05C
:104CE0008EE18093280182E3809327018AE08093FC
:104CF000260184E18093250188E08093240188E2E5
:104D00008093230133C082EE8C0F863078F58C2F90
:104D10000E9420268093440229C0CE34E9F020F47A
:104D2000CB3421F56AE013C0C13579F0C235F1F416
:104D300061E00DC080914402882319F01092440272
:104D400015C081E08093450215C061E006C08091E6
:104D500044020E94A1240AC06AE0809144020E9499
:104D6000172504C01092450280E004C081E002C013
:104D700080E0ABCFCF9108950E948E20811102C0B8
:104D80000E941D210E94AA2080938402282F26952C
:104D90002695269530E02830310524F08770886309
:104DA000809384028091840280FF04C0869586955A
:104DB000869501C080E00C94710320918402822FBB
:104DC000869586958695482F50E04730510554F4D6
:104DD0008F5F982F990F990F990F822F8770892BCA
:104DE00080938402809184028160809384020E9477
:104DF000AE20809184028695869586950C947103E9
:104E000080918402982F969596959695A1F0915E43
:104E1000990F990F990F8770892B80938402887F4F
:104E200091E009F490E08091840290FB80F98093F6
:104E300084020E94AE208091840286958695869594
:104E40000C9471038091840280FD13C08160809373
:104E50008402813019F489E0809384028091840275
:104E60000E94AE20809184028695869586950C944A
:104E7000710308958091840280FF08C08E7F809323
:104E800084020E94AE2080E00C947103089580910A
:104E9000840280FD0C943A270C942227809184028E
:104EA0008170089590918402892F869586958695C4
:104EB0008F5F8F719770883038F4880F880F880F54
:104EC000892B8093840202C0909384028091840293
:104ED000887F91E009F490E08091840290FB80F952
:104EE000809384020E94AE208091840286958695EC
:104EF00086950C947103883008F087E0880F880F3E
:104F0000880F909184029770892B80938402887F08
:104F100091E009F490E08091840290FB80F9809305
:104F200084020E94AE2080918402869586958695A3
:104F30000C947103809184028695869586950895D8
:104F400080914E0208950F931F93CF93DF9300D06B
:104F50001F92CDB7DEB78C010E94FF29823011F07D
:104F6000843021F584E089831B830A8382E0809367
:104F7000E9008FEF9091E800815095FD06C095ED16
:104F80009A95F1F700008111F5CF8091E80085FF37
:104F90000DC040E050E063E070E0CE0101960E9459
:104FA0001C2A8091E8008E778093E8000F900F9084
:104FB0000F90DF91CF911F910F910895CF93DF93C1
:104FC00000D01F92CDB7DEB720918902243031F591
:104FD00023E02983805891099B838A8382E0809310
:104FE000E9008FEF9091E800815095FD06C095EDA6
:104FF0009A95F1F700008111F5CF8091E80085FFC7
:105000000DC040E050E063E070E0CE0101960E94E8
:105010001C2A8091E8008E778093E8000F900F9013
:105020000F90DF91CF910895CF93DF93EC010E9411
:10503000FF29823011F08430F9F482E08093E90096
:105040009FEF8091E800915085FD06C085ED8A951F
:10505000F1F700009111F5CF8091E80085FF0CC0B9
:1050600040E050E066E070E0CE010E941C2A809192
:10507000E8008E778093E800DF91CF910895CF9379
:10508000DF93EC010E94FF29823011F0843039F562
:1050900081E08093E9008FEF9091E800815095FDC9
:1050A00006C095ED9A95F1F700008111F5CF80913A
:1050B000E80085FF14C040E050E068E070E0CE01F9
:1050C0000E941C2A8091E8008E778093E80088E097
:1050D000FE01A6E4B2E001900D928A95E1F7DF911E
:1050E000CF91089580918802811109C00E94B12B4F
:1050F0000E940E2C8091E20084608093E20008956B
:10510000109288020895089508950C94AB2142E00E
:1051100061EC81E00E942B2B42E261EC82E00C9476
:105120002B2B80918B02833009F460C030F48130E6
:1051300071F0823009F499C008958A3009F485C06D
:105140008B3009F46BC0893009F0A7C020C0809172
:105150008A02813A09F0A1C08091E800877F80939C
:10516000E80080918E0290918F02892B21F468E0F3
:1051700086E492E003C060E080E090E070E00E948E
:10518000672A8091E8008B778093E80008958091EA
:105190008A02813209F081C080918E0290918F0243
:1051A000029708F07AC08091E800877F8093E8003A
:1051B0008091E80082FD05C0809189028111F8CFBD
:1051C0006CC02091F3008091F20090E0922B029746
:1051D00029F48091F1008B7F813021F48091F100DE
:1051E00080934E028091E8008B7753C080918A02B1
:1051F000813A09F052C080918E0290918F02892BE2
:1052000009F04BC08091E800877F8093E80080918F
:10521000E80080FFFCCF8091330136C080918A0284
:105220008132D9F580918E0290918F02892BA9F558
:105230008091E800877F8093E8000E94602B809136
:105240008C02809333010C94271A80918A02813258
:1052500021F58091E800877F8093E8000E94602B11
:1052600080918D0280934F02089580918A02813A45
:10527000A1F48091E800877F8093E8008091E800A6
:1052800080FFFCCF80914F028093F1008091E80075
:105290008E778093E8000C94602B089584B7877F05
:1052A00084BF0FB6F894A8958091600088618093C0
:1052B0006000109260000FBE80E880936100109241
:1052C00061000E949E140E94B12B0E940E2C8091BE
:1052D000E20084608093E20078940E949D2E0E94F8
:1052E000A41489E291E00E943B14809189028530E8
:1052F00069F40E945F21809187028823B1F30E94A4
:105300009421882391F30E94062AEFCF0E94B014C3
:105310000E94C910EACF0C948D29292F33272330FE
:105320003105C9F064F42130310581F022303105B6
:1053300009F04CC08BE390E027E934E04BC0213208
:10534000310521F12232310589F140C082E190E03E
:1053500022ED34E03FC099278130910571F02CF4A3
:10536000892BA1F5E3E9F4E00DC08230910541F00D
:10537000039761F5E1E5F4E005C0E3E8F4E002C07D
:10538000E7E5F4E0849190E09F0124C06115710588
:1053900041F061307105D1F489E090E022EC34E015
:1053A00019C089E090E029EA34E014C06115710564
:1053B00041F06130710551F485E890E024EE34E06D
:1053C00009C080E490E029E635E004C080E090E088
:1053D00020E030E0FA013183208308950895CF93CF
:1053E000C82F0E94EE29C0935002CF91089580915A
:1053F0008902843011F081E0089582E0089580915F
:105400005002811102C00C94F729089580E189BDF2
:1054100082E189BD09B400FEFDCF8091D8008F7D67
:105420008093D8008091E00082608093E0008091BA
:10543000E00081FDFCCF0895CF92DF92EF92FF92C2
:105440000F931F93CF93DF93EC018B016A010E94AE
:105450007F2B811133C0C114D10439F0F601808152
:105460009181081B190BC80FD91FE12CF12C0115D4
:10547000110519F18091E80085FD16C08091E800C2
:105480008E778093E800C114D10449F0F601808141
:105490009181E80EF91EF182E08285E00FC00E9442
:1054A0007F2B882321F30AC089918093F10001505A
:1054B0001109FFEFEF1AFF0ADACF80E0DF91CF91F9
:1054C0001F910F91FF90EF90DF90CF900895209162
:1054D0009002309191022617370748F06115710547
:1054E00039F42091E8002E772093E80001C0B9013B
:1054F00040E061157105A9F120918902222309F488
:1055000043C0253009F442C02091E80023FD40C08B
:105510002091E80022FD32C02091E80020FFE9CF71
:105520004091F3002091F20030E0342BFC01CF01D8
:105530006115710559F02830310540F4819180934F
:10554000F100615071092F5F3F4FF1CF41E02830EA
:10555000310509F040E02091E8002E772093E80023
:10556000C8CF4111C9CF0AC080918902882361F058
:10557000853061F08091E80083FD0AC08091E800E9
:1055800082FFF2CF80E0089582E0089583E00895DD
:1055900081E00895209190023091910226173707FB
:1055A00048F06115710539F42091E8002E772093B9
:1055B000E80001C0B901FC0120E06115710591F11D
:1055C00080918902882309F440C0853009F43FC0E6
:1055D0008091E80083FD3DC08091E80082FD2FC0EE
:1055E0008091E80080FFE9CF2091F3008091F200E4
:1055F00090E0922B6115710559F08830910540F4C7
:1056000024912093F1003196615071090196F2CFF7
:1056100021E0089709F020E08091E8008E778093E0
:10562000E800CBCF2111CCCF0AC08091890288231A
:1056300061F0853061F08091E80083FD0AC08091BF
:10564000E80082FFF2CF80E0089582E0089583E0D1
:10565000089581E00895982F973058F59093E900C8
:10566000981739F07091EC002091ED005091F00006
:1056700003C0242F762F50E021FF19C03091EB009A
:105680003E7F3093EB003091ED003D7F3093ED0095
:105690003091EB0031603093EB007093EC0020937D
:1056A000ED005093F0002091EE0027FF07C09F5FB0
:1056B000D3CF8F708093E90081E0089580E0089552
:1056C00080918A0287FF11C08091E80082FD05C0A9
:1056D000809189028111F8CF11C08091E8008B7709
:1056E0000BC080918902882349F08091E80080FFF7
:1056F000F8CF8091E8008E778093E800089520919C
:10570000E4003091E50095E64091EC00842F817033
:1057100040FF22C08091E80080FD1CC0809189027A
:10572000882391F0853091F08091EB0085FD10C0C9
:105730004091E4005091E5004217530729F39A0184
:10574000915011F784E0089582E0089583E0089570
:1057500081E0089580E008954091E80042FFDECFA7
:1057600008950E941F2C0E94272CE0EEF0E080811B
:1057700081608083E8EDF0E080818F77808319BCC1
:10578000A7EDB0E08C918E7F8C9380818F7E80839B
:105790001092880208950F931F93CF93DF930E9476
:1057A0001F2C0E94272CC8EDD0E088818F7788833A
:1057B00088818068888388818F7D888319BC109256
:1057C000890210928502109287021092860200EEE2
:1057D00010E0F80180818B7F8083888181608883DD
:1057E00042E060E080E00E942B2BE1EEF0E080815F
:1057F0008E7F8083E2EEF0E0808181608083808113
:1058000088608083F80180818E7F808388818061B9
:105810008883DF91CF911F910F910895E8EDF0E01B
:1058200080818F7E8083E7EDF0E0808181608083DE
:1058300084E082BF81E0809388020C94CB2BE8ED5A
:10584000F0E080818E7F80831092E20008951092B4
:10585000DA001092E10008951F920F920FB60F9296
:1058600011242F933F934F935F936F937F938F9365
:105870009F93AF93BF93EF93FF938091E10082FFDB
:105880000BC08091E20082FF07C08091E1008B7F16
:105890008093E1000E949C2E8091DA0080FF1FC05F
:1058A0008091D80080FF1BC08091DA008E7F8093AA
:1058B000DA008091D90080FF0DC080E189BD82E1CE
:1058C00089BD09B400FEFDCF81E0809389020E946A
:1058D000722805C019BC109289020E94802880910C
:1058E000E10080FF19C08091E20080FF15C0809127
:1058F000E2008E7F8093E2008091E20080618093DD
:10590000E2008091D80080628093D80019BC85E0C5
:10591000809389020E9484288091E10084FF30C036
:105920008091E20084FF2CC080E189BD82E189BDC5
:1059300009B400FEFDCF8091D8008F7D8093D80000
:105940008091E1008F7E8093E1008091E2008F7E64
:105950008093E2008091E20081608093E200809178
:105960008502882311F084E007C08091E30087FD61
:1059700002C081E001C083E0809389020E948528F3
:105980008091E10083FF29C08091E20083FF25C060
:105990008091E100877F8093E10082E0809389021B
:1059A000109285028091E1008E7F8093E1008091CA
:1059B000E2008E7F8093E2008091E200806180931C
:1059C000E20042E060E080E00E942B2B8091F0003A
:1059D00088608093F0000E948328FF91EF91BF912F
:1059E000AF919F918F917F916F915F914F913F9177
:1059F0002F910F900FBE0F901F9018951F920F922E
:105A00000FB60F9211242F933F934F935F936F9391
:105A10007F938F939F93AF93BF93CF93DF93EF9336
:105A2000FF93C091E900CF708091EC00D82FD17026
:105A300080FDD0E81092E9008091F000877F80938C
:105A4000F00078940E94422D1092E9008091F000BD
:105A500088608093F000CD2BCF70C093E900FF9158
:105A6000EF91DF91CF91BF91AF919F918F917F91F6
:105A70006F915F914F913F912F910F900FBE0F90BB
:105A80001F9018951F93CF93DF93CDB7DEB7AA97DA
:105A90000FB6F894DEBF0FBECDBFEAE8F2E088E0B3
:105AA0008E0F9091F10091938E13FBCF0E9491285D
:105AB0008091E80083FF28C180918A0290918B0237
:105AC000492F50E04A30510508F01EC1FA01E55651
:105AD000FF4F0C94122F803821F0823809F014C146
