:100000000C9403060C944A060C944A060C944A0677
:100010000C944A060C944A060C944A060C944A0620
:100020000C944A060C944A060C9484280C94562985
:100030000C94AA1A0C944A060C944A060C944A068C
:100040000C944A060C944A060C944A060C944A06F0
:100050000C944A060C941E1B0C944A060C944A06F7
:100060000C944A060C944A060C944A060C944A06D0
:100070000C944A060C944A060C944A060C944A06C0
:100080000C944A060C944A060C944A060C944A06B0
:100090000C944A060C944A060C944A060C944A06A0
:1000A0000C944A060C944A060C944A06B907BB07FE
:1000B000C607BD07BF07C107C307C507C807CA07EB
:1000C000CC07D707CE07D007D207D407D607D90762
:1000D0008F108F10C110C1100A112A118E128E12AA
:1000E0006C118E120D120D127E128E128E1287124C
:1000F0001A121A121A121A121A121A121A121A12A0
:100100001A121A121A121A121A121A121A121A128F
:100110002B1239124012471251121D131D132F13A7
:100120002F1326132F132F132F131D131D132B13F0
:100130002F132F132B13C329EA29DC2AEA29DC2ADF
:10014000362A592ADC2AAF2ABE2A53005400550009
:1001500056005F006000610057005C005D005E00BB
:10016000850059005A005B0067006200005163007F
:10017000580044454255473A2064697361626C6592
:10018000642E0A0044454255473A20656E61626C10
:1001900065642E0A000A0025303862003A200025E6
:1001A000303258000A722F63203031323334353602
:1001B000370A000A002530325820006B6579626FDB
:1001C0006172645F7265706F72743A20000A002574
:1001D000303258006B6579626F6172645F73657469
:1001E0005F6C65643A2000290A002575002F002500
:1001F00075005D280025640020002564002000258E
:10020000640020002564007C0025303258006D6FAA
:100210007573656B6579205B62746E7C78207920DC
:100220007620685D287265702F61636C293A205BC7
:10023000006D6B5F776865656C5F74696D655F7491
:100240006F5F6D6178203D2025640A006D6B5F77DC
:100250006865656C5F6D61785F7370656564203D8E
:100260002025640A006D6B5F74696D655F746F5F54
:100270006D6178203D2025640A006D6B5F6D6178AB
:100280005F7370656564203D2025640A006D6B5FB7
:10029000696E74657276616C203D2025640A006D7C
:1002A0006B5F64656C6179203D2025640A006D6B8D
:1002B0005F776865656C5F74696D655F746F5F6DAE
:1002C0006178203D2025640A006D6B5F7768656565
:1002D0006C5F6D61785F7370656564203D20256497
:1002E0000A006D6B5F74696D655F746F5F6D617837
:1002F000203D2025640A006D6B5F6D61785F73702F
:10030000656564203D2025640A006D6B5F696E742D
:10031000657276616C203D2025640A006D6B5F6418
:10032000656C6179203D2025640A000A002575006E
:10033000363A20776865656C5F74696D655F746FC8
:100340005F6D61783A20000A00257500353A207704
:100350006865656C5F6D61785F73706565643A2090
:10036000000A00257500343A2074696D655F746F6A
:100370005F6D61783A20000A00257500333A206DE0
:1003800061785F73706565643A20000A0025750026
:10039000323A20696E74657276616C286D73293A01
:1003A00020000A00257500313A2064656C617928C7
:1003B0002A31306D73293A20000A092D2056616CCC
:1003C000756573202D0A004D3E004D25643E2000CA
:1003D0003F007365742064656661756C740A004340
:1003E0003E200077686572652064656C74613A2010
:1003F000637572736F723D25642C20776865656C38
:100400003D25640A53656520687474703A2F2F6522
:100410006E2E77696B6970656469612E6F72672FE4
:1004200077696B692F4D6F7573655F6B6579730ABB
:10043000000A092D204D6F7573656B6579202D0AB3
:100440004553432F713A09717569740A313A096449
:10045000656C6179282A31306D73290A323A09694D
:100460006E74657276616C286D73290A333A096D72
:1004700061785F73706565640A343A0974696D6503
:100480005F746F5F6D61780A353A09776865656CEE
:100490005F6D61785F73706565640A363A097768E5
:1004A00065656C5F74696D655F746F5F6D61780A17
:1004B0000A703A097072696E742076616C756573A2
:1004C0000A643A097365742064656661756C7473B7
:1004D0000A75703A092B310A646F776E3A092D312B
:1004E0000A706775703A092B31300A7067646F774C
:1004F0006E3A092D31300A0A7370656564203D201B
:1005000064656C7461202A206D61785F7370656525
:1005100064202A2028726570656174202F20746918
:100520006D655F746F5F6D6178290A003F004D3E15
:100530002000433E20004C25640A0074696D6572FA
:100540005F72656164333228293A202530346C5853
:100550000A006B6579626F6172645F69646C653A09
:100560002025580A006B6579626F6172645F707252
:100570006F746F636F6C3A2025580A00686F73744C
:100580005F6B6579626F6172645F6C656473282963
:100590003A2025580A000A092D2053746174757396
:1005A000202D0A004743433A20342E392E32204171
:1005B00056522D4C4942433A20312E382E30737614
:1005C0006E204156525F415243483A20617672355F
:1005D0000A004F5054494F4E533A204C5546412043
:1005E0004D4F5553454B45592045585452414B4565
:1005F0005920434F4E534F4C4520434F4D4D414E94
:100600004420343039360A004255494C443A2022BD
:10061000302E362E3434312D31372D673030396459
:1006200034352D646972747922202830323A33329D
:100630003A31332041756720203720323031392953
:100640000A005649443A20307846454544284B65CF
:10065000794869766529205049443A203078363007
:100660003630286D617970616429205645523A20F0
:100670003078303030310A00444553433A204275D7
:10068000646765742D667269656E646C79206E7539
:100690006D7061640A000A092D2056657273696FD6
:1006A0006E202D0A000A092D20436F6E736F6C6552
:1006B000202D0A4553432F713A09717569740A6DEB
:1006C0003A096D6F7573656B65790A000A092D200B
:1006D0004D61676963202D0A443A09446562756774
:1006E000204D65737361676520546F67676C650A99
:1006F000583A094D617472697820446562756720C3
:100700004D6F646520546F67676C65202D205368BA
:100710006F77206B65797072657373657320696E8E
:10072000206D617472697820677269640A4B3A09B6
:100730004B6579626F61726420446562756720540D
:100740006F67676C65202D2053686F77206B657924
:100750007072657373207265706F72740A4D3A0916
:100760004465627567204D6F75736520546F6767C8
:100770006C650A563A0956657273696F6E0A533A88
:10078000095374617475730A433A09416374697655
:1007900061746520436F6E736F6C65204D6F646587
:1007A0000A46312D4631303A09537769746368201F
:1007B000746F204C6179657220302D3920284631C4
:1007C00030203D204C30290A302D393A09537769C1
:1007D00074636820746F204C6179657220302D3904
:1007E0000A47524156453A09537769746368207441
:1007F0006F204C6179657220302028616C746572BD
:100800006E617465290A423A094A756D7020746FE9
:1008100020426F6F746C6F616465720A4553433A8E
:10082000094A756D7020746F20426F6F746C6F6130
:100830006465722028616C7465726E617465290A42
:10084000453A095072696E7420454550524F4D200B
:1008500053657474696E67730A4253504143453A55
:1008600009436C65617220454550524F4D0A000A9C
:10087000002575002E6E6B726F3A20000A002575F8
:10088000002E737761705F6261636B736C61736874
:100890005F6261636B73706163653A20000A0025D3
:1008A00075002E737761705F67726176655F65733F
:1008B000633A20000A002575002E6E6F5F67756928
:1008C0003A20000A002575002E737761705F72610F
:1008D0006C745F726775693A20000A002575002EF6
:1008E000737761705F6C616C745F6C6775693A20D7
:1008F000000A002575002E636170736C6F636B5F77
:10090000746F5F636F6E74726F6C3A20000A00251B
:1009100075002E737761705F636F6E74726F6C5FBA
:10092000636170736C6F636B3A20000A002530328C
:1009300058006B65796D61705F636F6E6669672ED5
:100940007261773A20000A002575002E6D6F75736D
:10095000653A20000A002575002E6B6579626F618B
:1009600072643A20000A002575002E6D6174726968
:10097000783A20000A002575002E656E61626C656C
:100980003A20000A00253032580064656275675FBE
:10099000636F6E6669672E7261773A20000A0025E0
:1009A000750064656661756C745F6C617965723A37
:1009B00020003F000A6D6F7573653A206F66660A06
:1009C000000A6D6F7573653A206F6E0A000A6B65D9
:1009D00079626F6172643A206F66660A000A6B651D
:1009E00079626F6172643A206F6E0A000A6D6174F9
:1009F0007269783A206F66660A000A6D61747269DE
:100A0000783A206F6E0A000A64656275673A206F53
:100A100066660A000A64656275673A206F6E0A00AE
:100A20000A0A4A756D70696E6720746F20626F6F75
:100A3000746C6F616465722E2E2E2000433E200080
:100A4000436C656172696E6720454550524F4D0A8F
:100A5000006565636F6E6669673A0A005B735D00E7
:100A60004B6579626F6172642073746172742E0ACF
:100A7000005B575D005B535D005B525D005B445D56
:100A8000005B435D000403300000000E036D006155
:100A9000007900700061006400000010034B0065E5
:100AA0000079004800690076006500000004030931
:100AB0000409025B00030100A0FA0904000001031D
:100AC00001010009211101000122400007058103F5
:100AD00008000A09040100010300000009211101B6
:100AE00000012285000705820320000A0904020094
:100AF0000203000000092111010001222200070564
:100B000083032000010705030320000112011001E7
:100B100000000008EDFE60600100010203010631E3
:100B2000FF0974A1010975150026FF0095207508BD
:100B300081020976150026FF00952075089102C0F4
:100B400005010902A10185020901A1000509190198
:100B5000290515002501950575018102950175038B
:100B600081010501093009311581257F950275083C
:100B7000810609381581257F950175088106050CC8
:100B80000A38021581257F950175088106C0C005C8
:100B9000010980A10185031601002603001A8100C6
:100BA0002A8300751095018100C0050C0901A1017F
:100BB0008504160100269C021A01002A9C02751069
:100BC00095018100C005010906A101050719E02969
:100BD000E7150025019508750181029501750881C9
:100BE0000105081901290595057501910295017501
:100BF0000391010507190029FF150026FF0095063E
:100C000075088100C00011241FBECFEFDAE0DEBFFF
:100C1000CDBF04B603FE27C08091E3019091E401AB
:100C2000A091E501B091E6018730904BA740B04B11
:100C3000D1F41092E3011092E4011092E5011092B8
:100C4000E60114BE84B7877F84BF0FB6F894A895D9
:100C500080916000886180936000109260000FBEF8
:100C6000E0E0F8E3099511E0A0E0B1E0EAE1F7E5A2
:100C700002C005900D92A633B107D9F721E0A6E393
:100C8000B1E001C01D92A33EB207E1F70E949F258B
:100C90000C948B2B0C940000FF93EF93E0913601A2
:100CA000F0913701309709F00995EF91FF91089580
:100CB000FC018591803011F0EFDFFBCF0895FF2715
:100CC000E0E230E247FF0CC0419597FF09C0EDE23A
:100CD0006095709580959095611D711D811D911D88
:100CE00027FF02C0219530E350E2AA27660F771F45
:100CF000881F991FAA1FA41710F0A41B63955A956B
:100D0000A9F7AA3008F0A95FA05DAF93F39561152C
:100D100071058105910541F7ED3211F4EF93F395DB
:100D2000F21718F43F93F395FBCF8F91B5DFFA9547
:100D3000E1F70895E991F9918591803021F08532AC
:100D400019F0AADFF9CF089520E0E89455915532C3
:100D5000C1F3503311F4689455915A3348F4505309
:100D600090F3220F022E220F220F200D250FF4CF19
:100D70000EF4219589919991533619F3533729F13E
:100D8000533559F1BC0188279927E8945C3621F442
:100D90008991999168945591543639F446EF7EF0D3
:100DA00077FF0DC08FEF9FEF0AC055374AE039F04B
:100DB000583540E121F0523642E009F00895FF93A2
:100DC000EF937DDFEF91FF91B7CFFF93EF93FC019E
:100DD00081918030B9F360DFFBCFFF93EF9368DF41
:100DE000F1CFDF93CF93CDB7DEB72596A3DFCF91B9
:100DF000DF91089581E0089581E008950C94FC0648
:100E00001F93CF93DF9300D000D01F92CDB7DEB7F2
:100E100049835A832091550189819A81211112C0F9
:100E2000662349F00E944018182F682F89819A8103
:100E30000E94E71703C00E941518182F69817A8154
:100E4000812F04C00E94401869817A810F900F9011
:100E50000F900F900F90DF91CF911F910C94670826
:100E6000FC01408151816281738184810C9400076F
:100E70000E94750B8FE39CE90197F1F700C0000019
:100E80000E94750B80E00E94E00A80FF04C00E946F
:100E90008B190C94441B08950E9438070E949119E5
:100EA000811102C00E94171A0C94DB0A0C94DE0A0E
:100EB00008950C9458070C94590708950E940D1337
:100EC0000E945D072FEF84E39CE02150804090401A
:100ED000E1F700C000000C94441B0F931F93CF93C5
:100EE000DF938C010E943007EC01B8010E94FE06DE
:100EF0008823D9F0B801CE010E94A00C8823A9F064
:100F0000C531FCE5DF0708F088C0C2308CE5D807A2
:100F100070F4C115ECE5DE0709F05BC0F801C28191
:100F2000CC2309F4CAC00E945E07C0E0C6C0F80125
:100F30008281882309F450C00E949119811102C056
:100F40000E94171A0E94A41990E09093D5018093F3
:100F5000D401FE01E350FC45E231F10530F4EA5AD8
:100F6000FF4F8091D4010C942F2B8091D40181608C
:100F700027C0826025C0846023C0806121C0806258
:100F80001FC080641DC080681BC08460886018C05A
:100F90008E7F16C08D7F14C08B7F12C08F7E10C0D5
:100FA0008F7D0EC08F7B0CC08F770AC08B7F877FB1
:100FB00007C087FB222720F991E0922790FB87F951
:100FC0008093D4018091D4010E94A8190E940D132E
:100FD000ACCFC130DC4539F0C801DF91CF911F9112
:100FE0000F910C94FA06F801C281CC2309F465C074
:100FF0008091B201C82FC095C170C0FB80F9809369
:10100000B201CC2329F084E891E00E9458068DCFEC
:1010100082E791E00E94580650C0CC3D8CE5D8078D
:1010200039F4F801C281CC2309F447C080E00DC037
:10103000CD3DECE5DE0760F0CD3D8CE5D80791F5C0
:10104000F801C281CC23C9F182E00E9447266DCF0E
:10105000C631DC4509F60E94C018282FF8018281AC
:101060004091000150910101882379F02A7A91E0A2
:1010700009F490E090933801911102C069E201C037
:1010800065E3CA010E944B1A0AC0809138018111A0
:1010900002C069E201C065E3CA010E944D1A0E94C4
:1010A0000C1943CFCE3DDC4509F096CFF801C28143
:1010B000CC2319F00E94171A38CF8C2FDF91CF91D3
:1010C0001F910F91089580E090E008950895E72F13
:1010D000F0E095E0899FE00DF11D1124EE0FFF1F58
:1010E000EE0FFF1FE60FF11DEE0FFF1FE65BFE4F39
:1010F000859194910895880F991FFC01EB56FE4F3E
:10110000859194910895CF93DF930E9467080E9480
:101110003A0AEC01811520E59207F0F5811530E4DB
:10112000930708F024C1883E910500F5803E9105A3
:1011300008F09CC1883A910570F4853A910508F051
:101140009FC08130910509F491C108F442C1049710
:1011500008F08CC13EC18F3B910508F49CC0803CD7
:10116000910508F436C1805C9109F4C0811540E214
:10117000940758F4C11581E0D80708F077C1C03F43
:10118000D10508F426C1D06571C1811520E392070D
:1011900008F0E4C09F70DEC0811535E5930708F0C4
:1011A00044C0811544E5940708F0F8C0C11582E5F4
:1011B000D80708F5C11521E5D20708F0DBC08C2F50
:1011C000837021E030E002C0220F331F8A95E2F7DE
:1011D0003C68CE0174E0969587957A95E1F7837027
:1011E000382BCF70C695C69580E2C89FE0011124C8
:1011F000C22BD32B3BC12C2F26952695CE01837075
:101200009927C115D34508F0BAC040E2249F900148
:101210001124C1E0D0E002C0CC0FDD1F8A95E2F7B7
:101220002C2B3D2BE901DC6821C1811549E5940790
:10123000A0F4C11588E5D80708F0B5C0C11526E5AA
:10124000D20708F0C6C08C2F0E94B70A8F71C82F32
:10125000D0E0DC2FCC27D06209C181153AE5930795
:1012600008F4A6C090568115904208F0B2C08D2FA8
:101270008F710E94B70ADD27D0628F71D82BF6C01C
:10128000853A910509F4A8C0863A910509F0A7C0EE
:10129000C2E8D0E4EBC0883A910509F4A3C0893ACA
:1012A000910509F4A2C08A3A910509F4A1C08B3ACC
:1012B000910509F4A0C08C3A910509F49FC08B3BBD
:1012C000910509F49EC08C3B910509F49DC08D3AAF
:1012D000910509F49CC0803B910509F49BC08E3AAE
:1012E000910509F49AC08F3A910509F499C0813BA0
:1012F000910509F498C0823B910509F497C0833B9E
:10130000910509F496C0843B910509F495C0853B8D
:10131000910509F494C0863B910509F493C0873B7D
:10132000910509F492C0883B910509F491C0893B6D
:10133000910509F490C08D3B910509F48FC08E3B57
:10134000910509F48EC08A3B910509F48DC0C0E077
:10135000D4E48CC00E947B08EC0188C09927D3FF9D
:1013600003C0EC01D86C82C0EC01D06C7FC0DF7090
:10137000D06A7CC0DC2FCC27C16FD06A77C040E236
:10138000249F90011124C1E0D0E002C0CC0FDD1FEA
:101390008A95E2F7C22BD32BDA6868C0D82FCC2706
:1013A000C46FD06A63C0DC2FCC27C06FD06A5EC028
:1013B0008F700E94B70A94E0D695C7959A95E1F789
:1013C000CF70D0E0DC2FCC27D06A8F70806EC82B16
:1013D0004DC0C0E0D0E04AC0C1E8D0E447C0C3E897
:1013E000D0E444C0C2EED4E441C0C9EED4E43EC06F
:1013F000CAEED4E43BC0C5EBD4E438C0C6EBD4E4B9
:1014000035C0C3EBD4E432C0C4EBD4E42FC0C7EB87
:10141000D4E42CC0CCECD4E429C0CDECD4E426C078
:10142000C3E8D5E423C0CAE8D5E420C0C2E9D5E4C6
:101430001DC0C4E9D5E41AC0C1E2D6E417C0C3E2B6
:10144000D6E414C0C4E2D6E411C0C5E2D6E40EC0AE
:10145000C6E2D6E40BC0C7E2D6E408C0CFE6D4E4C7
:1014600005C0C0E7D4E402C0CAE2D6E4CE01DF91F1
:10147000CF9108958238910549F1B0F481339105F7
:1014800009F458C048F48932910509F44EC08A32F3
:10149000910509F454C008958533910509F440C0BD
:1014A0008933910599F00895833E910529F138F427
:1014B000803E910591F0823E9105A1F00895863E0F
:1014C0009105F9F0873E910531F108952091D401FD
:1014D00020FD3AC021FD38C008958091D40180FDDF
:1014E00035C032C08091D40182FF32C08091D401D6
:1014F00084FD30C083EE39C08091D40182FD28C0C4
:10150000F5CF8091D40183FF27C08091D40184FD61
:1015100021C087EE2AC08091D40183FD1DC0F5CF84
:101520008091D40185FD1AC01BC08091D40185FD36
:1015300017C014C08091D40186FD14C015C08091DD
:10154000D40186FD11C00EC080EE0FC089E30DC02E
:1015500082EE0BC080E009C086EE07C089E205C0BC
:1015600085E303C08AE201C081E390E00895909191
:10157000D40192FF0DC0282F2871283019F4877FDD
:10158000846006C0282F2471243011F48B7F88607A
:1015900093FF0DC0282F2871283119F4877E8461AC
:1015A00006C0282F2471243111F48B7E886194FDAC
:1015B000877E089508950C94DA0A08950C94DD0A44
:1015C000E82FF0E0E75CFE4F80810895CF92DF9234
:1015D000EF92FF920F931F93CF93DF9384EA91E0F2
:1015E0000E94580689E3E82E81E0F82EC0E0D0E0A2
:1015F0009FE9C92E91E0D92E07E911E0DF93CF933F
:10160000DF92CF920E94F1068CE991E00E94580689
:10161000F70181917F010E9475191F928F931F938B
:101620000F930E94F10685E991E00E9458062196E9
:101630008DB79EB708960FB6F8949EBF0FBE8DBFAC
:10164000C530D105D9F6DF91CF911F910F91FF9051
:10165000EF90DF90CF900895A7E1B1E041E050E036
:1016600025E02A0F8D91E82FE295EF70F0E031A18F
:101670008F70BA0102C0660F771F8A95E2F7CB011F
:10168000962F9095932391A392A1892B82A32A133D
:10169000E9CFA3E1B1E041E050E024E02A0F8D91D1
:1016A000E82FE295EF70F0E031A18F70BA0102C02F
:1016B000660F771F8A95E2F7CB01962F90959323BB
:1016C00091A392A1892B82A32A13E9CFA9E3B1E0C8
:1016D000EEE3F1E085E08E0F11921D928E13FCCFA8
:1016E00085E00E94FC0B0C944C076F927F928F92C6
:1016F0009F92AF92BF92CF92DF92EF92FF920F93A1
:101700001F93CF93DF9367E171E0AEE3B1E0712CFB
:1017100001E010E0D5E06D2E6A0E7D019C901C92D8
:10172000EB018991BE01E82FE295EF70F0E091A105
:101730008F70A80101C0440F8A95EAF7892F842B86
:1017400081A392A1842F8095982392A3D0EADA9561
:10175000F1F7C3E1CC2EC1E0DC2E20E030E0E60161
:1017600099916E01A92EA2945FE0A522B12CE5010A
:10177000A8A08C90B12C9F7002C0B594A7949A95A4
:10178000E2F7A0FC07C0902F022E01C0990F0A9427
:10179000EAF701C090E098299C932F5F3F4F2430D7
:1017A0003105E9F691A1892381A382A1482B42A3A7
:1017B000119681E0F7019081991201C080E0782AAA
:1017C0006A12ABCF272D45E069E371E08EE391E02B
:1017D0000E94FD0B0E945607872DDF91CF911F912C
:1017E0000F91FF90EF90DF90CF90BF90AF909F90C0
:1017F0008F907F906F9008950895FF920F931F939D
:10180000CF93DF938C01F62ED72FC42F222349F0DC
:1018100081E0809345010E94DC1A909344018093FB
:101820004301809145018823C1F08091430190914B
:1018300044010E94F41A069780F0EF2DFD2FD80185
:101840004C2F50E0CD01801B910B841795071CF4A1
:101850008D918193F7CF10924501DF91CF911F9128
:101860000F91FF9008950F931F93CF93DF93C62F8F
:10187000D42F022FFC0182818823C9F06093480194
:101880000E94DC1A909347018093460180E28C0FFE
:10189000883008F050C0C77081E001C0880FCA9539
:1018A000EAF7DF91CF911F910F910C944B1010919B
:1018B0004801161330C080914601909147010E9463
:1018C000F41A883C910538F5C0E2CD0F1D17B9F028
:1018D00080E2810F883040F4177081E001C0880FEA
:1018E0001A95EAF70E945210C83048F481E09D2F03
:1018F000977001C0880F9A95EAF70E944B10802FCD
:101900000E943810C830B8F4D77081E001C0880F49
:10191000DA95EAF70AC080E28C0F883060F4C7706D
:1019200081E001C0880FCA95EAF7DF91CF911F913E
:101930000F910C945210DF91CF911F910F91089548
:101940009C01CB01203F4CE53407F9F078F4283DA9
:10195000FCE53F07B9F0293D4CE5340711F1273D7F
:101960003C4531F526E241EE61EE1EC0223FFCE52A
:101970003F0799F070F0233F3C45D1F427E245EE54
:1019800066EE12C027E245EE0EC026E241EE60EEA2
:101990000BC027E245EE64EE07C026E241EE62EEA0
:1019A00003C028E241E065EE0E94330C80E0089518
:1019B000FC018281882319F010924801089581E08A
:1019C000089590934E0180934D010895E0914D014B
:1019D000F0914E01309721F00190F081E02D0994B3
:1019E00080E00895EF92FF920F931F93CF93DF93C0
:1019F000E0914D01F0914E013097B1F18C010280E0
:101A0000F381E02D09958091B20182FF2DC080FF06
:101A100004C08BEB91E00E945806E80118E085EBCA
:101A2000E82E81E0F82E8091B20180FF0BC0888102
:101A30001F928F93FF92EF920E94F1060F900F90EA
:101A40000F900F90115021961111EDCF8091B2019E
:101A500080FF0AC083EB91E0DF91CF911F910F913E
:101A6000FF90EF900C945806DF91CF911F910F914A
:101A7000FF90EF900895E0914D01F0914E01309765
:101A800039F022E0DC012C930480F581E02D0994EB
:101A9000089520914B0130914C018217930771F00A
:101AA00090934C0180934B01E0914D01F0914E01D8
:101AB000309721F00680F781E02D09940895209158
:101AC000490130914A018217930771F090934A01BE
:101AD00080934901E0914D01F0914E01309721F042
:101AE0000084F185E02D0994089585B7806885BF4D
:101AF00085B7806885BF0895089508950C947D0D7D
:101B000008950C94800D0E94750D0E947C0D0C941C
:101B10007E0D81E008950E94D31A0E942C0B0E9432
:101B2000681B0C94810DCF93C82F8091B20182FF66
:101B30001EC080FF04C084ED91E00E945806809191
:101B4000B20180FF0CC01F92CF938FEC91E09F9366
:101B50008F930E94F1060F900F900F900F9080913D
:101B6000B20180FF04C08DEC91E00E9458068C2FDA
:101B7000CF910C945B07CF92DF92EF92FF920F937D
:101B80001F93CF93DF93CDB7DEB72B970FB6F894A3
:101B9000DEBF0FBECDBF0E94750B0E94890D811163
:101BA00011C08FEF89838A831B820E94DC1A8160B7
:101BB000782F9D838C8349815A816B818D810E940E
:101BC000630E56C080E5C82E81E0D82E00E010E0FC
:101BD000E02E802F0E94E00AF60141916F01F42E61
:101BE000F82631F40F5F1F4F0530110589F7D9CF63
:101BF0009091B20191FF04C08B870E94E60A8B8509
:101C000020E030E04F2D50E0922FBA01022E02C0AA
:101C1000759567950A94E2F760FF24C02E83EF82E2
:101C200021E030E0690102C0CC0CDD1C9A95E2F79E
:101C300090E08C219D21892B09F420E028870E94C7
:101C4000DC1A8160782F9A8789874E815F81688549
:101C50008A850E94630EF801E05BFE4F8081C826F2
:101C6000C08206C02F5F3F4F2430310569F6BACFDE
:101C70000E947D1D10914F010E94E60C1817A1F0E3
:101C80000E94E60C80934F012B960FB6F894DEBFAE
:101C90000FBECDBFDF91CF911F910F91FF90EF90BD
:101CA000DF90CF900C94930D2B960FB6F894DEBF77
:101CB0000FBECDBFDF91CF911F910F91FF90EF909D
:101CC000DF90CF900895CF93DF93CDB7DEB72B97FA
:101CD0000FB6F894DEBF0FBECDBF4F83588769871C
:101CE0007A878B87DE01119686E0FD0111928A9535
:101CF000E9F785E0FE01379601900D928A95E1F7AC
:101D000049815A816B817C818D819E810E94B715AA
:101D10002B960FB6F894DEBF0FBECDBFDF91CF91EB
:101D20000895FC01808191810E9481180895CF93CC
:101D3000DF931F92CDB7DEB7882309F42DC1682F3A
:101D40008238C1F40E94E60C81FD26C169E38091CE
:101D50000001909101010E944B1A0E940C192FEF73
:101D600081EE94E0215080409040E1F700C00000F7
:101D700069E319C0833811F50E94E60C80FD0CC19F
:101D800063E580910001909101010E944B1A0E942D
:101D90000C192FEF81EE94E0215080409040E1F744
:101DA00000C0000063E580910001909101010E9454
:101DB0004D1A0F90DF91CF910C940C198438C1F417
:101DC0000E94E60C82FDE8C067E4809100019091DA
:101DD00001010E944B1A0E940C192FEF81EE94E032
:101DE000215080409040E1F700C0000067E4DBCF65
:101DF0008CEF860F813A70F4862F69830E94EA2166
:101E000069818111C9C080910001909101010E94F6
:101E10004B1ACFCF80E2860F883048F4677081E09C
:101E200001C0880F6A95EAF70E94C318C2CF8BE5FC
:101E3000860F833088F4653A29F0663A31F083E8FA
:101E400090E005C081E890E002C082E890E00F9049
:101E5000DF91CF910C94490D88E5860F873108F00A
:101E600091C0683A09F445C0693A09F445C06A3A34
:101E700009F445C06B3A09F445C06C3A09F445C011
:101E80006B3B09F445C06C3B09F445C06D3A09F45D
:101E900045C0603B09F445C06E3A09F445C06F3A4D
:101EA00009F445C0613B09F445C0623B09F445C0F3
:101EB000633B09F445C0643B09F445C0653B09F444
:101EC00045C0663B09F445C0673B09F445C0683B23
:101ED00009F445C0693B09F445C06D3B09F445C0B0
:101EE0006E3B09F445C06A3B09F445C080E090E0D0
:101EF00044C082EE90E041C089EE90E03EC08AEEA0
:101F000090E03BC085EB90E038C086EB90E035C0B8
:101F100083EB90E032C084EB90E02FC087EB90E041
:101F20002CC08CEC90E029C08DEC90E026C083E8BA
:101F300091E023C08AE891E020C082E991E01DC0D1
:101F400084E991E01AC081E292E017C083E292E056
:101F500014C084E292E011C085E292E00EC086E2F5
:101F600092E00BC087E292E008C08FE690E005C0E7
:101F700080E790E002C08AE292E00F90DF91CF917B
:101F80000C945F0D603F40F0862F0E94031C0F9061
:101F9000DF91CF910C94F01C0F90DF91CF910895B9
:101FA000882309F464C0823879F40E94E60C81FF2A
:101FB0005EC069E380910001909101010E944B1A7B
:101FC0000E940C1969E310C08338B1F40E94E60C3A
:101FD00080FF4DC063E580910001909101010E9456
:101FE0004B1A0E940C1963E5809100019091010148
:101FF0000E944D1A0C940C19843879F40E94E60C56
:1020000082FF35C067E480910001909101010E9438
:102010004B1A0E940C1967E4E7CF9CEF980F913A96
:1020200010F4682FE1CF90E2980F983050F4877049
:1020300091E001C0990F8A95EAF7892F0E94C9188B
:10204000D9CF9BE5980F933020F480E090E00C947A
:10205000490D98E5980F973120F480E090E00C94BA
:102060005F0D803F20F00E946B1C0C94F01C0895C3
:10207000CF93C82F0E94970EC93349F42FEF87EEF4
:1020800093E0215080409040E1F700C000008C2F89
:10209000CF910C94D00F882321F00E94C3180C9488
:1020A0000C190895882321F00E94C9180C940C196A
:1020B00008954F925F926F927F92BF92CF92DF927C
:1020C000EF92FF920F931F93CF93DF937C01062F24
:1020D000C72FFC01158112951F70D281D1110E946A
:1020E000E0180E94B918882379F0DD2369F080E2B6
:1020F000800F883048F082E00E9457190E94B9187A
:1021000091E0B82EB92601C0B12CCC2EC2948FE03C
:10211000C822D12CF601E859FF4F0C942F2B8C2F9D
:10212000807FCF70882311F0C295C07FDD2399F0A6
:10213000CC2309F4CEC180E2800F883010F0011169
:1021400004C08C2F0E94C31803C08C2F0E94D31888
:102150000E940C19BEC1802F0E94D00FCC2309F41D
:10216000DDC180E2800F883010F0011104C08C2F97
:102170000E94C91803C08C2F0E94D9180E940C1904
:10218000CDC18C2F807FCF70803211F0C295C07F7F
:10219000002319F00130C9F022C0DD2371F01123B2
:1021A00041F0113031F40E94F3188C2B0E94F91881
:1021B000B5C10E94F3188C2B45C1112319F01130C1
:1021C00009F4ACC10E94021923C0DD2321F01630AE
:1021D00008F0A4C10EC0153008F0A0C119C0DD235D
:1021E00051F0112331F0F701858180FF72C18F70AA
:1021F00085838C2F27C1112359F0093309F07AC147
:10220000FFEF27EE83E0F15020408040E1F770C1FE
:102210008C2F1EC18C2F86958695837090E0009739
:1022200019F0019761F07AC1DD2321F0802F9C2FF6
:10223000937002C080E090E00E94490D7FC1DD23D1
:1022400021F0802F9C2F937002C080E090E00E94CC
:102250005F0D74C1DD23F9F0053F51F0063F71F0C9
:10226000043FA9F48091CE019091CF0181600BC011
:102270008091CE019091CF01826005C08091CE0106
:102280009091CF0184609093CF018093CE01802FF5
:102290000E94031C1EC0053F51F0063F71F0043F31
:1022A000A9F48091CE019091CF018E7F0BC08091D7
:1022B000CE019091CF018D7F05C08091CE0190918C
:1022C000CF018B7F9093CF018093CE01802F0E940E
:1022D0006B1C0E94F01C32C18C2F837009F04BC024
:1022E000D11128C1202F229526952770220F220F69
:1022F000602F6F70862F90E0A0E0B0E02C013D01D0
:10230000022E04C0440C551C661C771C0A94D2F79C
:1023100004FF10C08FE090E0A0E0B0E004C0880FA0
:10232000991FAA1FBB1F2A95D2F780959095A0955B
:10233000B09503C080E090E0DC01C695C695C370FF
:10234000D0E0BC01CD016429752986299729C230C6
:10235000D10559F0C330D10559F0219719F00E94E9
:10236000FC16E8C00E94EA16E5C00E940E17E2C003
:102370000E94E816DFC0DD2319F08C2F817001C0A8
:102380008695882309F4D6C0202F2295269527709C
:10239000220F220F602F6F70862F90E0A0E0B0E038
:1023A0002C013D01022E04C0440C551C661C771CF8
:1023B0000A94D2F704FF10C08FE090E0A0E0B0E0F4
:1023C00004C0880F991FAA1FBB1F2A95D2F78095BA
:1023D0009095A095B09503C080E090E0DC01C69593
:1023E000C695C370D0E0BC01CD016429752986294A
:1023F0009729C230D10559F0C330D10559F0219742
:1024000019F00E94C21796C00E94B01793C00E9494
:10241000D41790C00E9423178DC0802F90E0FC013C
:10242000E05EF109E531F10508F04FC0E858FF4FD3
:102430000C942F2B0F708C2F8F71DD2331F00E94A5
:102440004917802F0E944B1069C00E946A17802F85
:102450000E94521063C0DD2341F0153008F05EC0C9
:102460008C2F8F710E948F1759C0163008F056C0FC
:10247000F7CFDD2339F08C2F8F710E9449174EC0A2
:10248000DD23C9F38C2F8F710E946A1747C0DD23AB
:1024900029F08C2F8F710E94341740C00E942F1793
:1024A0003DC0DD2349F0CF718C2F0E94491763E0B6
:1024B0008C2F0E94421932C081E00E9457191230BD
:1024C00068F182E00E94571929C0DD2331F0112301
:1024D00091F2802F0E94970E21C0112399F20933A7
:1024E00049F49FEFE7EEF3E09150E040F040E1F770
:1024F00000C00000802F0E94D00F10C04C2F4F70E2
:10250000602FC7010E9463080E945B1617C04C2F02
:102510004F70602FC7010E94660810C028E0C216E5
:10252000D10441F05CF09AE0C91AD108E2E0CE167D
:10253000D10420F40E94E60C0E945B07BB20F1F05E
:102540000E94B51880FD1AC0F70112820E94AF18D0
:102550000E944917C7010E94CC120E94AF18DF9158
:10256000CF911F910F91FF90EF90DF90CF90BF9090
:102570007F906F905F904F900C946A17DF91CF918E
:102580001F910F91FF90EF90DF90CF90BF907F90C1
:102590006F905F904F9008950F931F93CF93DF93A9
:1025A000EC01888199812B813C81232BB9F09F3FDD
:1025B00011F48F3F99F0CE010E946D07882371F0CE
:1025C000688179818A810E948C188C010E94E617AB
:1025D0000E94E716B801CE010E945910DF91CF91F9
:1025E0001F910F9108950E94E0180E94F0180E9418
:1025F0000C190E94181E0E94F01C80E090E00E94BE
:10260000490D80E090E00C945F0D80910001909165
:1026100001010E944F1A0C94F3120E94D0180C94DE
:102620000513E92FE295EF70F0E03297EE30F105F7
:10263000B0F4E357FF4F0C942F2B803F91F018F428
:10264000803E68F40EC0843F51F40BC0803E48F0D9
:10265000813F29F406C093FB882780F9089580E024
:10266000089581E008950E9481180E941113089531
:10267000CF93DF9300D000D01F92CDB7DEB70F907D
:102680000F900F900F900F90DF91CF910895CF93FF
:10269000DF9300D000D000D0CDB7DEB726960FB6BE
:1026A000F894DEBF0FBECDBFDF91CF9108951F9389
:1026B000CF93DF93C091560116E080915701C81760
:1026C00099F0D0E01C9FF0011D9FF00D1124E85AF5
:1026D000FE4F4081518162817381848195810E9486
:1026E00047132196C770E9CFDF91CF911F910895CD
:1026F000409188015091890160918A0170918B010C
:1027000080918C0190918D010C94471380918D01E3
:1027100082958F7009F054C080918A01882309F452
:102720004FC080915601A09157016091880170912E
:10273000890140918B0150918C01B6E08A1709F410
:102740003FC090E041155105C1F17F3F11F46F3F4B
:10275000A1F1B89FF001B99FF00D1124E85AFE4F86
:10276000218172132AC02081621327C02281211186
:1027700024C0238134812417350710F421503109F6
:10278000241B350B283C3105C0F420918D012F709E
:10279000206120938D0126E0289FF001299FF00DF4
:1027A0001124E35AFE4F80818F708061808388E816
:1027B00091E00E94CC120C94571301968770BECF03
:1027C0000895CF92DF92EF92FF920F931F93CF93D2
:1027D000DF93CDB7DEB762970FB6F894DEBF0FBEBA
:1027E000CDBF8C0185E0F801DE011D9601900D92B0
:1027F0008A95E1F7D8014C9111965C911197129648
:102800006C9112971396CD90DC90149730918801BB
:102810007091890180918B0190918C01009709F44E
:102820006BC17F3F19F43F3F09F466C1E0908A0114
:10283000EE2009F4C0C020918D01C816D90628F0F9
:10284000F601E81BF90BCF0104C0809590958C0D23
:102850009D1DFF24F394883C910578F0F12C207F96
:1028600009F0C6C07C2DD98AC88A89890E9438138C
:1028700088E891E00E94CC12B1C0822F807F09F0DD
:1028800046C0751314C0341312C0611110C02F70EC
:10289000206120938D010E94781388E891E00E94C6
:1028A000CC1280918D01D80115968C932EC0CD2825
:1028B00019F15F3F11F44F3FF9F0F62E61111CC082
:1028C000809156012091570136E0821709F45AC0D1
:1028D00090E0389FF001399FF00D1124E85AFE4F27
:1028E0007181571306C07081471303C07281711143
:1028F00003C001968770E9CFF62E662309F427C13D
:1029000080918D01816080938D01F12C20C1751320
:1029100008C0341306C0611104C080918D01D80134
:10292000C3C04D875E878D859E856A8B0E94331359
:102930006A898823E1F16623D1F120918D01822FEC
:1029400082958F7090E0029774F080918801909149
:10295000890198878F831986DB86CA862C87CE01EA
:1029600007960E94CC1286E0F801A8E8B1E0019039
:102970000D928A95E1F70E9486130E947813FF2436
:10298000F394E5C04D875E878D859E850E948118F2
:10299000292F22952F7030E0223031050CF0CBC06A
:1029A0009F7009F0C5C0805E883008F4D0C0C801AF
:1029B0000E94CC12E4CFC816D90608F453C0F60121
:1029C000E81BF90BCF01883C910508F450C0F12CAD
:1029D0007C2DD98AC88A89890E943813E8E8F1E0F9
:1029E00086E0DF011D928A95E9F70E947813AFC057
:1029F000751314C0341312C0611110C080918D0181
:102A0000F8018583C8010E94CC1286E0E8E8F1E075
:102A1000DF011D928A95E9F7FE2C99C04D875E87EC
:102A20008D859E856A8B0E9433136A89882309F4F9
:102A3000BECF662309F4BBCF20918D01822F8295F2
:102A40008F7090E002970CF48ECF80918801909166
:102A500089019A8389831B82DD82CC822E83CE01F9
:102A600001967FCF809590958C0D9D1DACCFF62E55
:102A7000662309F49CCF75132EC034132CC020910B
:102A80008D0120FD1FC0822F82958F70D9F0D80153
:102A900015962C9315978F3049F08F5F982F92954C
:102AA000907F822F8F70892B15968C93C8010E947E
:102AB000CC1286E0F801A8E8B1E001900D928A9569
:102AC000E1F793CF86E0F801A8E8B1E001900D921C
:102AD0008A95E1F73CC04D875E878D859E850E9473
:102AE0003313811140CF80918D01816080938D01DE
:102AF000C8010E94CC122BC0662309F458CF4D8721
:102B00005E878D859E850E943313F82E882309F4F5
:102B10004ECF86E0F801A8E8B1E001900D928A95C9
:102B2000E1F788E891E00E94910E0E9486135DCF44
:102B3000811139CF0CC0243031050CF038CF9F7093
:102B400009F431CFF8019581907F09F02CCF8F2DBA
:102B500062960FB6F894DEBF0FBECDBFDF91CF9166
:102B60001F910F91FF90EF90DF90CF9008951F93EA
:102B7000CF93DF93CDB7DEB72C970FB6F894DEBFB7
:102B80000FBECDBF4F83588769877A878B879C8715
:102B9000CE0107960E94E113882369F08F81988502
:102BA0002A853B85232BF1F19F3F09F063C08F3FBE
:102BB00009F060C037C086E0FE013796DE0111964D
:102BC00001900D928A95E1F76F817885EA85FB8502
:102BD000309741F17F3F11F46F3F21F12091570170
:102BE00030E0C9010196877099274091560150E065
:102BF0008417950709F447C069837A83FD83EC83C2
:102C000096E0929FD001939FB00D1124A85ABE4F19
:102C1000FE01319601900D929A95E1F7809357014C
:102C20000E94571316E08091560190915701891721
:102C3000C1F1189FC0011124885A9E4F0E94E113D0
:102C4000882379F1E09156011E9FF0011124E85A82
:102C5000FE4F4081518162817381848195810E9400
:102C600047138091560190E00196877099278093D1
:102C70005601D9CF4F81588569857A858B859C858A
:102C80000E944713CFCF0E940D131092570110924C
:102C90005601E8E8F1E086E0DF011D928A95E9F748
:102CA000C1CF2C960FB6F894DEBF0FBECDBFDF911B
:102CB000CF911F910895EF92FF920F931F93CF939F
:102CC000DF938C01892B09F46CC0F12CEE24E39482
:102CD000E8012196F8018491843740F4843008F0AB
:102CE00051C0813081F0823019F15BC0853709F421
:102CF00044C0A8F19CE7980F903708F052C08F7736
:102D00000E94D00F41C00E5F1F4FFE01C49180E2B0
:102D10008C0F883048F4C7708E2D01C0880FCA957B
:102D2000EAF70E94E31814C08C2F0E94970E2DC062
:102D30000E5F1F4FFE01C49180E28C0F883058F463
:102D4000C7708E2D01C0880FCA95EAF70E94E91856
:102D50000E940C191AC08C2F0E94D00F16C00E5F53
:102D60001F4FFE01C491CC2381F08FE99FE00197B2
:102D7000F1F700C00000C150F6CF0E5F1F4FFE01FB
:102D8000F49003C00E94970E8E018F2D882309F4C2
:102D90009FCFEFE9FFE03197F1F700C000008150CD
:102DA000F5CFDF91CF911F910F91FF90EF90089594
:102DB00008950C94D8160E94D9166093A1017093BF
:102DC000A2018093A3019093A4010C94F31208959F
:102DD0000C94DB160F931F930091A1011091A20197
:102DE0002091A3013091A401602B712B822B932B96
:102DF0001F910F910C94DB160F931F930091A1016B
:102E00001091A2012091A3013091A40160237123AC
:102E1000822393231F910F910C94DB160F931F9322
:102E20000091A1011091A2012091A3013091A40170
:102E300060277127822793271F910F910C94DB162F
:102E400008950C9420170E94211760939D017093A0
:102E50009E0180939F019093A0010C94F31260E077
:102E600070E0CB010C9423170F931F9341E050E0C7
:102E700060E070E08A019B0104C0000F111F221F57
:102E8000331F8A95D2F7C901B8011F910F910C9495
:102E900023170F931F9341E050E060E070E004C0FF
:102EA000440F551F661F771F8A95D2F780919D01A9
:102EB00090919E01A0919F01B091A0018A019B0178
:102EC000082B192B2A2B3B2BC901B8011F910F91FD
:102ED0000C9423170F931F9341E050E060E070E0E3
:102EE00004C0440F551F661F771F8A95D2F740957F
:102EF00050956095709580919D0190919E01A09153
:102F00009F01B091A0018A019B01082319232A2364
:102F10003B23C901B8011F910F910C9423170F9304
:102F20001F9341E050E060E070E004C0440F551F83
:102F3000661F771F8A95D2F780919D0190919E011F
:102F4000A0919F01B091A0018A019B010827192738
:102F50002A273B27C901B8011F910F910C94231711
:102F60000F931F9300919D0110919E0120919F014D
:102F70003091A001602B712B822B932B1F910F910D
:102F80000C9423170F931F9300919D0110919E01A4
:102F900020919F013091A00160237123822393230C
:102FA0001F910F910C9423170F931F9300919D0174
:102FB00010919E0120919F013091A00160277127FF
:102FC000822793271F910F910C9423170895990F2F
:102FD000990F890FA82FA695A695A695877051E001
:102FE00001C0550F8A95EAF785E0A89FD00111240A
:102FF00020E030E070E0F901EA0FFB1FE257FE4FDE
:103000004081CB01022E02C0969587950A94E2F783
:1030100081709927819584278523842780832F5F5A
:103020003F4F2530310539F70895990F990F890FD2
:10303000682F669566956695982F977085E0689FCE
:10304000B001112440E050E080E0FA01E60FF71FE4
:10305000E257FE4F208130E0092E02C036952795B9
:103060000A94E2F721703327042E01C0220F0A943C
:10307000EAF7822B4F5F5F4F4530510531F70895D6
:10308000BF92CF92DF92EF92FF920F931F93CF9355
:10309000DF938C01C090A101D090A201E090A30128
:1030A000F090A40180919D0190919E01A0919F01BB
:1030B000B091A001C82AD92AEA2AFB2ACFE1D0E0A0
:1030C000D701C6010C2E04C0B695A7959795879594
:1030D0000A94D2F780FF07C0BC2EB8018C2F0E9443
:1030E0008308019719F4219758F7B12C8B2DDF91A4
:1030F000CF911F910F91FF90EF90DF90CF90BF90F5
:103100000895CF93DF93EC010E944018BE010E9406
:103110008308DF91CF9108951F93CF93DF93EB0145
:1031200090915501992321F0CB010E94811813C081
:10313000882349F0CB010E944018182F682FCE0138
:103140000E94E71704C0CB010E941518182FBE017A
:10315000812F0E948308DF91CF911F910895809164
:10316000A50185958595859508958091A501877020
:1031700008959091A501977081E009F480E0089589
:103180008091B10108959091B101892B8093B10193
:10319000089580959091B10189238093B10108959C
:1031A0001092B10108959091B001892B8093B001E4
:1031B000089580959091B00189238093B00108957E
:1031C0001092B00108959091AF01892B8093AF01C7
:1031D000089580959091AF0189238093AF01089560
:1031E0001092AF0108958091A601089508950C945E
:1031F000F6189091A601981721F08093A6010C94DF
:10320000F71808958091A601882329F01092A6014D
:1032100080E00C94F7180895E0910001F09101010D
:103220008091B1018083E0910001F09101019081D2
:103230008091B001892B8083E0910001F091010120
:1032400090818091AF01892B80838091A601882392
:1032500081F0E0910001F09101019081892B808340
:1032600080910001909101010E94191A81110E9420
:10327000021980910001909101010C94F20C0895C3
:103280000C943F1998E0899F90011124262B2093DC
:10329000A5010E9449178091A50185958595859581
:1032A0000C9440191092A50180E00C9440192091D3
:1032B000A501809582238093A501982F977079F4BA
:1032C00030E0482F082E000C550B2417350739F035
:1032D0008595859585950E946A170C9452190895D5
:1032E000909337018093360108958295982F9C7CA6
:1032F000392F36953695282F237344E0249FC0013B
:103300001124932F982B292F2A7A2695892F85759A
:10331000880F822B08956FEF7FEF80E090E00C9490
:10332000752B80E090E00E94512B21E08D3E9E4F56
:1033300009F020E0822F089582E090E00C94492B60
:1033400083E090E00C94492B84E090E00C94492BAE
:10335000682F84E090E00C94572BAB01BC018FE008
:1033600090E00C94692BAB01BC0183E190E00C94DC
:10337000692B60E070E0CB010C94B31960E070E061
:10338000CB010E94AD190C94B9196DEE7EEF80E06F
:1033900090E00E94752B60E082E090E00E94572B45
:1033A00060E083E090E00E94572B1092A101109200
:1033B000A2011092A3011092A40160E084E090E0C9
:1033C0000E94572B60E085E090E00E94572B60E060
:1033D00086E090E00E94572B6FEF87E090E00E941C
:1033E000572B40E050E0BA0188E090E00E94692B42
:1033F00060E08DE090E00E94572B40E050E0BA0181
:1034000088E190E00E94692B60E087E190E00E94F3
:10341000572B40E050E0BA018CE190E00E94692B0C
:1034200060E080E290E00E94572B0C94BE190C944F
:10343000C519FC01329697E080E0915029F0219166
:103440002223D9F38F5FF9CF08959C01FC013296B6
:103450009FEF80E04191461789F09F3F19F4411199
:1034600001C0982F8F5F8630A9F79F3F39F0F9018F
:10347000E90FF11D97FDFA95628308950895FC0107
:10348000329608962081261301C010823196E817E3
:10349000F907C1F708950C94251A0C943F1A029667
:1034A00026E0FC0111922A95E9F7089508950C94FD
:1034B000561A0E94571A8091DA01843049F110920D
:1034C000B30120E488E190E00FB6F894A8958093CA
:1034D00060000FBE2093600080E00E945B070E94A6
:1034E000571A83B7817F846083BF83B7816083BFAE
:1034F0007894889583B78E7F83BF0FB6F894A8958C
:1035000080916000886180936000109260000FBE1F
:10351000089508950895CF930E94891A0E94750B0B
:103520000E948A1AC0E08C2F0E94E00A811104C018
:10353000CF5FC530C1F701C081E0CF9108950895F4
:103540000C949F1A0E940D130E94E60C0E945B07C8
:103550000C94A01A1F920F920FB60F9211248F9302
:103560009F93AF93BF938091B301811113C080915A
:10357000D0019091D101A091D201B091D301419697
:10358000A11DB11D8093D0019093D101A093D201D0
:10359000B093D301BF91AF919F918F910F900FBEC8
:1035A0000F901F90189582E084BD93E095BD9AEF2F
:1035B00097BD80936E0008952FB7F8948091D00145
:1035C0009091D101A091D201B091D3012FBF089564
:1035D0002FB7F8946091D0017091D1018091D20100
:1035E0009091D3012FBF0895CF92DF92EF92FF9277
:1035F0000F931F932FB7F8944091D0015091D101B0
:103600006091D2017091D3012FBF6A017B01EE243A
:10361000FF248C0120E030E0C016D106E206F3065C
:1036200010F4415051099A01281B390BC9011F910F
:103630000F91FF90EF90DF90CF90089578941F92B4
:103640000F920FB60F9211248F939F93AF93BF9356
:103650008091D0019091D101A091D201B091D3017C
:103660000196A11DB11D8093D0019093D101A0932B
:10367000D201B093D301BF91AF919F918F910F90E1
:103680000FBE0F901F90189581E08093E00080E2BC
:103690008093D8001092C9008FE19EE40197F1F762
:1036A00000C0000087E090EBDC018093E301909381
:1036B000E401A093E501B093E6019CE088E10FB638
:1036C000F894A895809360000FBE90936000FFCFA0
:1036D0000E949119811102C00E94171A0E949C1920
:1036E0008093B2010E94A41990E09093D501809339
:1036F000D4010E94A019682F70E080E090E00C9443
:10370000E8168091B70180FF0BC06091050185E04C
:10371000689FB001112475956795759567952BC0C5
:1037200081FF09C06091050185E0689FB001112407
:103730007595679520C082FF07C06091050185E0FF
:10374000689FB001112417C09091B6019923D1F060
:1037500060910401961788F72091050185E0289F64
:1037600090011124929FA001939F500D112470E0AD
:10377000CA010E941B2B6038710540F46115710568
:1037800039F002C065E070E0862F08958FE7089554
:1037900081E008958091B70180FF08C06091030126
:1037A00070E0759567957595679521C081FF06C096
:1037B0006091030170E07595679519C082FF04C0A0
:1037C0006091030170E010C09091B6019923C1F09F
:1037D000609102019617A0F780910301899FC001B3
:1037E000112470E00E941B2B6038710528F46115CC
:1037F000710521F0862F08958FE7089581E00895DF
:1038000061E070E0F4CF803F21F40E94811B81953C
:1038100004C0813F29F40E94811B8093BB0108955D
:10382000823F21F40E94811B819504C0833F29F4CB
:103830000E94811B8093BA010895893F19F40E9468
:10384000CA1B05C08A3F31F40E94CA1B8195809330
:10385000BC0108958B3F21F40E94CA1B819504C0CE
:103860008C3F29F40E94CA1B8093BD010895843FB8
:1038700021F48091B901816017C0853F21F48091C6
:10388000B901826011C0863F21F48091B901846042
:103890000BC0873F21F48091B901886005C0883F43
:1038A00031F48091B90180618093B90108958D3F11
:1038B00021F48091B70181600BC08E3F21F480918B
:1038C000B701826005C08F3F29F48091B701846001
:1038D0008093B7010895803F39F48091BB0187FF41
:1038E0006CC01092BB0169C0813F29F48091BB017B
:1038F0001816BCF362C09091BA01823F29F497FF79
:103900005CC01092BA0159C0833F19F41916CCF368
:1039100054C0893F41F48091BC0118160CF04DC091
:103920001092BC014AC08A3F29F48091BC0187FFF4
:1039300044C0F6CF8B3F39F48091BD0187FF3DC075
:103940001092BD013AC08C3F29F48091BD01181638
:10395000BCF333C0843F21F48091B9018E7F17C03E
:10396000853F21F48091B9018D7F11C0863F21F4FC
:103970008091B9018B7F0BC0873F21F48091B90101
:10398000877F05C0883F31F48091B9018F7E809395
:10399000B90113C08D3F21F48091B7018E7F0BC018
:1039A0008E3F21F48091B7018D7F05C08F3F29F4B0
:1039B0008091B7018B7F8093B7018091BA0181110B
:1039C0000EC08091BB0181110AC08091BC018111A0
:1039D00006C08091BD01811102C01092B601089508
:1039E0008091B20183FF7EC08EE092E00E94580673
:1039F0008091B9011F928F9389E092E09F938F93FA
:103A00000E94F10687E092E00E9458068091BA0178
:103A1000282F082E000C330B3F938F9384E092E005
:103A20009F938F930E94F10682E092E00E945806D5
:103A30008091BB01282F082E000C330B3F938F93EE
:103A40008FEF91E09F938F930E94F1068DEF91E0AD
:103A50000E9458068091BC01282F082E000C330BC1
:103A60003F938F938AEF91E09F938F930E94F1068B
:103A700088EF91E00E9458068091BD01282F082E02
:103A8000000C330B3F938F9385EF91E09F938F93BF
:103A90000E94F10682EF91E00E9458068091B601E3
:103AA0001F928F938FEE91E09F938F930E94F10668
:103AB0008DEE91E00E9458068091B7011F928F937E
:103AC0008AEE91E09F938F930E94F10687EE91E03A
:103AD0000E9458068DB79EB74C960FB6F8949EBFBD
:103AE0000FBE8DBF88EB91E00E943B0D0E94DC1A57
:103AF0009093B5018093B40108951F93CF93DF9302
:103B00008091B4019091B5010E94F41AAC0190919A
:103B1000B601992321F02091060130E006C02091E2
:103B200007018AE0289F900111244217530708F4E7
:103B30007BC08091BA01C091BB01D091BC011091B2
:103B4000BD01811107C0C1116BC0D11169C0111134
:103B500067C06AC09F3F19F09F5F9093B601181627
:103B600024F40E94811B8093BA018091BA0187FFDF
:103B700005C00E94811B81958093BA011C1624F414
:103B80000E94811B8093BB018091BB0187FF05C010
:103B90000E94811B81958093BB013091BA01332330
:103BA000E1F02091BB012223C1F045EB3403C001B9
:103BB0001124892F990F990B009709F481E08093C4
:103BC000BA0135EB2303C0011124892F990F990BFA
:103BD000009709F481E08093BB011D1624F40E9434
:103BE000CA1B8093BC018091BC0187FF05C00E9465
:103BF000CA1B81958093BC01111624F40E94CA1B34
:103C00008093BD018091BD0187FF05C00E94CA1B42
:103C100081958093BD01DF91CF911F910C94F01C91
:103C20009F3F09F099CFA1CFDF91CF911F910895C8
:103C3000E8EBF1E086E0DF011D928A95E9F710924A
:103C4000B6011092B701089581E394E00E945806EE
:103C50001F9281E08F931F9285E08F9383EE93E014
:103C60009F938F930E94F1060F900F900F900F90EB
:103C70000F900F9008958330E9F128F4813061F0BE
:103C8000823009F10895853009F462C008F449C012
:103C9000863009F474C0089580910701262F30E022
:103CA000280F311D2F3F310524F4680F6093070161
:103CB00003C08FEF80930701809107011F928F93BC
:103CC0008CE193E072C080910601262F30E0280F2E
:103CD000311D2F3F310524F4680F6093060103C0A6
:103CE0008FEF80930601809106011F928F938AE0E7
:103CF00093E05BC080910501262F30E0280F311D35
:103D00002F3F310524F4680F6093050103C08FEF46
:103D100080930501809105011F928F9387EF92E0B8
:103D200044C080910401262F30E0280F311D2F3F21
:103D3000310524F4680F6093040103C08FEF809372
:103D40000401809104011F928F9382EE92E02DC0B6
:103D500080910301262F30E0280F311D2F3F3105C0
:103D600024F4680F6093030103C08FEF8093030175
:103D7000809103011F928F9389EC92E016C080918D
:103D80000201262F30E0280F311D2F3F310524F48A
:103D9000680F6093020103C08FEF8093020180914E
:103DA00002011F928F938EEA92E09F938F930E945D
:103DB000F1060F900F900F900F900895833081F1CE
:103DC00028F4813059F08230D1F00895853009F41B
:103DD00049C0B8F1863009F456C0089580910701B2
:103DE000681720F4861B8093070102C01092070118
:103DF000809107011F928F938FE992E054C08091C8
:103E00000601681720F4861B8093060102C01092F9
:103E10000601809106011F928F938DE892E043C0C6
:103E200080910501681720F4861B8093050102C06C
:103E300010920501809105011F928F938AE792E00D
:103E400032C080910401681720F4861B809304011E
:103E500002C010920401809104011F928F9385E6A5
:103E600092E021C080910301681720F4861B8093A3
:103E7000030102C010920301809103011F928F93EE
:103E80008CE492E010C080910201681720F4861B38
:103E90008093020102C010920201809102011F92E0
:103EA0008F9381E392E09F938F930E94F1060F908E
:103EB0000F900F900F900895CF93C82F1F928F935C
:103EC00086E395E09F938F930E94F10681E090E056
:103ED000A0E0B0E0BC01CD0104C0660F771F881FD1
:103EE000991FCA95D2F70E94E8160F900F900F9075
:103EF0000F90CF910C940D13CF938B3109F4D1C156
:103F000008F067C18B3009F48AC108F03DC18630E2
:103F100009F488C120F4853009F496C144C2873081
:103F200009F4A4C1883009F03EC281E59AE00E94FC
:103F3000580682EA99E00E9458060E94A0191F9232
:103F40008F938FE999E09F938F930E94F1068DE9FB
:103F500099E00E9458060E949C19C82F8AE899E0AF
:103F60000E9458061F92CF9385E899E09F938F9304
:103F70000E94F10683E899E00E94580689E799E0DB
:103F80000E9458068C2F81701F928F9386E799E0CC
:103F90009F938F930E94F10684E799E00E94580650
:103FA0008AE699E00E945806C1FB882780F91F9293
:103FB0008F9387E699E09F938F930E94F10685E6A1
:103FC00099E00E94580689E599E00E945806C2FBD4
:103FD000882780F91F928F9386E599E09F938F93AE
:103FE0000E94F10684E599E00E9458068BE499E06E
:103FF0000E945806C3FBCC27C0F91F92CF9388E4D8
:1040000099E09F938F930E94F10686E499E00E94C5
:1040100058060E94A419C82F82E399E00E9458060E
:104020001F92CF938DE299E09F938F930E94F106A8
:104030008BE299E00E94580682E199E00E945806BE
:104040008C2F81701F928F938FE099E09F938F93B5
:104050000E94F1068DB79EB780960FB6F8949EBF6A
:104060000FBE8DBF8DE099E00E94580686EF98E064
:104070000E945806C1FB882780F91F928F9383EF17
:1040800098E09F938F930E94F10681EF98E00E9441
:1040900058068FED98E00E945806C2FB882780F9E9
:1040A0001F928F938CED98E09F938F930E94F1065F
:1040B0008AED98E00E94580688EC98E00E94580625
:1040C000C3FB882780F91F928F9385EC98E09F931C
:1040D0008F930E94F10683EC98E00E94580689EBCA
:1040E00098E00E945806C4FB882780F91F928F939E
:1040F00086EB98E09F938F930E94F10684EB98E003
:104100000E94580682EA98E00E945806C5FB88275C
:1041100080F91F928F938FE998E09F938F930E946D
:10412000F1068DE998E00E94580681E898E00E9427
:104130005806C6FB882780F91F928F938EE798E078
:104140009F938F930E94F1068CE798E00E94580697
:1041500084E798E00E945806C7FBCC27C0F91F925D
:10416000CF9381E798E09F938F930E94F1068FE6AB
:1041700098E00E9458068DB79EB74C960FB6F894FB
:104180009EBF0FBE8DBF49C0803109F4B4C020F47A
:104190008E3009F49AC007C1863109F4C7C089314D
:1041A00009F001C186E996E00E94580688E796E08A
:1041B0000E94580682E496E00E94580688E096E045
:1041C0000E94580682ED95E00E94580684EA95E028
:1041D0008FC08A32E1F060F4873209F4E0C028F43D
:1041E0008E3108F4E0C08D51DBC0893269F1DBC04B
:1041F000833448F48A3308F0D0C0853309F4CFC043
:10420000883369F0D0C0833409F4C9C0CCC080E4DD
:104210009AE00E9458060E94171AC1E0C9C08CECAF
:1042200096E066C08091B201817F8E7F8093B2015B
:1042300085EA96E00E9458068CE39AE00E945806B0
:1042400081E08093BF01E9CF0E940D1380E29AE0E4
:104250000E9458069FEF23ED80E39150204080405C
:10426000E1F700C000000E94441BD7CF8091B2014B
:10427000C82FC095C170C0FB80F98093B201CC23D8
:1042800029F084E19AE00E94580692C087E09AE003
:104290000E9458068091B201897F877F8093B20186
:1042A000BCCF9091B20191FBCC27C0F981E0C82727
:1042B000892FC0FB81F98093B201CC2319F08AEFDA
:1042C00099E029C08CEE99E013C09091B20192FB65
:1042D000CC27C0F981E0C827892FC0FB82F98093E1
:1042E000B201CC2319F08DED99E015C08DEC99E069
:1042F0000E94580692CF9091B20193FBCC27C0F94F
:1043000081E0C827892FC0FB83F98093B201CC23B9
:1043100051F081EC99E00E9458068091B2018160D1
:104320008093B20145C084EB99E0E2CF86E995E045
:104330000E9458060E94E60C1F928F938CE795E02E
:104340009F938F930E94F106809112011F928F9389
:1043500085E695E09F938F930E94F1068091CC01B2
:104360001F928F9382E595E09F938F930E94F106B1
:104370000E94E81A9F938F937F936F938BE395E04E
:104380009F938F930E94F1068DB79EB742960FB60A
:10439000F8949EBF0FBE8DBF40CF895301C080E00F
:1043A0000E945C1F3ACF82EB99E00E945806C0E061
:1043B0008C2FCF91089580E0089580E008958E516C
:1043C0008A3030F4E82FF0E0E45EFE4F80810895FB
:1043D00080E00895CF93C82F8091BF01813059F0BC
:1043E00020F0823009F445C039C10E94C0188232E1
:1043F00009F036C104C00E94C018823261F48C2FCB
:104400000E94DB21811104C08C2F0E947C1F2FC0D1
:1044100081E090E02CC08C2F0E94DD21811126C00C
:10442000C431E1F070F4CB3081F0C031D1F40E949E
:10443000241E8EE295E00E94580682E08093BF0120
:1044400015C0C93259F0C83361F485EA96E00E947C
:10445000580682E395E00E94580608C01092BF01FA
:1044600001C18CE295E00E945806FCC081E0817099
:10447000FBC0C43228F5CE3108F0C1C0CB30A1F169
:10448000D0F4C73009F0D0C08EE18093070182E3F9
:10449000809306018AE08093050184E18093040102
:1044A00088E08093030188E28093020182ED93E02B
:1044B0000E945806BCC0C33149F1C431C1F0B4C038
:1044C000CB3409F4A6C028F4C93289F0C83361F0AE
:1044D000ABC0C13509F49BC0C23509F496C0CE34D7
:1044E00009F0A2C06AE09BC00E94241EA0C0809177
:1044F000BE01882319F01092BE0199C08FED93E0A0
:104500000E94580681E08093BF01AEC089EB93E022
:104510000E94580687EA93E00E945806809107019E
:104520001F928F9384EA93E09F938F930E94F106EA
:1045300082EA93E00E94580680E993E00E945806C0
:10454000809106011F928F938DE893E09F938F9344
:104550000E94F1068BE893E00E9458068CE793E0F6
:104560000E945806809105011F928F9389E793E07E
:104570009F938F930E94F10687E793E00E9458066D
:1045800086E693E00E945806809104011F928F9363
:1045900083E693E09F938F930E94F10681E693E078
:1045A0000E9458068CE493E00E9458068091030113
:1045B0001F928F9389E493E09F938F930E94F1065B
:1045C00087E493E00E94580680E393E00E94580637
:1045D000809102011F928F938DE293E09F938F93BE
:1045E0000E94F1068BE293E00E9458068DB79EB7B9
:1045F00048960FB6F8949EBF0FBE8DBF18C08C2F83
:104600000E94DF218093BE0112C061E003C061E01F
:1046100006C06AE08091BE010E943B1E08C08091E6
:10462000BE010E94DE1E03C080ED93E013C08091A6
:10463000BE01882369F01F928F938AEC93E09F93C9
:104640008F930E94F1060F900F900F900F9004C06F
:1046500087EC93E00E94580681E006C01092BF01EB
:1046600080E002C080E003CFCF9108958091CB011C
:1046700008959FB7F8941092C2019FBF9091DA01FC
:10468000943009F057C09091E9009F703091EC0090
:10469000232F217030FD20E8922B23E02093E900A6
:1046A0002091EB0020FF43C02091EE0027FF3FC088
:1046B0002091C001222321F02091E80025FF37C07E
:1046C0001092C00126E03091E80035FD15C0309110
:1046D000DA01343061F53091EB0035FD28C021500E
:1046E00021F481E08093C00122C0EFE9FFE031971F
:1046F000F1F700C00000E7CF8093F1008091E8005F
:1047000085FD0AC08091E80080FFFCCF8091E80021
:104710008E778093E80006C08FB7F89421E020934D
:10472000C2018FBF9F709093E90080E008959F7051
:104730009093E9008FEF08950F931F93CF93DF932A
:1047400000D01F92CDB7DEB78C010E945726823071
:1047500011F0843021F584E089831B830A8382E091
:104760008093E9008FEF9091E800815095FD06C09D
:1047700095ED9A95F1F700008111F5CF8091E80051
:1047800085FF0DC040E050E063E070E0CE0101968F
:104790000E9474268091E8008E778093E8000F9045
:1047A0000F900F90DF91CF911F910F910895CF93AC
:1047B000DF9300D01F92CDB7DEB72091DA0124300D
:1047C00031F523E02983805891099B838A8382E015
:1047D0008093E9008FEF9091E800815095FD06C02D
:1047E00095ED9A95F1F700008111F5CF8091E800E1
:1047F00085FF0DC040E050E063E070E0CE0101961F
:104800000E9474268091E8008E778093E8000F90D4
:104810000F900F90DF91CF910895CF93DF93EC012C
:104820000E945726823011F08430F9F482E08093A0
:10483000E9009FEF8091E800915085FD06C085ED6D
:104840008A95F1F700009111F5CF8091E80085FF7E
:104850000CC040E050E066E070E0CE010E9474269B
:104860008091E8008E778093E800DF91CF910895E2
:10487000CF93DF93EC010E945726823011F08430F1
:1048800039F581E08093E9008FEF9091E800815045
:1048900095FD06C095ED9A95F1F700008111F5CFD1
:1048A0008091E80085FF14C040E050E068E070E0CF
:1048B000CE010E9474268091E8008E778093E800F4
:1048C00088E0FE01A3ECB1E001900D928A95E1F73A
:1048D000DF91CF91089581E89AE00E945806809177
:1048E000D901811109C00E9409280E94662880917F
:1048F000E20084608093E20008958DE79AE00E94D0
:1049000058061092D901089589E79AE00C94580648
:1049100085E79AE00C94580681E79AE00E945806D1
:104920000C94A21A2091C1012F5F822F62E30E9492
:104930000F2B992319F02093C10108951092C10102
:104940008091C201882371F18091DA01843041F5B0
:104950008091E9008F702091EC00922F917020FDE2
:1049600090E8892B93E09093E9009091EB0090FF01
:1049700014C09091EE0097FF10C09091E80095FF51
:1049800003C01092F100F9CF9091E80090FF05C0AC
:104990009091E8009E779093E8008F708093E900F3
:1049A0001092C201089542E061EC81E00E948327E9
:1049B00042E261EC82E00E94832742E261EC83E004
:1049C0000C9483278091DC01833009F460C030F4BB
:1049D000813071F0823009F499C008958A3009F469
:1049E00085C08B3009F46BC0893009F0A7C020C0A6
:1049F0008091DB01813A09F0A1C08091E800877FB6
:104A00008093E8008091DF019091E001892B21F4EF
:104A100068E083EC91E003C060E080E090E070E04B
:104A20000E94BF268091E8008B778093E80008956C
:104A30008091DB01813209F081C08091DF0190918A
:104A4000E001029708F07AC08091E800877F8093A8
:104A5000E8008091E80082FD05C08091DA018111B3
:104A6000F8CF6CC02091F3008091F20090E0922B7F
:104A7000029729F48091F1008B7F813021F480919D
:104A8000F1008093CB018091E8008B7753C0809137
:104A9000DB01813A09F052C08091DF019091E00181
:104AA000892B09F04BC08091E800877F8093E80054
:104AB0008091E80080FFFCCF8091120136C0809188
:104AC000DB018132D9F58091DF019091E001892BE2
:104AD000A9F58091E800877F8093E8000E94B827BD
:104AE0008091DD01809312010C940D138091DB0104
:104AF000813221F58091E800877F8093E8000E9451
:104B0000B8278091DE018093CC0108958091DB016C
:104B1000813AA1F48091E800877F8093E80080913A
:104B2000E80080FFFCCF8091CC018093F100809160
:104B3000E8008E778093E8000C94B827089584B736
:104B4000877F84BF0FB6F894A89580916000886134
:104B500080936000109260000FBE80E88093610037
:104B6000109261000E94830D0E9409280E9466280D
:104B70008091E20084608093E20089E393E20E94E6
:104B8000701978940E94F42A0E948B0D88E091E0BD
:104B90000E94E10C80E69AE00E9458068091DA01BA
:104BA000853089F48CE59AE00E9458060E94591AD3
:104BB0008091D801882391F30E948B1A882371F386
:104BC0000E945E26EBCF0E94BB0DE8CF0C94E82537
:104BD000292F332723303105C9F064F42130310502
:104BE00081F02230310509F049C08BE590E021EBDE
:104BF0003AE048C02132310521F12232310571F10C
:104C00003DC082E190E02CE03BE03CC09927813040
:104C1000910571F02CF4892B89F5EDEAFAE00DC0CD
:104C20008230910541F0039749F5E5E8FAE005C0C7
:104C3000EBE9FAE002C0EBE8FAE0849190E09F0132
:104C400021C063307105D0F4660F771FFB01E15D71
:104C5000FE4F2081318189E090E014C063307105FE
:104C600068F4FB01EE0FFF1FE75DFE4F20813181ED
:104C7000FB01EA5DFE4F808190E004C080E090E09F
:104C800020E030E0FA013183208308950895CF9326
:104C9000C82F0E944626C093CD01CF9108958091E0
:104CA000DA01843011F081E0089582E00895809166
:104CB000CD01811102C00C944F26089580E189BD79
:104CC00082E189BD09B400FEFDCF8091D8008F7DBF
:104CD0008093D8008091E00082608093E000809112
:104CE000E00081FDFCCF0895CF92DF92EF92FF921A
:104CF0000F931F93CF93DF93EC018B016A010E9406
:104D0000D727811133C0C114D10439F0F601808155
:104D10009181081B190BC80FD91FE12CF12C01152B
:104D2000110519F18091E80085FD16C08091E80019
:104D30008E778093E800C114D10449F0F601808198
:104D40009181E80EF91EF182E08285E00FC00E9499
:104D5000D727882321F30AC089918093F10001505D
:104D60001109FFEFEF1AFF0ADACF80E0DF91CF9150
:104D70001F910F91FF90EF90DF90CF9008952091B9
:104D8000E1013091E2012617370748F061157105FE
:104D900039F42091E8002E772093E80001C0B90192
:104DA00040E061157105A9F12091DA01222309F48F
:104DB00043C0253009F442C02091E80023FD40C0E3
:104DC0002091E80022FD32C02091E80020FFE9CFC9
:104DD0004091F3002091F20030E0342BFC01CF0130
:104DE0006115710559F02830310540F481918093A7
:104DF000F100615071092F5F3F4FF1CF41E0283042
:104E0000310509F040E02091E8002E772093E8007A
:104E1000C8CF4111C9CF0AC08091DA01882361F05F
:104E2000853061F08091E80083FD0AC08091E80040
:104E300082FFF2CF80E0089582E0089583E0089534
:104E400081E008952091E1013091E20126173707B2
:104E500048F06115710539F42091E8002E77209310
:104E6000E80001C0B901FC0120E06115710591F174
:104E70008091DA01882309F440C0853009F43FC0ED
:104E80008091E80083FD3DC08091E80082FD2FC045
:104E90008091E80080FFE9CF2091F3008091F2003B
:104EA00090E0922B6115710559F08830910540F41E
:104EB00024912093F1003196615071090196F2CF4F
:104EC00021E0089709F020E08091E8008E77809338
:104ED000E800CBCF2111CCCF0AC08091DA01882322
:104EE00061F0853061F08091E80083FD0AC0809117
:104EF000E80082FFF2CF80E0089582E0089583E029
:104F0000089581E00895982F973058F59093E9001F
:104F1000981739F07091EC002091ED005091F0005D
:104F200003C0242F762F50E021FF19C03091EB00F1
:104F30003E7F3093EB003091ED003D7F3093ED00EC
:104F40003091EB0031603093EB007093EC002093D4
:104F5000ED005093F0002091EE0027FF07C09F5F07
:104F6000D3CF8F708093E90081E0089580E00895A9
:104F70008091DB0187FF11C08091E80082FD05C0B0
:104F80008091DA018111F8CF11C08091E8008B7710
:104F90000BC08091DA01882349F08091E80080FFFE
:104FA000F8CF8091E8008E778093E80008952091F3
:104FB000E4003091E50095E64091EC00842F81708B
:104FC00040FF22C08091E80080FD1CC08091DA0182
:104FD000882391F0853091F08091EB0085FD10C021
:104FE0004091E4005091E5004217530729F39A01DC
:104FF000915011F784E0089582E0089583E00895C8
:1050000081E0089580E008954091E80042FFDECFFE
:1050100008950E9477280E947F28E0EEF0E08081CA
:1050200081608083E8EDF0E080818F77808319BC18
:10503000A7EDB0E08C918E7F8C9380818F7E8083F2
:105040001092D90108950F931F93CF93DF930E947D
:1050500077280E947F28C8EDD0E088818F778883E9
:1050600088818068888388818F7D888319BC1092AD
:10507000DA011092D6011092D8011092D70100EEF9
:1050800010E0F80180818B7F808388818160888334
:1050900042E060E080E00E948327E1EEF0E0808162
:1050A0008E7F8083E2EEF0E080818160808380816A
:1050B00088608083F80180818E7F80838881806111
:1050C0008883DF91CF911F910F910895E8EDF0E073
:1050D00080818F7E8083E7EDF0E080818160808336
:1050E00084E082BF81E08093D9010C942328E8ED0D
:1050F000F0E080818E7F80831092E200089510920C
:10510000DA001092E10008951F920F920FB60F92ED
:1051100011242F933F934F935F936F937F938F93BC
:105120009F93AF93BF93EF93FF938091E10082FF32
:105130000BC08091E20082FF07C08091E1008B7F6D
:105140008093E1000E9492248091DA0080FF1FC0CA
:105150008091D80080FF1BC08091DA008E7F809301
:10516000DA008091D90080FF0DC080E189BD82E125
:1051700089BD09B400FEFDCF81E08093DA010E9471
:105180006B2405C019BC1092DA010E947D24809125
:10519000E10080FF19C08091E20080FF15C080917E
:1051A000E2008E7F8093E2008091E2008061809334
:1051B000E2008091D80080628093D80019BC85E01D
:1051C0008093DA010E9488248091E10084FF30C03E
:1051D0008091E20084FF2CC080E189BD82E189BD1D
:1051E00009B400FEFDCF8091D8008F7D8093D80058
:1051F0008091E1008F7E8093E1008091E2008F7EBC
:105200008093E2008091E20081608093E2008091CF
:10521000D601882311F084E007C08091E30087FD68
:1052200002C081E001C083E08093DA010E948C24F7
:105230008091E10083FF29C08091E20083FF25C0B7
:105240008091E100877F8093E10082E08093DA0122
:105250001092D6018091E1008E7F8093E1008091D1
:10526000E2008E7F8093E2008091E2008061809373
:10527000E20042E060E080E00E9483278091F0003D
:1052800088608093F0000E948424FF91EF91BF9189
:10529000AF919F918F917F916F915F914F913F91CE
:1052A0002F910F900FBE0F901F9018951F920F9285
:1052B0000FB60F9211242F933F934F935F936F93E9
:1052C0007F938F939F93AF93BF93CF93DF93EF938E
:1052D000FF93C091E900CF708091EC00D82FD1707E
:1052E00080FDD0E81092E9008091F000877F8093E4
:1052F000F00078940E949A291092E9008091F000C1
:1053000088608093F000CD2BCF70C093E900FF91AF
:10531000EF91DF91CF91BF91AF919F918F917F914D
:105320006F915F914F913F912F910F900FBE0F9012
:105330001F9018951F93CF93DF93CDB7DEB7AA9731
:105340000FB6F894DEBF0FBECDBFEBEDF1E088E005
:105350008E0F9091F10091938E13FBCF0E94E22467
:105360008091E80083FF28C18091DB019091DC01EE
:10537000492F50E04A30510508F01EC1FA01E556A8
:10538000FF4F0C942F2B803821F0823809F014C184
:1053900008C08091D7019091D801992389F082604B
:1053A0000FC08091DF018F70873008F005C18093B6
:1053B000E9008091EB0085FB882780F91092E900D5
:1053C0009091E800977F9093E8008093F10010920D
:1053D000F100D0C0282F2D7F09F0EEC0882319F0EE
:1053E000823061F0E9C08091DD01813009F0E4C0D4
:1053F000933009F080E08093D8012EC08091DD01C8
:1054000081112AC08091DF018F702FEF280F263085
:1054100008F0D2C08093E9002091EB0020FF1CC06F
:10542000933021F48091EB00806214C09091EB00E6
:1054300090619093EB0021E030E0A90102C0440F9D
:10544000551F8A95E2F74093EA001092EA00809196
:10545000EB0088608093EB001092E9008091E800F7
:10546000877F8093E8000E94B827A6C08111A4C05E
:105470001091DD011F778091E3008078812B80936C
:10548000E3008091E800877F8093E8000E94B827BE
:105490008091E80080FFFCCF8091E30080688093DA
:1054A000E300111102C082E001C083E08093DA01C1
:1054B00083C08058823008F07FC08091DD019091D8
:1054C000DE018C3D53E0950779F583E08A838AE21B
:1054D00089834FB7F894DE01139620E03EE051E255
:1054E000E32FF0E050935700E49120FF03C0E295D2
:1054F000EF703F5FEF708E2F90E0EA3010F0C796AC
:1055000001C0C0968D939D932F5F243149F74FBF03
:105510008091E800877F8093E8006AE270E0CE0126
:1055200001960E94BF2615C06091DF017091E001D5
:10553000AE014F5F5F4F0E94E625BC01892BE1F170
:105540009091E800977F9093E80089819A810E946A
:1055500022278091E8008B778093E8002DC0803867
:1055600059F58091E800877F8093E8008091D6010B
:105570008093F1008091E8008E7773CF81111CC079
:105580009091DD019230C0F48091E800877F809394
:10559000E8009093D6010E94B8278091D60181112E
:1055A00006C08091E30087FD02C081E001C084E075
:1055B0008093DA010E94D3248091E80083FF0AC01F
:1055C0008091E800877F8093E8008091EB00806203
:1055D0008093EB00AA960FB6F894DEBF0FBECDBF46
:1055E000DF91CF911F910895CF938091DA018823A5
:1055F000A1F0C091E900CF709091EC00892F8170EB
:1056000090FD80E8C82B1092E9008091E80083FDAE
:105610000E949A29CF70C093E900CF910895991BF9
:1056200079E004C0991F961708F0961B881F7A9599
:10563000C9F78095089597FB072E16F4009407D0BC
:1056400077FD09D00E94352B07FC05D03EF49095DC
:1056500081959F4F0895709561957F4F0895EE0F46
:10566000FF1F0590F491E02D0994AA1BBB1B51E18B
:1056700007C0AA1FBB1FA617B70710F0A61BB70BC2
:10568000881F991F5A95A9F780959095BC01CD0167
:105690000895F999FECF92BD81BDF89A992780B5FA
:1056A0000895A8E1B0E042E050E00C947D2B262F55
:1056B000F999FECF92BD81BDF89A019700B4021608
:1056C00039F01FBA20BD0FB6F894FA9AF99A0FBEB6
:1056D00008950396272F0E94582B0E94572B252FA1
:1056E0000E94582B242F0C94582B0196272F0E9490
:1056F000582B0C94572BDC01CB01FC01F999FECF00
:1057000006C0F2BDE1BDF89A319600B40D92415049
:0A5710005040B8F70895F894FFCF59
:10571A00A7012808140A321E362338240D24D72359
:10572A009C2301F6F731336697C634350102030428
:10573A00050607080900408522C50B400B1E0BC34E
:06574A000ADC0AF50A006A
:00000001FF
