:100000000C94DA020C9421030C9421030C94210328
:100010000C9421030C9421030C9421030C942103D0
:100020000C9421030C9421030C9421290C94F329A2
:100030000C945E1F0C9421030C9421030C94210357
:100040000C9421030C9421030C9421030C942103A0
:100050000C9421030C94C61F0C9421030C942103CF
:100060000C9421030C9421030C9421030C94210380
:100070000C9421030C9421030C9421030C94210370
:100080000C9421030C9421030C9421030C94210360
:100090000C9421030C9421030C9421030C94210350
:1000A0000C9421030C9421030C942103C714C7144E
:1000B000F914F91446156615EB16EB16A815451636
:1000C00056165616B716C016EB16E4166D176D17B2
:1000D0007F177F1776177F177F177F176D176D179D
:1000E0007B177F177F177B17602A872A792B872A30
:1000F000792BD32AF62A792B4C2B5B2B35001E004B
:100100001F002000210022002300240025002600DB
:1001100027002D002E002A002A002B0000001400CA
:100120001A000800150017001C0018000C0012002F
:1001300013002F00300031002900000004001600D9
:10014000070009000A000B000D000E000F0033002D
:10015000340028000000E10000001D001B00060024
:100160001900050011001000360037003800E500C6
:1001700052004900E000E2000000E3002C00000013
:10018000015100002C000000AE00E40050005100BE
:100190004F003A003B003C003D003E003F00400065
:1001A0004100420043004400450000004C004C0068
:1001B000C25C0000C65CC55C0000000000000000DE
:1001C0000000000000000000000000004600BF5CCE
:1001D0000000C85CC75C000000000000BC0081009B
:1001E0008000AB00000000000000000000000000E4
:1001F000BD5CBE5C000000000000000000000000CC
:100200000000000000004B000000000000000000A3
:1002100000000000000001000000000000000000DD
:1002200000004A004E004D0000047F3F1F6432145E
:10023000643214783C1E1E140A0522232526282920
:100240002A2C2D2F3032333536383A3B3D3E404252
:10025000434547494A4C4E5051535557595A5C5E95
:100260006062646668696B6D6F71737577797B7DA9
:100270007F81838587898A8C8E90929496989A9CA8
:100280009E9FA1A3A5A7A8AAACAEAFB1B3B4B6B8C0
:10029000B9BBBCBEBFC1C2C3C5C6C7C9CACBCCCD22
:1002A000CED0D1D2D2D3D4D5D6D7D7D8D9D9DADAFD
:1002B000DBDBDBDCDCDCDCDCDDDDDDDDDCDCDCDC7D
:1002C000DCDBDBDBDADAD9D9D8D7D7D6D5D4D3D2B1
:1002D000D2D1D0CECDCCCBCAC9C7C6C5C3C2C1BF8F
:1002E000BEBCBBB9B8B6B4B3B1AFAEACAAA8A7A5F3
:1002F000A3A19F9E9C9A98969492908E8C8A8987AF
:100300008583817F7D7B79777573716F6D6B69688C
:10031000666462605E5C5A5957555351504E4C4A60
:100320004947454342403E3D3B3A3836353332300B
:100330002F2D2C2A292826252322FFAA7F5540006D
:100340000101010101010101010202020202020296
:100350000202030303030303030304040404040469
:10036000040505050505060606060607070707072F
:1003700008080808090909090A0A0A0B0B0B0C0CE2
:100380000C0D0D0D0E0E0E0F0F0F1010111111127E
:100390001213131414151516161717181819191AFD
:1003A0001A1B1B1C1D1D1E1E1F2020212222232460
:1003B00024252626272829292A2B2C2D2D2E2F309F
:1003C000313232333435363738393A3B3C3D3E3FB3
:1003D000404142434445464748494A4C4D4E4F50A0
:1003E000515354555658595A5B5D5E5F616264655E
:1003F0006668696B6C6D6F7072737577787A7B7DE8
:100400007E8082838587888A8C8E8F91939596983B
:100410009A9C9EA0A2A3A5A7A9ABADAFB1B3B5B757
:10042000BABCBEC0C2C4C6C9CBCDCFD1D4D6D8DB2E
:10043000DDDFE2E4E7E9EBEEF0F3F5F8FAFDFF04C7
:1004400003300000000A0344005A00360030000068
:100450000010034B0042004400460061006E007330
:100460000000000403090409023B00020100A0FA95
:10047000090400000103010100092111010001220A
:1004800040000705810308000A0904010001030078
:10049000000009211101000122C00007058203208C
:1004A000000A1201100100000008EDFE60220100A8
:1004B0000102030105010902A10185020901A10050
:1004C0000509190129051500250195057501810208
:1004D0009501750381010501093009311581257FD9
:1004E00095027508810609381581257F95017508E3
:1004F0008106050C0A38021581257F950175088152
:1005000006C0C005010980A10185031A81002A8364
:1005100000160100260300950175108100C0050C2E
:100520000901A10185041A01002A9C021601002676
:100530009C02950175108100C005010906A1018585
:1005400005050719E029E7150025019508750181C2
:10055000020507190029EF1500250195F0750181A5
:100560000205081901290595057501910295017586
:10057000039101C005010906A101050719E029E75A
:100580001500250195087501810295017508810105
:100590000507190029FF150026FF0095067508813B
:1005A0000005081901290595057501910295017548
:1005B000039101C011241FBECFEFDAE0DEBFCDBF33
:1005C00004B603FE27C08091A8029091A902A091D1
:1005D000AA02B091AB028730904BA740B04BD1F448
:1005E0001092A8021092A9021092AA021092AB02D5
:1005F00014BE84B7877F84BF0FB6F894A895809106
:100600006000886180936000109260000FBEE0E09F
:10061000F8E3099511E0A0E0B1E0ECEFF8E502C0E5
:1006200005900D92AC35B107D9F722E0ACE5B1E009
:1006300001C01D92A83AB207E1F70E9443260C942C
:100640007C2C0C9400000C94B409229A2A9A0895E8
:100650000E94B3090C94250381FF02C02A9801C0AF
:100660002A9A0C94FC0381E0089581E008950C948B
:1006700035031F93CF93DF9300D000D01F92CDB7E7
:10068000DEB749835A832091960189819A8121118D
:1006900012C0662349F00E94921C182F682F89818E
:1006A0009A810E94371C03C00E94661C182F698122
:1006B0007A81812F04C00E94921C69817A810F90F7
:1006C0000F900F900F900F90DF91CF911F910C948E
:1006D000D106FC01408151816281738184810C9437
:1006E00039030C942303E82FE295EF70F0E032A178
:1006F000282F2F7081E090E001C0880F2A95EAF73B
:100700008095832382A30895CF92DF92EF92FF9288
:10071000863030F4811105C0909180009F7D04C027
:1007200085E090918000906290938000282F30E0C7
:10073000AFEFBFEF0E940D2C25E030E040E050E02D
:100740000E94E52B2C3784E138074105510530F430
:10075000C90169E070E00E94BD2B29C0DA01C9011E
:100760008A50974DAF4FBF4F6627782F892F9A2F0A
:1007700025EF38E241E050E00E94E52B69017A0163
:10078000CA01B9010E94AD2B9B01AC01C701B601A2
:100790000E94AD2BBB27A92F982F872F009721E010
:1007A000A207B10511F0BC0102C06FEF7FEF70939B
:1007B0008B0060938A00FF90EF90DF90CF900895B8
:1007C000269A86E30E94730382E28093800089E187
:1007D000809381008FEF9FEF909387008093860036
:1007E0000C94A7230E94C21D811102C00E94751E95
:1007F0000E94E0030C94280308950C942C030895A0
:100800000E945D170E94FF032FEF84E39CE02150BC
:1008100080409040E1F700C000000C94EC1F0F9363
:100820001F93CF93DF938C010E946903EC01B80101
:100830000E943703882309F4AAC2B801CE010E949E
:100840003411882309F4A3C2CB3CFCE5DF0741F453
:10085000F8018281882309F49AC20E94C90B97C2C9
:10086000CC3C8CE5D80708F0CDC1C33C9CE5D9074A
:1008700061F4F8018281882309F489C20E94121D63
:100880008272F1F00E94A80F82C2C43CECE5DE0740
:10089000D0F0F8018281C73CFCE5DF0709F487C18D
:1008A00008F097C1C53CECE5DE0709F486C108F005
:1008B0008AC1882309F46BC20E94121D827211F34F
:1008C0000E949B0F64C2C631FCE5DF0708F038C107
:1008D000C2308CE5D80708F40FC1F8018281882363
:1008E00009F411C10E94C21D811102C00E94751E2F
:1008F0000E94DF1D9093990280939802CF30FCE50F
:10090000DF0709F4CDC008F042C0C8309CE5D90724
:1009100009F4A8C0F0F4C430FCE5DF0709F490C086
:1009200068F4C2309CE5D90709F486C0C330DC45C1
:1009300009F0D9C0809198028260D3C0C630FCE52E
:10094000DF0709F487C008F089C0809198028860A9
:10095000C8C0CB309CE5D90709F493C068F4C9300E
:10096000FCE5DF0709F482C0CA30DC4509F0BBC0F2
:100970008091980288607EC0CD309CE5D90709F44B
:1009800084C008F085C0809198028D7FAAC0CA3FBC
:10099000FCE5DF0709F457C050F5C2319CE5D907E3
:1009A00009F486C068F4C031FCE5DF0709F47CC0B7
:1009B000C131DC4509F097C0809198028F7B91C0CE
:1009C000C4319CE5D90709F483C008F475C0C5316A
:1009D000DC4509F088C08091980282FB222720F92B
:1009E00091E0922790FB82F990FB83F97AC0CD3F8A
:1009F0008CE5D80709F450C058F4CB3FECE5DE078E
:100A000029F1CC3FDC4509F06EC0809199025CC0B1
:100A1000CF3F8CE5D80709F454C070F1C115DD450E
:100A200009F061C080919902982F909591708E7F06
:100A3000892B90FB81F949C080919802816051C057
:100A40008091980217C08091990219C080919902F3
:100A500082603BC080919802806143C0809198027F
:100A600080623FC08091980280643BC08091980270
:100A7000806837C0846035C080919902826081604F
:100A800024C0809198028E7F2CC08091980217C05C
:100A900080919802877F25C0809199028D7F15C033
:100AA000809198028F7E1DC0809198028F7D19C021
:100AB000809198028F7715C080919802877F8B7FF5
:100AC00010C0809199028D7F8E7F809399020BC018
:100AD0008091980287FB222720F991E0922790FBD2
:100AE00087F98093980280919802909199020E94D0
:100AF000F01D0E945D174BC1C1159CE5D90751F04F
:100B0000C130DC4579F0C801DF91CF911F910F9181
:100B10000C943303F8018281882309F438C10E94C0
:100B2000000435C1F8018281882309F430C1809125
:100B30002E02982F909590FB80F980932E0227C16A
:100B4000C631FCE5DF0739F50E94121D282FF80198
:100B500082814091100150911101882379F02A7A05
:100B600091E009F490E090935C01911102C069E278
:100B700001C065E3CA010E94DC1E0AC080915C01CD
:100B8000811102C069E201C065E3CA010E94E71E4B
:100B90000E945E1DFCC0C23CDC4509F0B4CFF801E8
:100BA0008281882309F4F3C00E94B60FF0C0882325
:100BB00009F4EDC00E94620DEAC0882309F4E7C081
:100BC0000E94460DE4C0882309F4E1C00E94530D41
:100BD000DEC0C93C9CE5D90731F4882309F4D7C0AD
:100BE0000E94800DD4C0CA3CDC4530F4882309F44F
:100BF000CEC00E94710DCBC0882309F4C8C00E94EA
:100C00008F0DC5C0C33DFCE5DF0749F4F8018281C3
:100C1000882309F4BCC088E10E94AB0FB8C0C43D72
:100C20008CE5D80708F069C0F8018281CF3CFCE56B
:100C3000DF0771F4882309F4AAC00E94C10B863033
:100C400028F00E94C10B883008F43ACE86E0E4CF49
:100C5000C03D9CE5D90700F5CD3CECE5DE0729F465
:100C6000882309F494C081E0D7CFCE3CDC4530F432
:100C7000882309F48CC00E94DA0B89C0882309F408
:100C800086C00E94C10B823028F00E94C10B8530C3
:100C900008F416CE82E0C0CFC13D9CE5D90771F4BF
:100CA000882309F474C00E94C10B8F3028F00E9481
:100CB000C10B843108F404CE8FE0AECFC23DDC45D9
:100CC00070F4882309F463C00E94C10B893028F0B6
:100CD0000E94C10B8E3008F4F3CD89E09DCF8823AC
:100CE00009F455C00E94C10B853128F00E94C10B48
:100CF000873108F4E5CD85E18FCFCD3DFCE5DF07F9
:100D000049F4F8018281882309F441C082E00E94FD
:100D1000E4263DC0CE3D8CE5D80738F5C53D9CE5C1
:100D2000D90731F4F8018281882389F183E274CFF5
:100D3000C53DECE5DE0778F4F8018281882339F1BE
:100D40000E94C10B893128F00E94C10B823208F445
:100D5000B7CD89E161CFCC3DDC4509F0D4CEF801B7
:100D600082818823A1F080E0D2CFCE3D8CE5D807E8
:100D700039F4F8018281882351F00E94751E07C062
:100D8000CE018A5F9C45079708F4A7CDBCCE80E0D2
:100D9000DF91CF911F910F91089580E090E0089529
:100DA00008959FE0799FF00111249BE4899FE00D55
:100DB000F11D1124E60FF11DEE0FFF1FE450FF4F50
:100DC000859194910895880F991FFC01E85DFD4F6E
:100DD000859194910895CF93DF930E94D1060E944C
:100DE000DC08EC01811521E5920708F042C081156D
:100DF00060E5960708F02FC1883E910500F5803E1A
:100E0000910508F0D5C1883A910570F4853A9105AD
:100E100008F0A4C08130910509F4CAC108F47BC16F
:100E2000049708F0C5C177C18F3B910508F4A1C0B4
:100E3000803C910508F46FC1805C9109FBC0C1152D
:100E400080E3D80780F4C11590E2D90708F0F0C01C
:100E5000C03FD10508F45FC1CF3FD10511F008F0C4
:100E6000A7C1D065A5C1C11520E4D20708F0F0C024
:100E7000E5C0811569E5960760F5C11588E5D807D5
:100E800008F035C1C11594E5D90778F4C11523E5FB
:100E9000D20708F011C1C11562E5D60708F0F6C007
:100EA000DC2FCC27C16FD06A83C1C11585E5D80777
:100EB00008F418C1C11596E5D90708F02CC18C2F8C
:100EC0000E9470098F71C82FD0E0DC2FCC27D06230
:100ED0006FC18D3B2CE5920709F414C1E0F4CB3BC4
:100EE0008CE5D80709F408C108F009C1C1152AE545
:100EF000D20708F010C18C2F8F700E94700994E007
:100F0000D695C7959A95E1F7CF70D0E0DC2FCC2726
:100F1000D069C82B4DC1803C9C4509F4F9C0C13C47
:100F20008CE5D80760F4CE3B9CE5D90709F4EDC009
:100F3000CF3BDC4509F0EFC0C0E0D2ED39C1CE01B6
:100F400090568115904208F0E6C08D2F8F710E9457
:100F50007009DD27D0628F71D82B2AC1853A91059F
:100F600009F4DCC0863A910509F0DBC0C2E8D0E4A0
:100F70001FC1883A910509F4D7C0893A910509F44F
:100F8000D6C08A3A910509F4D5C08B3A910509F487
:100F9000D4C08C3A910509F4D3C08B3B910509F478
:100FA000D2C08C3B910509F4D1C08D3A910509F46A
:100FB000D0C0803B910509F4CFC08E3A910509F469
:100FC000CEC08F3A910509F4CDC0813B910509F45B
:100FD000CCC0823B910509F4CBC0833B910509F459
:100FE000CAC0843B910509F4C9C0853B910509F449
:100FF000C8C0863B910509F4C7C0873B910509F439
:10100000C6C0883B910509F4C5C0893B910509F428
:10101000C4C08D3B910509F4C3C08E3B910509F412
:10102000C2C08A3B910509F4C1C0C0E0D4E4C0C08D
:10103000CE019F700E94E306EC01BAC0CE01992751
:10104000D3FF03C0EC01D86CB3C0EC01D06CB0C0CE
:10105000DF70D06AADC0837021E030E002C0220FA3
:10106000331F8A95E2F73C68CE0174E09695879528
:101070007A95E1F78370382BCF70C695C69580E2DC
:10108000C89FE0011124C22BD32B92C04C2F469550
:10109000469590E2499FA0011124C370DD2721E00D
:1010A00030E0C90102C0880F991FCA95E2F7EC0130
:1010B000C42BD52BDC687CC04C2F4695469580E22E
:1010C000489FA0011124C370DD2721E030E0C90151
:1010D00002C0880F991FCA95E2F7EC01C42BD52BEB
:1010E000DA6866C0DC2FCC27C46FD06A61C0DC2F01
:1010F000CC27C06FD06A5CC0C0E0D4ED59C0C0E05E
:10110000D5ED56C0C0E0D1ED53C0C0E0D0ED50C029
:10111000C0E0D3ED4DC0C0E0D0E04AC0C1E8D0E4AB
:1011200047C0C3E8D0E444C0C2EED4E441C0C9EE35
:10113000D4E43EC0CAEED4E43BC0C5EBD4E438C02E
:10114000C6EBD4E435C0C3EBD4E432C0C4EBD4E482
:101150002FC0C7EBD4E42CC0CCECD4E429C0CDEC38
:10116000D4E426C0C3E8D5E423C0CAE8D5E420C04F
:10117000C2E9D5E41DC0C4E9D5E41AC0C1E2D6E491
:1011800017C0C3E2D6E414C0C4E2D6E411C0C5E27D
:10119000D6E40EC0C6E2D6E40BC0C7E2D6E408C06F
:1011A000CFE6D4E405C0C0E7D4E402C0CAE2D6E486
:1011B000CE01DF91CF9108958238910569F1B0F4A5
:1011C0008133910509F46DC048F48932910509F421
:1011D00063C08A32910509F469C008958533910589
:1011E00009F455C089339105B9F00895833E9105FE
:1011F00069F138F4803E9105B1F0823E910509F124
:101200000895863E9105A9F1873E9105B9F1843E86
:10121000910509F064C023C02091980220FD4FC0C1
:1012200021FD4DC008958091980280FD44C08091B9
:10123000990280FF44C08091980284FD42C083EEF1
:101240004DC08091980282FF38C0F5CF80919802FE
:1012500082FD33C08091990280FD31C0ECCF809136
:10126000990281FF32C08091980284FD2AC087EEE6
:1012700035C08091980283FF26C0F5CF80919802F7
:1012800083FD21C08091990281FD1FC0ECCF809128
:10129000980285FD1CC01DC08091980285FD19C073
:1012A00016C08091980286FD16C017C080919802E2
:1012B00086FD13C010C089E311C082EE0FC080EE1E
:1012C0000DC080E00BC086EE09C084EE07C089E245
:1012D00005C085E303C08AE201C081E390E0089580
:1012E0009091980292FF0DC0282F2871283019F490
:1012F000877F846006C0282F2471243011F48B7FEF
:10130000886093FF0DC0282F2871283119F4877E3B
:10131000846106C0282F2471243111F48B7E8861EA
:101320002091990220FF0DC0382F3871383019F400
:10133000877F816006C0382F3171313011F48E7F84
:10134000886021FF0DC0282F2871283119F4877E6D
:10135000816106C0282F2171213111F48E7E8861B0
:1013600094FD877E089508950895E82FF0E0EE0F2C
:10137000FF1FE35AFE4F8081918108950895A2E3F3
:10138000B1E041E050E025E02A0F8D91E82FE29591
:10139000EF70F0E031A18F70BA0102C0660F771FC5
:1013A0008A95E2F7CB01962F9095932391A392A172
:1013B000892B82A32A13E9CFA3E2B1E041E050E0F8
:1013C0002FE02A0F8D91E82FE295EF70F0E031A128
:1013D0008F70BA0102C0660F771F8A95E2F7CB01C2
:1013E000962F9095932391A392A1892B82A32A13E0
:1013F000E9CFE7E6F1E0ADE5B1E0119211921D927F
:101400001D9271E0E137F707C1F785E00E94A10A5C
:101410000C94F2035F926F927F928F929F92AF92A1
:10142000BF92CF92DF92EF92FF920F931F93CF93D1
:10143000DF9302E311E0A7E6B1E0612CEE24E39430
:10144000F12C5D018D909C90119711961C921E922B
:10145000E80189918E01E82FE295EF70F0E091A10B
:101460008F70A70101C0440F8A95EAF7892F842B5A
:1014700081A382A1542E5094852182A3D0EADA95CB
:10148000F1F783E2C82E81E0D82E80E090E0E601FB
:1014900079906E01272D22952F7030E0E90168A127
:1014A0002D913C91119770E0D72DDF7002C075959A
:1014B0006795DA95E2F760FD08C0B701082E02C013
:1014C000660F771F0A94E2F702C060E070E0262BF7
:1014D000372B11963C932E9301968F309105B9F6D8
:1014E00081A1D52DD823D1A382A1482B42A3129646
:1014F00081E0F501208131818216930609F480E0B4
:10150000682AF1E0A137BF0709F09BCF262D45E0FF
:101510006DE571E087E691E00E94A20A0E947103E6
:10152000862DDF91CF911F910F91FF90EF90DF906B
:10153000CF90BF90AF909F908F907F906F905F9073
:1015400008950895FF920F931F93CF93DF93F82E82
:10155000092F162FD72FC42F222349F081E0809323
:1015600073010E94901F909372018093710180918A
:1015700073018823D9F080917101909172010E94CA
:101580009C1F069798F0EF2DF02FA12FBD2F80E024
:1015900090E04C2F50E08417950734F4219131915D
:1015A0002D933D930196F7CF10927301DF91CF9168
:1015B0001F910F91FF900895AF92BF92CF92DF924B
:1015C000FF920F931F93CF93DF93D62E372FE82FE1
:1015D000F0E0711106C0E15CFC4F6491762F862F1C
:1015E00075C0C72FD0E0E15CFC4F2491F22E022F92
:1015F00010E046E0649FC0011124EFEFF0E0BF016E
:101600000E94BD2BAB016BEA6403C001659F900D86
:1016100011248D0D911D8D0D911D982F990F890FFE
:10162000DF01AC1BBD0B0A9FB0010B9F700D1A9F11
:10163000700D1124972F839FD0011124AB2FBB274E
:101640006F01CA1ADB0A0C9DD0010D9DB00D1C9DC7
:10165000B00D11245F01A81AB108AC9E6001AD9EC7
:10166000D00CBC9ED00C1124CD2DDD27EC1BFD0B26
:101670000E9FE0010F9FD00D1E9FD00D1124ED2F66
:101680004230510591F04CF441155105E1F04130E3
:101690005105B9F4E22F2B2F16C04430510569F0E3
:1016A00044F04630510579F00CC0E22F272F9D2FD2
:1016B0000AC0272F9F2DEB2F06C0E72F922F2D2F2B
:1016C00002C0E72F9B2F6E2F722F892FDF91CF91B2
:1016D0001F910F91FF90DF90CF90BF90AF90089532
:1016E0000895CF93DF93762FE901682F842F0E940E
:1016F000DC0A798368838A83DF91CF910895809192
:101700005D02282F269530E02115310519F48170EE
:10171000826005C02532310524F081708864809391
:101720005D02089588E090E00C943C2CCF93DF9309
:1017300000D000D0CDB7DEB7AB01BC0149835A83DE
:101740006B837C830E947F0B49815A816B817C81F2
:1017500088E090E00F900F900F900F90DF91CF9165
:101760000C945A2CEDE5F2E083E0808311828FEF38
:1017700082838383148260817181828193810C943E
:10178000960B80915D0280FF02C08695089580E0EF
:10179000089580916102833018F48F5F8093610215
:1017A00060915D0270915E0280915F029091600293
:1017B0000C94960B80916102882319F081508093DC
:1017C000610260915D0270915E0280915F02909172
:1017D00060020C94960B6091040170E080915D02B0
:1017E00080FF0AC08091780123E0829FC00111240C
:1017F0008E599D4F0C94C4108091770190910301F4
:10180000891780F7E82FF0E09F01220F331FE20FC6
:10181000F31FEE59FD4F1182108212828F5FF0CFBD
:1018200090915D0290FF16C0909177012091030185
:10183000921770F4E92FF0E0DF01AA0FBB1FEA0F47
:10184000FB1FEE59FD4F8183608342839F5FF0CF82
:101850000C94EB0B0895CF93DF9300D01F92CDB77C
:10186000DEB790915D0290FF0AC09E012F5F3F4F4F
:101870000E94710B4B8169818A810E94100C0F902C
:101880000F900F90DF91CF910895CF93DF93EC01EC
:10189000EC81F0E0E65CFD4F4491EDE5F2E0628121
:1018A00081810E942B0C8C818F5F8C83DF91CF9183
:1018B0000895CF93DF93EC01EDE5F2E0438162817F
:1018C0008C810E942B0C8C818F5F8C83DF91CF9158
:1018D00008950F931F93CF93DF9300D01F92CDB73E
:1018E000DEB78C018091740181110AC09E012F5FC7
:1018F0003F4F4FEF6FEF0E94710B8A81809374010D
:10190000F8018481813051F028F0823061F44091F7
:1019100074010AC08091740140E007C060917401B5
:1019200040E080E003C040E080E060E00E94100CF6
:10193000F801248130E0C901019663E070E00E9463
:10194000D12B84830F900F900F90DF91CF911F9137
:101950000F910895AF92BF92CF92DF92EF92FF92D4
:101960000F931F93CF93DF9300D01F92CDB7DEB7B5
:10197000182FF62E042FE22E90915D0290FF6EC07C
:10198000E92FE695AE2FB0E0A95CBE4F8C91809315
:1019900080019E7F923061F49E012F5F3F4F812F27
:1019A0000E94710B4B8169818A810E94100C44C096
:1019B000823019F4009160023FC0863019F4109112
:1019C0005E023AC08930D9F38931B1F5E9518E2FE1
:1019D0008170D82EE695F0E0E65CFC4FA590B490BF
:1019E000C12CBB2460910201C61620F5EC2DF0E05D
:1019F000EA9DC001EB9D900DFA9D900D112470E0C1
:101A00000E94BD2B812FD11002C0860F01C0861B02
:101A100090917701E90FF11D9F01220F331FE20F13
:101A2000F31F9F012E593D4F402F6F2D0E94710BC8
:101A3000C394D8CF0E94EB0B10935E02F0925F022A
:101A400000936002EE2051F060915D0270915E02A1
:101A500080915F02909160020E94960B0F900F9010
:101A60000F90DF91CF911F910F91FF90EF90DF903A
:101A7000CF90BF90AF900895EDE5F2E09181282FCF
:101A80004381628188E0890F0C94AA0C81E00C9458
:101A90003C0DEDE5F2E09181282F4381628188EFD2
:101AA000890F0C94AA0C81E00C94490DEDE5F2E04D
:101AB000628128E0620F08F46FEF282F4381818153
:101AC0000C94AA0C81E00C94560DEDE5F2E06281D5
:101AD00028E0621B08F460E0282F438181810C9488
:101AE000AA0C81E00C94650DEDE5F2E0438128E05D
:101AF000420F08F44FEF282F628181810C94AA0CC9
:101B000081E00C94740DEDE5F2E0438128E0421B86
:101B100008F440E0282F628181810C94AA0C81E0B6
:101B20000C94830D20E00C94AA0CFF920F931F934A
:101B3000CF93DF93EC01F12C0FEF10E060910201E5
:101B4000F616E8F42091770130E02F0D311DC90120
:101B5000880F991F280F391F2E593D4F70E0C8017B
:101B60000E94D12B962F8C814091600260915F0280
:101B7000F99E800D11240E94710BF394DFCF0E9417
:101B8000EB0B9A818C8190FF02C08F5F01C0815066
:101B90008C83DF91CF911F910F91FF900895BF9299
:101BA000CF92DF92EF92FF920F931F93CF93DF9329
:101BB000FC01828180FF02C00FEF01C001E010E054
:101BC000809102011817E0F5C12ED12C8091770188
:101BD000E601C80FD11DCE01880F991FC80FD91F6C
:101BE000CE59DD4F198218821A8234E0E32EF12C8F
:101BF000B12C809176018B0D87FF03C0909102017B
:101C0000890F082E000C990BC816D90691F4809103
:101C100060028E9DA0018F9D500D11245595479512
:101C2000559547959E0160915F0280915E020E94EA
:101C3000710BB00EF1E0EF1AF108D9F61F5FC0CFBB
:101C40000E94EB0B80917601013031F4811102C0CA
:101C500080910201815007C090E0019660910201DD
:101C600070E00E94D12B80937601DF91CF911F917C
:101C70000F91FF90EF90DF90CF90BF900895CF939A
:101C80008091770190910301891770F4E82FF0E0BB
:101C90009F01220F331FE20FF31FEE59FD4F1182F8
:101CA000108212828F5FF0CFC0E060910201C617F0
:101CB000B8F5EC2FF0E070E0CF010E94D12B4091FD
:101CC0007701480F80917501082E000C990B50E0A8
:101CD000E817F907C4F020910101022E000C330B24
:101CE0002E173F0784F09A01220F331F240F351F50
:101CF0002E593D4F4091600260915F0280915E02DB
:101D00000E94710B0BC0FA01EE0FFF1F4E0F5F1FF9
:101D1000FA01EE59FD4F118210821282CF5FC5CFBA
:101D20000E94EB0B2091000180917501820F80933E
:101D3000750190910101920F9093010119165CF4C5
:101D4000082E000C990B4091020150E041505109BE
:101D5000841795071CF0219520930001CF910895D9
:101D60000F931F93CF93DF938C01FC0184819581A6
:101D700001968170992795838483C0E0D5E5809191
:101D80000201C817F8F42091770130E02C0F311DC3
:101D9000C901880F991F280F391F2E593D4F4C2F0D
:101DA0004695F80184819581840F911D8170409141
:101DB000600260915F028D9F802D11240E94710B43
:101DC000CF5FDDCFDF91CF911F910F910C94EB0B83
:101DD0000F931F93CF93DF93EC0100E010E080910D
:101DE0000201282F30E00217130724F590917701A4
:101DF0009801290F311DA901440F551F240F351FCC
:101E00002E593D4F869590E04C81081719071CF418
:101E1000442331F002C0411103C04091600201C06F
:101E200040E060915F0280915E020E94710B0F5F43
:101E30001F4FD5CF0E94EB0B2C8130E02F5F3F4F1F
:101E4000217033272C83DF91CF911F910F9108953B
:101E5000EDE5F2E080818E7F8083608171818281F7
:101E600093810E94960B109281012FEF80E792E000
:101E7000215080409040E1F700C000000C94EB0B33
:101E800060915D02669570E04BE050E085E091E086
:101E90000E94272C892B19F481E0809381010E94F4
:101EA000901F90937A0180937901089590915D023B
:101EB00090FF35C09170811102C0926006C08532DA
:101EC00010F0986402C0880F982B90935D026623EF
:101ED00051F060915D0270915E0280915F0290917D
:101EE00060020E94960B60915D02669570E04BE087
:101EF00050E085E091E00E94272C892B19F0109288
:101F0000810102C00E94400F81E080937C014091DA
:101F1000600260915F0280915E020C94920D0895C0
:101F2000682F90915D02969581E0890F853208F0C7
:101F300081E00C94560F81E00C94900F682F9091E3
:101F40005D0296958FEF890F09F484E20C94560F89
:101F500081E00C949E0F61E00C94560FEDE5F2E0E9
:101F600080818160808386950C94AB0F80915D02A7
:101F700080FD0C94280F0C94AE0F60E00C94560F6B
:101F800080917F01811133C080912E028160809306
:101F90002E020E94C21D811104C00E94751E0E9463
:101FA000B20B0E94920B60935D0270935E0280936D
:101FB0005F02909360026E7F61F40E94B20B0E94F8
:101FC000920B60935D0270935E0280935F02909328
:101FD00060020E947F0B1092810180915D0280FF60
:101FE00003C086950E94BD0F81E080937F01089514
:101FF0000F931F93CF93DF9380918101882309F47E
:102000008CC080918001E0915D02E695E81BE09331
:102010007B01823049F4F0E0EA5CFD4FE491CE2F81
:10202000D0E005E41CE049C0863049F4F0E0ED5C06
:10203000FD4FE491CE2FD0E009E51CE03EC0893091
:1020400051F4E695F0E0E05DFD4FE491CE2FD0E055
:1020500005E91DE032C08F3051F4E695F0E0E35D14
:10206000FD4FE491CE2FD0E00FEC1DE026C085316E
:1020700049F4F0E0E65DFD4FE491CE2FD0E00FE3B0
:102080001EE01BC0883181F0833239F4E8E2F2E0CF
:10209000C591D49109E61CE010C0843251F4C4EF1C
:1020A000D1E008EE1EE009C0C8EED3E000EB1EE070
:1020B00004C0C0EDD7E000E71BE080917C018823DD
:1020C00089F010927C010E94901F9E01209530950E
:1020D000820F931F90937A018093790110927E0171
:1020E00010927D018091790190917A010E949C1F4C
:1020F0008C179D0790F0E0917901F0917A01CE0F55
:10210000DF1FD0937A01C093790189E791E0F8014C
:10211000DF91CF911F910F910994DF91CF911F9182
:102120000F9108952EB1342F309523233EB1432BC8
:102130003FB7F894FC01680F791FE617F70789F09D
:10214000819198E04EB9000000C087FF2EB9880F3A
:10215000000000C000C000C02EB900C09A9591F7E1
:10216000ECCF3FBF08952DB1242B2DB99B01220F39
:10217000331F620F731F0E94921087EC90E001974B
:10218000F1F700C00000089544E00C94B3100F93E1
:102190001F93CF93DF93C62FD42F022FFC01828190
:1021A0008823C9F0609384010E94901F909383015B
:1021B0008093820180E28C0F883008F050C0C77095
:1021C00081E001C0880FCA95EAF7DF91CF911F9196
:1021D0000F910C94871410918401161330C08091D4
:1021E0008201909183010E949C1F883C910538F5E3
:1021F000C0E2CD0F1D17B9F080E2810F883040F4A6
:10220000177081E001C0880F1A95EAF70E948E14BA
:10221000C83048F481E09D2F977001C0880F9A95CF
:10222000EAF70E948714802F0E947414C830B8F413
:10223000D77081E001C0880FDA95EAF70AC080E222
:102240008C0F883060F4C77081E001C0880FCA9598
:10225000EAF7DF91CF911F910F910C948E14DF91CB
:10226000CF911F910F9108959C01CB01233F4CE525
:102270003407F9F078F4283DFCE53F07B9F0293D33
:102280004CE5340711F1273D3C4531F526E241EE9E
:1022900061EE1EC0253FFCE53F0799F070F0263F38
:1022A0003C45D1F427E245EE66EE12C027E245EE4A
:1022B0000EC026E241EE60EE0BC027E245EE64EE72
:1022C00007C026E241EE62EE03C028E241E065EE7F
:1022D0000E94C71080E00895FC018281882319F0D4
:1022E00010928401089581E0089590938A0180936B
:1022F00089010895E0918901F0918A01309721F0D8
:102300000190F081E02D099480E00895E091890129
:10231000F0918A01309799F020912201222359F0FF
:102320002091980227FF07C0DC012C9111962C9375
:10233000119725E02C930280F381E02D09940895F4
:10234000E0918901F0918A01309739F022E0DC01B7
:102350002C930480F581E02D099408952091870144
:10236000309188018217930771F0909388018093D0
:102370008701E0918901F0918A01309721F0068070
:10238000F781E02D0994089520918501309186010F
:102390008217930771F09093860180938501E091F5
:1023A0008901F0918A01309721F00084F185E02DB8
:1023B0000994089585B7806885BF85B7806885BF13
:1023C0000895089508950C94E21108950C94E51170
:1023D0000E94DA110E94E1110C94E31181E008954A
:1023E0000E94871F0E94BF090E945C200E94A723B1
:1023F0000E94C00F0C94E6114F925F927F928F92D1
:102400009F92AF92BF92CF92DF92EF92FF920F9383
:102410001F93CF93DF93CDB7DEB72A970FB6F8940B
:10242000DEBF0FBECDBF0E940A0A0E94EE118111CD
:1024300011C08FEF89838A831B820E94901F816065
:10244000782F9D838C8349815A816B818D810E9475
:10245000BA1257C09CE8C92E91E0D92E00E010E0D6
:10246000AA24A394B12C702E802F0E94B5094C0190
:10247000F601419051906F014826592641145104AC
:1024800031F40F5F1F4F0530110569F7D2CF8091EE
:102490002E0281FD0E94BE0920E030E07501022E6F
:1024A00002C0EE0CFF1C0A94E2F7C70184219521BB
:1024B000892B09F12E837F828E209F2091E089282D
:1024C00009F490E098870E94901F8160782F9A8786
:1024D00089874E815F8168858A850E94BA12000FC4
:1024E000111FF801E457FE4F80819181E826F926FB
:1024F000F182E08206C02F5F3F4F2F30310571F629
:10250000C0CF0E94002310918B010E947A111817EE
:10251000D9F00E947A1180938B012A960FB6F89415
:10252000DEBF0FBECDBFDF91CF911F910F91FF9006
:10253000EF90DF90CF90BF90AF909F908F907F9063
:102540005F904F900C94FD032A960FB6F894DEBF6F
:102550000FBECDBFDF91CF911F910F91FF90EF90F4
:10256000DF90CF90BF90AF909F908F907F905F90C3
:102570004F900895CF93DF93CDB7DEB72B970FB66B
:10258000F894DEBF0FBECDBF4F83588769877A8727
:102590008B87DE01119686E0FD0111928A95E9F79D
:1025A00085E0FE01379601900D928A95E1F7498109
:1025B0005A816B817C818D819E810E94071A2B96A6
:1025C0000FB6F894DEBF0FBECDBFDF91CF91089557
:1025D000FC01808191810E94D31C0895882309F415
:1025E0001AC18238C1F40E947A1181FD14C169E3D5
:1025F00080911001909111010E94DC1E0E945E1DCD
:102600002FEF81EE94E0215080409040E1F700C030
:10261000000069E319C08338F9F40E947A1180FD43
:10262000FAC063E580911001909111010E94DC1EB7
:102630000E945E1D2FEF81EE94E02150804090407B
:10264000E1F700C0000063E5809110019091110155
:102650000E94E71E0C945E1D8438C1F40E947A111A
:1026600082FDD9C067E480911001909111010E9410
:10267000DC1E0E945E1D2FEF81EE94E02150804011
:102680009040E1F700C0000067E4DECF9CEF980FB8
:10269000913A40F4682F80911001909111010E94AD
:1026A000DC1ED8CF90E2980F983050F4877091E0FC
:1026B00001C0990F8A95EAF7892F0E94151DCACF8C
:1026C0009BE5980F933070F4853A29F0863A31F003
:1026D00083E890E005C081E890E002C082E890E0E5
:1026E0000C94AE1198E5980F973108F08EC0883A97
:1026F00009F445C0893A09F445C08A3A09F445C04D
:102700008B3A09F445C08C3A09F445C08B3B09F477
:1027100045C08C3B09F445C08D3A09F445C0803B67
:1027200009F445C08E3A09F445C08F3A09F445C012
:10273000813B09F445C0823B09F445C0833B09F461
:1027400045C0843B09F445C0853B09F445C0863B40
:1027500009F445C0873B09F445C0883B09F445C0EE
:10276000893B09F445C08D3B09F445C08E3B09F413
:1027700045C08A3B09F445C080E090E044C082EE49
:1027800090E041C089EE90E03EC08AEE90E03BC010
:1027900085EB90E038C086EB90E035C083EB90E0AD
:1027A00032C084EB90E02FC087EB90E02CC08CEC23
:1027B00090E029C08DEC90E026C083E891E023C032
:1027C0008AE891E020C082E991E01DC084E991E0AF
:1027D0001AC081E292E017C083E292E014C084E262
:1027E00092E011C085E292E00EC086E292E00BC05A
:1027F00087E292E008C08FE690E005C080E790E0B5
:1028000002C08AE292E00C94C411803F20F00E9442
:1028100008220C94F5220895882309F464C08238B4
:1028200079F40E947A1181FF5EC069E38091100102
:10283000909111010E94DC1E0E945E1D69E310C090
:102840008338B1F40E947A1180FF4DC063E5809116
:102850001001909111010E94DC1E0E945E1D63E533
:1028600080911001909111010E94E71E0C945E1D51
:10287000843879F40E947A1182FF35C067E4809130
:102880001001909111010E94DC1E0E945E1D67E400
:10289000E7CF9CEF980F913A10F4682FE1CF90E2C8
:1028A000980F983050F4877091E001C0990F8A9585
:1028B000EAF7892F0E941B1DD9CF9BE5980F933013
:1028C00020F480E090E00C94AE1198E5980F9731D9
:1028D00020F480E090E00C94C411803F20F00E942E
:1028E00070220C94F5220895CF93C82F0E94EE1207
:1028F000C93349F42FEF87EE93E021508040904098
:10290000E1F700C000008C2FCF910C940C148823A9
:1029100021F00E94151D0C945E1D0895882321F05E
:102920000E941B1D0C945E1D0895BF92CF92DF92F2
:10293000EF92FF920F931F93CF93DF937C01062FAB
:10294000C72FFC01158112951F70D281D1110E94F1
:10295000321D0E940B1D882379F0DD2369F080E28F
:10296000800F883048F082E00E94A91D0E940B1D54
:1029700091E0B82EB92601C0B12CCC2EC2948FE0C4
:10298000C822D12CF601EA5AFF4F0C94072C8C2F49
:10299000807FCF70882311F0C295C07FDD2399F02E
:1029A000CC2309F4CFC180E2800F883010F00111F0
:1029B00004C08C2F0E94151D03C08C2F0E94251D62
:1029C0000E945E1DBFC1802F0E940C14CC2309F40D
:1029D00002C280E2800F883010F0011104C08C2FF9
:1029E0000E941B1D03C08C2F0E942B1D0E945E1D88
:1029F000F2C18C2F807FCF70803211F0C295C07FE2
:102A0000002319F00130C9F022C0DD2371F0112339
:102A100041F0113031F40E94451D8C2B0E944B1D5A
:102A2000DAC10E94451D8C2B1DC0112319F01130F5
:102A300009F4D1C10E94541D25C0DD2321F01630B8
:102A400008F0C9C10EC0153008F0C5C11BC0DD2398
:102A500061F0112331F0F701858180FF73C18F7020
:102A600085838C2F0E948714B6C1112359F0093336
:102A700009F079C1FFEF27EE83E0F150204080405C
:102A8000E1F76FC18C2F0E948E14A5C18C2F869503
:102A90008695837090E0009719F0019761F09BC1D3
:102AA000DD2321F0802F9C2F937002C080E090E006
:102AB0000E94AE119BC1DD2321F0802F9C2F9370CB
:102AC00002C080E090E00E94C41190C1DD23F9F0C3
:102AD000053F51F0063F71F0043FA9F48091920246
:102AE0009091930281600BC0809192029091930229
:102AF000826005C0809192029091930284609093CD
:102B0000930280939202802F0E9408221EC0053FEC
:102B100051F0063F71F0043FA9F480919202909128
:102B200093028E7F0BC080919202909193028D7FD1
:102B300005C080919202909193028B7F90939302B3
:102B400080939202802F0E9470220E94F5224EC133
:102B50008C2F837009F049C0D11144C1402F429598
:102B600046954770440F440F602F6F70862F90E09A
:102B7000A0E0B0E0042E04C0880F991FAA1FBB1F5D
:102B80000A94D2F704FF10C00FE010E020E030E01C
:102B900004C0000F111F221F331F4A95D2F7009562
:102BA00010952095309503C000E010E09801C6957F
:102BB000C695C370D0E0BC01CD01602B712B822B78
:102BC000932BC230D10559F0C330D10559F021976C
:102BD00019F00E944C1B06C10E943A1B03C10E94BF
:102BE0005E1B00C10E94381BFDC0DD2319F08C2F35
:102BF000817001C08695882309F4F4C0402F429566
:102C000046954770440F440F602F6F70862F90E0F9
:102C1000A0E0B0E0042E04C0880F991FAA1FBB1FBC
:102C20000A94D2F704FF10C00FE010E020E030E07B
:102C300004C0000F111F221F331F4A95D2F70095C1
:102C400010952095309503C000E010E09801C695DE
:102C5000C695C370D0E0BC01CD01602B712B822BD7
:102C6000932BC230D10559F0C330D10559F02197CB
:102C700019F00E94121CB6C00E94001CB3C00E9432
:102C8000241CB0C00E94731BADC0CF70DD2339F08F
:102C90008C2F0E94991B802F0E948714A3C0802F25
:102CA0000E948E148C2F0E94BA1B9CC0023F01F11F
:102CB00028F4003F41F0013FA1F040C0033FF9F08C
:102CC000043F39F13BC0DD2341F0153008F083C0EB
:102CD0008C2F8F710E94DF1B7EC0163008F07BC0E6
:102CE000F7CFDD2339F08C2F8F710E94991B73C0B1
:102CF000DD23C9F38C2F8F710E94BA1B6CC0DD23BA
:102D000029F08C2F8F710E94841B65C00E947F1B4D
:102D100062C0DD2349F0CF718C2F0E94991B63E0C4
:102D20008C2F0E94941D57C081E00E94A91D123073
:102D300008F451C082E00E94A91D4DC0DD2331F08E
:102D4000112389F2802F0E94EE1245C0112391F2C7
:102D5000093349F49FEFE7EEF3E09150E040F04093
:102D6000E1F700C00000802F0E940C1434C04C2FEB
:102D70004F70602FC7010E94CD060E94AB1A36C06B
:102D8000D11134C0CF70D0E0C230D10599F03CF4FD
:102D9000209769F02197F9F40E94EB2327C0C430F3
:102DA000D10571F054F02597B1F480E00AC00E947B
:102DB000C8231CC00E94322419C00E94392416C0A6
:102DC00085E00E94622412C04C2F4F70602FC70113
:102DD0000E94D0060BC028E0C21AD10884E0C816B1
:102DE000D10420F40E947A110E94FD03BB20D1F08F
:102DF0000E94071D80FD16C0F70112820E94011D6E
:102E00000E94991BC7010E941C170E94011DDF919F
:102E1000CF911F910F91FF90EF90DF90CF90BF90D7
:102E20000C94BA1BDF91CF911F910F91FF90EF90FF
:102E3000DF90CF90BF9008950F931F93CF93DF93B0
:102E4000EC01888199812B813C81232BB9F09F3F34
:102E500011F48F3F99F0CE010E940F04882371F086
:102E6000688179818A810E94DE1C8C010E94361C57
:102E70000E94371BB801CE010E949514DF91CF91BB
:102E80001F910F9108950E94321D0E94421D0E94C1
:102E90005E1D0E949B230E94F52280E090E00E942C
:102EA000AE1180E090E00C94C411809110019091DB
:102EB00011010E94F21E0C9443170E94221D0C94D3
:102EC0005517E92FE295EF70F0E03297EE30F105FB
:102ED000B0F4EA59FF4F0C94072C803F91F018F49E
:102EE000883E68F40EC0843F51F40BC0883E48F021
:102EF000813F29F406C093FB882780F9089580E07C
:102F0000089581E008950E94D31C0E9461170895DE
:102F1000CF93DF9300D000D01F92CDB7DEB70F90D4
:102F20000F900F900F900F90DF91CF910895CF9356
:102F3000DF9300D000D000D0CDB7DEB726960FB615
:102F4000F894DEBF0FBECDBFDF91CF9108951F93E0
:102F5000CF93DF93C091970116E080919801C81735
:102F600099F0D0E01C9FF0011D9FF00D1124E75651
:102F7000FE4F4081518162817381848195810E94DD
:102F800097172196C770E9CFDF91CF911F910895D0
:102F90004091C9015091CA016091CB017091CC015F
:102FA0008091CD019091CE010C9497178091CE0124
:102FB00082958F7009F054C08091CB01882309F469
:102FC0004FC080919701A09198016091C9017091C3
:102FD000CA014091CC015091CD01B6E08A1709F4A5
:102FE0003FC090E041155105C1F17F3F11F46F3FA3
:102FF000A1F1B89FF001B99FF00D1124E756FE4FE3
:10300000218172132AC02081621327C022812111DD
:1030100024C0238134812417350710F4215031094D
:10302000241B350B283C3105C0F42091CE012F70B4
:1030300020612093CE0126E0289FF001299FF00D0A
:103040001124E256FE4F80818F708061808389EC6D
:1030500091E00E941C170C94A71701968770BECFB1
:103060000895CF92DF92EF92FF920F931F93CF9329
:10307000DF93CDB7DEB762970FB6F894DEBF0FBE11
:10308000CDBF8C0185E0F801DE011D9601900D9207
:103090008A95E1F7D8014C9111965C91119712969F
:1030A0006C9112971396CD90DC9014973091C901D2
:1030B0007091CA018091CC019091CD01009709F4E3
:1030C0006BC17F3F19F43F3F09F466C1E090CB012B
:1030D000EE2009F4C0C02091CE01C816D90628F010
:1030E000F601E81BF90BCF0104C0809590958C0D7B
:1030F0009D1DFF24F394883C910578F0F12C207FEE
:1031000009F0C6C07C2DD98AC88A89890E9488178F
:1031100089EC91E00E941C17B1C0822F807F09F0DA
:1031200046C0751314C0341312C0611110C02F7043
:1031300020612093CE010E94C81789EC91E00E9483
:103140001C178091CE01D80115968C932EC0CD28E6
:1031500019F15F3F11F44F3FF9F0F62E61111CC0D9
:10316000809197012091980136E0821709F45AC0A6
:1031700090E0389FF001399FF00D1124E756FE4F83
:103180007181571306C07081471303C0728171119A
:1031900003C001968770E9CFF62E662309F427C194
:1031A0008091CE0181608093CE01F12C20C17513F6
:1031B00008C0341306C0611104C08091CE01D8014B
:1031C000C3C04D875E878D859E856A8B0E9483175D
:1031D0006A898823E1F16623D1F12091CE01822F03
:1031E00082958F7090E0029774F08091C901909160
:1031F000CA0198878F831986DB86CA862C87CE0101
:1032000007960E941C1786E0F801A9ECB1E0019036
:103210000D928A95E1F70E94D6170E94C817FF24E5
:10322000F394E5C04D875E878D859E850E94D31CF3
:10323000292F22952F7030E0223031050CF0CBC0C1
:103240009F7009F0C5C0805E883008F4D0C0C80106
:103250000E941C17E4CFC816D90608F453C0F60123
:10326000E81BF90BCF01883C910508F450C0F12C04
:103270007C2DD98AC88A89890E948817E9ECF1E0F7
:1032800086E0DF011D928A95E9F70E94C817AFC05A
:10329000751314C0341312C0611110C08091CE0197
:1032A000F8018583C8010E941C1786E0E9ECF1E073
:1032B000DF011D928A95E9F7FE2C99C04D875E8744
:1032C0008D859E856A8B0E9483176A89882309F4FD
:1032D000BECF662309F4BBCF2091CE01822F829509
:1032E0008F7090E002970CF48ECF8091C90190917D
:1032F000CA019A8389831B82DD82CC822E83CE0110
:1033000001967FCF809590958C0D9D1DACCFF62EAC
:10331000662309F49CCF75132EC034132CC0209162
:10332000CE0120FD1FC0822F82958F70D9F0D80169
:1033300015962C9315978F3049F08F5F982F9295A3
:10334000907F822F8F70892B15968C93C8010E94D5
:103350001C1786E0F801A9ECB1E001900D928A9566
:10336000E1F793CF86E0F801A9ECB1E001900D926E
:103370008A95E1F73CC04D875E878D859E850E94CA
:103380008317811140CF8091CE0181608093CE015F
:10339000C8010E941C172BC0662309F458CF4D8723
:1033A0005E878D859E850E948317F82E882309F4F9
:1033B0004ECF86E0F801A9ECB1E001900D928A951C
:1033C000E1F789EC91E00E94E8120E94D6175DCFE8
:1033D000811139CF0CC0243031050CF038CF9F70EB
:1033E00009F431CFF8019581907F09F02CCF8F2D12
:1033F00062960FB6F894DEBF0FBECDBFDF91CF91BE
:103400001F910F91FF90EF90DF90CF9008951F9341
:10341000CF93DF93CDB7DEB72C970FB6F894DEBF0E
:103420000FBECDBF4F83588769877A878B879C876C
:10343000CE0107960E943118882369F08F81988504
:103440002A853B85232BF1F19F3F09F063C08F3F15
:1034500009F060C037C086E0FE013796DE011196A4
:1034600001900D928A95E1F76F817885EA85FB8559
:10347000309741F17F3F11F46F3F21F12091980186
:1034800030E0C9010196877099274091970150E07B
:103490008417950709F447C069837A83FD83EC8319
:1034A00096E0929FD001939FB00D1124A756BE4F76
:1034B000FE01319601900D929A95E1F78093980163
:1034C0000E94A71716E080919701909198018917A3
:1034D000C1F1189FC001112487569E4F0E943118D8
:1034E000882379F1E09197011E9FF0011124E7569E
:1034F000FE4F4081518162817381848195810E9458
:1035000097178091970190E0019687709927809393
:103510009701D9CF4F81588569857A858B859C85A0
:103520000E949717CFCF0E945D17109298011092BA
:103530009701E9ECF1E086E0DF011D928A95E9F759
:10354000C1CF2C960FB6F894DEBF0FBECDBFDF9172
:10355000CF911F910895EF92FF920F931F93CF93F6
:10356000DF938C01892B09F46CC0F12CEE24E394D9
:10357000E8012196F8018491843740F4843008F002
:1035800051C0813081F0823019F15BC0853709F478
:1035900044C0A8F19CE7980F903708F052C08F778D
:1035A0000E940C1441C00E5F1F4FFE01C49180E2C7
:1035B0008C0F883048F4C7708E2D01C0880FCA95D3
:1035C000EAF70E94351D14C08C2F0E94EE122DC008
:1035D0000E5F1F4FFE01C49180E28C0F883058F4BB
:1035E000C7708E2D01C0880FCA95EAF70E943B1D57
:1035F0000E945E1D1AC08C2F0E940C1416C00E5F14
:103600001F4FFE01C491CC2381F08FE99FE0019709
:10361000F1F700C00000C150F6CF0E5F1F4FFE0152
:10362000F49003C00E94EE128E018F2D882309F4BE
:103630009FCFEFE9FFE03197F1F700C00000815024
:10364000F5CFDF91CF911F910F91FF90EF900895EB
:1036500008950C94281B0E94291B60930502709307
:10366000060280930702909308020C944317089572
:103670000C942B1B0F931F930091050210910602CF
:103680002091070230910802602B712B822B932B23
:103690001F910F910C942B1B0F931F930091050208
:1036A00010910602209107023091080260237123D5
:1036B000822393231F910F910C942B1B0F931F9325
:1036C0000091050210910602209107023091080234
:1036D00060277127822793271F910F910C942B1B32
:1036E00008950C94701B0E94711B609301027093EB
:1036F000020280930302909304020C94431760E04B
:1037000070E0CB010C94731B0F931F9341E050E0CA
:1037100060E070E08A019B0104C0000F111F221FAE
:10372000331F8A95D2F7C901B8011F910F910C94EC
:10373000731B0F931F9341E050E060E070E004C002
:10374000440F551F661F771F8A95D2F7809101029B
:1037500090910202A0910302B09104028A019B01A0
:10376000082B192B2A2B3B2BC901B8011F910F9154
:103770000C94731B0F931F9341E050E060E070E0E6
:1037800004C0440F551F661F771F8A95D2F74095D6
:103790005095609570958091010290910202A091E0
:1037A0000302B09104028A019B01082319232A23F2
:1037B0003B23C901B8011F910F910C94731B0F9308
:1037C0001F9341E050E060E070E004C0440F551FDB
:1037D000661F771F8A95D2F78091010290910202AD
:1037E000A0910302B09104028A019B0108271927C6
:1037F0002A273B27C901B8011F910F910C94731B15
:103800000F931F9300910102109102022091030275
:1038100030910402602B712B822B932B1F910F91FF
:103820000C94731B0F931F930091010210910202DD
:103830002091030230910402602371238223932399
:103840001F910F910C94731B0F931F930091010212
:103850001091020220910302309104026027712727
:10386000822793271F910F910C94731B08952FE0CB
:10387000929F800D1124A82FA695A695A6958770D6
:1038800051E001C0550F8A95EAF785E0A89FD00165
:10389000112420E030E070E0F901EA0FFB1FE15352
:1038A000FE4F4081CB01022E02C0969587950A9467
:1038B000E2F7817099278195842785238427808367
:1038C0002F5F3F4F2530310539F708952FE0929F44
:1038D000800D1124682F669566956695982F9770D0
:1038E00085E0689FB001112440E050E080E0FA01DB
:1038F000E60FF71FE153FE4F208130E0092E02C092
:10390000369527950A94E2F721703327042E01C0DB
:10391000220F0A94EAF7822B4F5F5F4F4530510523
:1039200031F70895BF92CF92DF92EF92FF920F93FB
:103930001F93CF93DF938C01C0900502D0900602B5
:10394000E0900702F090080280910102909102023B
:10395000A0910302B0910402C82AD92AEA2AFB2ABC
:10396000CFE1D0E0D701C6010C2E04C0B695A795D3
:10397000979587950A94D2F780FF07C0BC2EB801AF
:103980008C2F0E94EB06019719F4219758F7B12C60
:103990008B2DDF91CF911F910F91FF90EF90DF90D2
:1039A000CF90BF900895CF93DF93EC010E94921CBB
:1039B000BE010E94EB06DF91CF9108951F93CF9334
:1039C000DF93EB0190919601992321F0CB010E94A6
:1039D000D31C13C0882349F0CB010E94921C182FDE
:1039E000682FCE010E94371C04C0CB010E94661CC8
:1039F000182FBE01812F0E94EB06DF91CF911F91FE
:103A00000895809109028595859585950895809101
:103A100009028770089590910902977081E009F476
:103A200080E0089580912D02089590912D02892BB8
:103A300080932D020895809590912D028923809383
:103A40002D02089510922D02089590912C02892B39
:103A500080932C020895809590912C028923809365
:103A60002C02089510922C02089590912B02892B1C
:103A700080932B020895809590912B028923809347
:103A80002B02089510922B02089580910A02089546
:103A900008950C94481D90910A02981721F0809384
:103AA0000A020C94491D089580910A02882329F086
:103AB00010920A0280E00C94491D0895E0911001D3
:103AC000F091110180912D028083E0911001F0911D
:103AD0001101908180912C02892B8083E09110014B
:103AE000F0911101908180912B02892B808380912C
:103AF0000A02882381F0E0911001F0911101908178
:103B0000892B808380911001909111010E94771E72
:103B100081110E94541D80911001909111010C940B
:103B2000861108950C94911D98E0899F90011124AD
:103B3000262B209309020E94991B809109028595EA
:103B4000859585950C94921D1092090280E00C9445
:103B5000921D209109028095822380930902982F5B
:103B6000977079F430E0482F082E000C550B24177D
:103B7000350739F08595859585950E94BA1B0C947B
:103B8000A41D089580E090E00E94422C21E08C3E2C
:103B90009E4F09F020E0822F089582E090E00C947F
:103BA000342C682F82E090E00C94482C83E090E065
:103BB0000C94342C682F83E090E00C94482CCF9325
:103BC00084E090E00E94342CC82F81E290E00E94B3
:103BD000342C2C2F30E0A901582BCA01CF91089525
:103BE000CF93C92F682F84E090E00E94482C6C2F5F
:103BF00081E290E0CF910C94482C86E090E00C9408
:103C0000342C682F86E090E00C94482CAB01BC016A
:103C10008FE090E00C945A2CAB01BC0183E190E062
:103C20000C945A2C60E070E0CB010C940C1E60E008
:103C300070E0CB010E94061E0C94121E6CEE7EEF0B
:103C400080E090E00E94662C60E082E090E00E94BC
:103C5000482C60E083E090E00E94482C109205021E
:103C600010920602109207021092080260E084E0AF
:103C700090E00E94482C60E081E290E00E94482C95
:103C800060E085E090E00E94482C60E086E090E0F3
:103C90000E94482C6FEF87E090E00E94482C40E0A3
:103CA00050E0BA0188E090E00E945A2C60E08DE07C
:103CB00090E00E94482C40E050E0BA0188E190E09A
:103CC0000E945A2C60E087E190E00E94482C40E07E
:103CD00050E0BA018CE190E00E945A2C60E080E252
:103CE00090E00E94482C0C94171E0C941E1EFC01A0
:103CF000329680912201882331F08091980287FFCB
:103D000002C09EE101C096E080E0915028F0219130
:103D10002223D9F38F5FF9CF08959C01FC013296DD
:103D20009FEF80E04191461789F09F3F19F44111C0
:103D300001C0982F8F5F8630A9F79F3F39F0F901B6
:103D4000E90FF11D97FDFA95628308950895FC012E
:103D5000329608962081261301C010823196E8170A
:103D6000F907C1F70895262F2695269526952E3119
:103D700068F4FC01E20FF11D677021E030E001C042
:103D8000220F6A95EAF78281282B22830895262F35
:103D90002695269526952E3170F4FC01E20FF11D33
:103DA000677021E030E001C0220F6A95EAF72095A4
:103DB000828128232283089520912201222329F041
:103DC0002091980227FD0C94B31E0C948D1E209117
:103DD0002201222329F02091980227FD0C94C71E6E
:103DE0000C94A71E20912201FC013296222331F06F
:103DF0008091980287FF02C08EE101C086E0DF015A
:103E00001D928A95E9F7089508950C94041F0E9465
:103E1000051F80919F02843061F110922F0220E4EF
:103E200088E190E00FB6F894A895809360000FBEEB
:103E30002093600080E00E94840380E00E94FD03E4
:103E40000E94051F83B7817F846083BF83B7816031
:103E500083BF7894889583B78E7F83BF0FB6F8941D
:103E6000A895809160008861809360001092600046
:103E70000FBE089508950895CF930E943A1F0E949F
:103E80000A0A0E943B1FC0E08C2F0E94B509892BB3
:103E900029F4CF5FC530C1F780E001C081E0CF9148
:103EA000089508950C94511F0E945D170E94A72346
:103EB0000E947A110E94FD030C94521F1F920F92D0
:103EC0000FB60F9211248F939F93AF93BF9380915E
:103ED0002F02811113C08091940290919502A091BC
:103EE0009602B09197024196A11DB11D8093940254
:103EF00090939502A0939602B0939702BF91AF91D1
:103F00009F918F910F900FBE0F901F90189582E098
:103F100084BD93E095BD9AEF97BD80936E000895A0
:103F20002FB7F8948091940290919502A0919602F7
:103F3000B09197022FBF0895CF92DF92EF92FF9238
:103F40000F931F932FB7F8944091940250919502CC
:103F500060919602709197022FBF6A017B01EE2457
:103F6000FF248C0120E030E0C016D106E206F30603
:103F700010F4415051099A01281B390BC9011F91B6
:103F80000F91FF90EF90DF90CF90089578941F925B
:103F90000F920FB60F9211248F939F93AF93BF93FD
:103FA0008091940290919502A0919602B09197020F
:103FB0000196A11DB11D8093940290939502A09348
:103FC0009602B0939702BF91AF919F918F910F90FE
:103FD0000FBE0F901F90189581E08093E00080E263
:103FE0008093D8001092C9008FE19EE40197F1F709
:103FF00000C0000087E090EBDC018093A802909362
:10400000A902A093AA02B093AB029CE088E10FB68C
:10401000F894A895809360000FBE90936000FFCF46
:10402000AF92BF92CF92DF92EF92FF920F931F93C6
:10403000CF93C0E0CC24C394D12CE82EF12C8C2F4C
:104040000E94B5095C0100E010E09601002E02C05C
:10405000220F331F0A94E2F72A213B21232B31F44C
:104060000F5F1F4F0F30110581F70AC0602F7C2FA3
:1040700080E00E94D106E816F90691F781E004C0BD
:10408000CF5FC530E1F680E0CF911F910F91FF9097
:10409000EF90DF90CF90BF90AF900895CF93C82F4F
:1040A0008CE20E941020882321F08C2FCF910C9459
:1040B000102080E0CF910895CF930E94C21D8111FE
:1040C00002C00E94751EC5E6C15049F00E940A0A4E
:1040D0008FE39CE90197F1F700C00000F5CF89E27A
:1040E0000E944E20811110C18AE20E944E2081114F
:1040F0000E94751E85E00E944E2081110E94EC1FD7
:104100000E94CD1D80932E0287E00E944E208823BE
:10411000A9F18BE10E944E20882351F080912E025C
:1041200081FB222720F991E0922790FB81F90EC0B4
:104130008EE00E944E20882361F080912E0282FB47
:10414000222720F991E0922790FB82F980932E029A
:1041500015C080E10E944E2090912E02882341F0EC
:1041600093FB222720F981E0822780FB93F904C08A
:10417000892F809580FB90F990932E0280912E02DA
:104180000E94D11D0E94DF1D909399028093980296
:1041900080EE0E944E20882341F080919802982F53
:1041A000909590FB80F98093980289E30E944E20BD
:1041B000882359F08091980281FB222720F991E011
:1041C000922790FB81F98093980282EE0E944E2004
:1041D000882359F08091980282FB222720F991E0F0
:1041E000922790FB82F98093980286EE0E944E20DF
:1041F000882359F08091980283FB222720F991E0CF
:10420000922790FB83F98093980283EE0E944E20C0
:10421000882359F08091980284FB222720F991E0AD
:10422000922790FB84F98093980285E30E944E20A8
:10423000882359F08091980285FB222720F991E08C
:10424000922790FB85F98093980281E30E944E208B
:10425000882359F08091980286FB222720F991E06B
:10426000922790FB86F98093980281E10E944E206C
:10427000882359F08091980287FB222720F991E04A
:10428000922790FB87F980939802809198029091F1
:1042900099020E94F01D87E20E944E20C82F8EE1F5
:1042A0000E944E208111C2608FE10E944E20811138
:1042B000C46080E20E944E208111C86081E20E94A9
:1042C0004E208111C06182E20E944E208111C062A5
:1042D00083E20E944E208111C06484E20E944E203D
:1042E000882311F0C06802C0CC2329F08C2F0E94D3
:1042F000DA1D6C2F03C00E94D61D682F70E080E08D
:1043000090E0CF910C94381BCF91089580913302A7
:1043100080FF0BC06091150185E0689FB0011124FA
:1043200075956795759567952BC081FF09C060915C
:10433000150185E0689FB00111247595679520C02F
:1043400082FF07C06091150185E0689FB0011124CC
:1043500017C0909132029923D1F060911401961701
:1043600088F72091150185E0289F90011124929FE4
:10437000A001939F500D112470E0CA010E94D12B1F
:104380006038710540F46115710539F002C065E0CF
:1043900070E0862F08958FE7089581E00895809159
:1043A000330280FF08C06091130170E07595679536
:1043B0007595679521C081FF06C06091130170E07B
:1043C0007595679519C082FF04C06091130170E074
:1043D00010C0909132029923C1F06091120196179A
:1043E000A0F780911301899FC001112470E00E9401
:1043F000D12B6038710528F46115710521F0862FE5
:1044000008958FE7089581E0089561E070E0F4CFAA
:10441000803F21F40E948621819504C0813F29F4C8
:104420000E948621809337020895823F21F40E94E2
:104430008621819504C0833F29F40E9486218093C0
:1044400036020895893F19F40E94CF2105C08A3FA2
:1044500031F40E94CF2181958093380208958B3FDB
:1044600021F40E94CF21819504C08C3F29F40E9441
:10447000CF21809339020895843F21F48091350241
:10448000816017C0853F21F480913502826011C0A0
:10449000863F21F48091350284600BC0873F21F470
:1044A00080913502886005C0883F31F480913502E3
:1044B00080618093350208958D3F21F4809133020D
:1044C00081600BC08E3F21F480913302826005C071
:1044D0008F3F29F4809133028460809333020895E2
:1044E000803F39F48091370287FF6CC01092370209
:1044F00069C0813F29F4809137021816BCF362C06D
:1045000090913602823F29F497FF5CC010923602E8
:1045100059C0833F19F41916CCF354C0893F41F4B4
:104520008091380218160CF04DC0109238024AC023
:104530008A3F29F48091380287FF44C0F6CF8B3F31
:1045400039F48091390287FF3DC0109239023AC098
:104550008C3F29F4809139021816BCF333C0843F94
:1045600021F4809135028E7F17C0853F21F4809120
:1045700035028D7F11C0863F21F4809135028B7FFB
:104580000BC0873F21F480913502877F05C0883FAB
:1045900031F4809135028F7E8093350213C08D3FB8
:1045A00021F4809133028E7F0BC08E3F21F48091E5
:1045B00033028D7F05C08F3F29F4809133028B7FBA
:1045C000809333028091360281110EC080913702B0
:1045D00081110AC080913802811106C08091390290
:1045E000811102C010923202089584E392E00E9489
:1045F000A0110E94901F9093310280933002089581
:104600001F93CF93DF9380913002909131020E94EB
:104610009C1FAC0190913202992321F02091160148
:1046200030E006C0209117018AE0289F90011124F4
:104630004217530708F47BC080913602C0913702BD
:10464000D091380210913902811107C0C1116BC09D
:10465000D11169C0111167C06AC09F3F19F09F5FF7
:1046600090933202181624F40E9486218093360219
:104670008091360287FF05C00E9486218195809334
:1046800036021C1624F40E94862180933702809102
:10469000370287FF05C00E948621819580933702EB
:1046A000309136023323E1F0209137022223C1F00A
:1046B00045EB3403C0011124892F990F990B009702
:1046C00009F481E08093360235EB2303C001112405
:1046D000892F990F990B009709F481E08093370295
:1046E0001D1624F40E94CF21809338028091380255
:1046F00087FF05C00E94CF21819580933802111653
:1047000024F40E94CF21809339028091390287FFDF
:1047100005C00E94CF21819580933902DF91CF910E
:104720001F910C94F5229F3F09F099CFA1CFDF9103
:10473000CF911F910895E4E3F2E086E0DF011D923E
:104740008A95E9F7109232021092330208950E947E
:10475000C21D811102C00E94751E0E94FD1D809322
:104760009A02282F26952695269530E02630310589
:1047700024F08770886280939A0280919A0280FF69
:1047800004C086958695869501C080E00C948403CC
:1047900020919A02822F869586958695482F50E023
:1047A0004530510554F48F5F982F990F990F990F49
:1047B000822F8770892B80939A0280919A02816060
:1047C00080939A020E94011E80919A028695869596
:1047D00086950C94840380919A02982F96959695CD
:1047E0009695A1F0915E990F990F990F8770892B7B
:1047F00080939A02887F91E009F490E080919A0278
:1048000090FB80F980939A020E94011E80919A0287
:104810008695869586950C94840380919A0280FDF6
:1048200013C0816080939A02813019F489E08093EB
:104830009A0280919A020E94011E80919A028695A6
:10484000869586950C948403089580919A0280FF42
:1048500008C08E7F80939A020E94011E80E00C9413
:104860008403089580919A0280FD0C9425240C9471
:104870000D2490919A02892F8695869586958F5F53
:104880008F719770863038F4880F880F880F892BC6
:1048900080939A0202C090939A0280919A02887F34
:1048A00091E009F490E080919A0290FB80F9809366
:1048B0009A020E94011E80919A028695869586959D
:1048C0000C948403863008F085E0880F880F880FE9
:1048D00090919A029770892B80939A02887F91E039
:1048E00009F490E080919A0290FB80F980939A02FB
:1048F0000E94011E80919A028695869586950C9459
:10490000840380915A0208950F931F93CF93DF93EE
:1049100000D01F92CDB7DEB78C010E94F426823002
:1049200011F0843021F584E089831B830A8382E0BF
:104930008093E9008FEF9091E800815095FD06C0CB
:1049400095ED9A95F1F700008111F5CF8091E8007F
:1049500085FF0DC040E050E063E070E0CE010196BD
:104960000E9411278091E8008E778093E8000F90D5
:104970000F900F90DF91CF911F910F910895CF93DA
:10498000DF9300D01F92CDB7DEB720919F02243075
:1049900031F523E02983805891099B838A8382E043
:1049A0008093E9008FEF9091E800815095FD06C05B
:1049B00095ED9A95F1F700008111F5CF8091E8000F
:1049C00085FF0DC040E050E063E070E0CE0101964D
:1049D0000E9411278091E8008E778093E8000F9065
:1049E0000F900F90DF91CF910895CF93DF93EC015B
:1049F0000E94F426823011F08430F9F482E0809332
:104A0000E9009FEF8091E800915085FD06C085ED9B
:104A10008A95F1F700009111F5CF8091E80085FFAC
:104A20000CC040E050E066E070E0CE010E9411272B
:104A30008091E8008E778093E800DF91CF91089510
:104A4000CF93DF93EC010E94F426823011F0843082
:104A5000D9F580912201882339F08091980287FF4F
:104A600003C060E282E002C068E081E08093E90078
:104A70008FEF9091E800815095FD06C095ED9A95D5
:104A8000F1F700008111F5CF8091E80085FF1CC08F
:104A900080912201811105C040E050E068E070E0A3
:104AA00003C070E040E050E0CE010E9411278091E9
:104AB000E8008E778093E80080E2FE01AAE3B2E08E
:104AC00001900D928A95E1F7DF91CF910895809141
:104AD0009E02811109C00E94A6280E94032980918C
:104AE000E20084608093E200089510929E0208958F
:104AF000089508950C94541F42E061EC81E00E94F7
:104B0000202842E261EC82E00C9420288091A102EE
:104B1000833009F460C030F4813071F0823009F4E0
:104B200099C008958A3009F485C08B3009F46BC0B0
:104B3000893009F0A7C020C08091A002813A09F015
:104B4000A1C08091E800877F8093E8008091A40253
:104B50009091A502892B21F460E28AE392E003C0E0
:104B600060E080E090E070E00E945C278091E800C7
:104B70008B778093E80008958091A002813209F03C
:104B800081C08091A4029091A502029708F07AC09A
:104B90008091E800877F8093E8008091E80082FDA3
:104BA00005C080919F028111F8CF6CC02091F30065
:104BB0008091F20090E0922B029729F48091F1000D
:104BC0008B7F813021F48091F10080935A02809193
:104BD000E8008B7753C08091A002813A09F052C05F
:104BE0008091A4029091A502892B09F04BC080917D
:104BF000E800877F8093E8008091E80080FFFCCF89
:104C00008091220136C08091A0028132D9F5809135
:104C1000A4029091A502892BA9F58091E800877FD5
:104C20008093E8000E9455288091A202809322017F
:104C30000C945D178091A002813221F58091E800EB
:104C4000877F8093E8000E9455288091A30280937B
:104C50005B0208958091A002813AA1F48091E8005E
:104C6000877F8093E8008091E80080FFFCCF8091EF
:104C70005B028093F1008091E8008E778093E800DA
:104C80000C945528089584B7877F84BF0FB6F89495
:104C9000A895809160008861809360001092600008
:104CA0000FBE80E880936100109261000E94E811BD
:104CB0000E94A6280E9403298091E20084608093CC
:104CC000E20078940E94922B0E94F01188E191E01A
:104CD0000E94751180919F02853069F40E94071F20
:104CE00080919D028823B1F30E943C1F882391F399
:104CF0000E94FB26EFCF0E94FC110E94F80FEACF22
:104D00000C948226292F332723303105C9F064F40F
:104D10002130310581F02230310509F04CC08BE3A0
:104D200090E027E634E04BC02132310521F12232F8
:104D3000310589F140C082E190E022EA34E03FC0D1
:104D400099278130910571F02CF4892BA1F5E3E6C8
:104D5000F4E00DC08230910541F0039761F5EFE377
:104D6000F4E005C0E1E5F4E002C0E5E4F4E084919C
:104D700090E09F0124C06115710541F0613071051B
:104D8000D1F489E090E022E934E019C089E090E0B4
:104D900029E734E014C06115710541F061307105F7
:104DA00051F480EC90E024EB34E009C080E490E022
:104DB00024E735E004C080E090E020E030E0FA0134
:104DC0003183208308950895CF93C82F0E94E3264E
:104DD000C0935C02CF91089580919F02843011F0BE
:104DE00081E0089582E0089580915C02811102C003
:104DF0000C94EC26089580E189BD82E189BD09B457
:104E000000FEFDCF8091D8008F7D8093D8008091E7
:104E1000E00082608093E0008091E00081FDFCCFA3
:104E20000895CF92DF92EF92FF920F931F93CF934B
:104E3000DF93EC018B016A010E947428811133C059
:104E4000C114D10439F0F60180819181081B190B3E
:104E5000C80FD91FE12CF12C0115110519F1809112
:104E6000E80085FD16C08091E8008E778093E80009
:104E7000C114D10449F0F60180819181E80EF91E38
:104E8000F182E08285E00FC00E947428882321F31C
:104E90000AC089918093F10001501109FFEFEF1AC8
:104EA000FF0ADACF80E0DF91CF911F910F91FF9041
:104EB000EF90DF90CF9008952091A6023091A70245
:104EC0002617370748F06115710539F42091E8007D
:104ED0002E772093E80001C0B90140E0611571050B
:104EE000A9F120919F02222309F443C0253009F43F
:104EF00042C02091E80023FD40C02091E80022FD3F
:104F000032C02091E80020FFE9CF4091F3002091CA
:104F1000F20030E0342BFC01CF016115710559F02E
:104F20002830310540F481918093F100615071097E
:104F30002F5F3F4FF1CF41E02830310509F040E0CD
:104F40002091E8002E772093E800C8CF4111C9CF07
:104F50000AC080919F02882361F0853061F08091C2
:104F6000E80083FD0AC08091E80082FFF2CF80E074
:104F7000089582E0089583E0089581E008952091E6
:104F8000A6023091A7022617370748F06115710570
:104F900039F42091E8002E772093E80001C0B90190
:104FA000FC0120E06115710591F180919F02882339
:104FB00009F440C0853009F43FC08091E80083FDCA
:104FC0003DC08091E80082FD2FC08091E80080FF05
:104FD000E9CF2091F3008091F20090E0922B6115CF
:104FE000710559F08830910540F424912093F10027
:104FF0003196615071090196F2CF21E0089709F0CE
:1050000020E08091E8008E778093E800CBCF2111DB
:10501000CCCF0AC080919F02882361F0853061F077
:105020008091E80083FD0AC08091E80082FFF2CF02
:1050300080E0089582E0089583E0089581E0089576
:10504000982F973058F59093E900981739F07091A0
:10505000EC002091ED005091F00003C0242F762F3A
:1050600050E021FF19C03091EB003E7F3093EB0000
:105070003091ED003D7F3093ED003091EB003160D9
:105080003093EB007093EC002093ED005093F00010
:105090002091EE0027FF07C09F5FD3CF8F708093D2
:1050A000E90081E0089580E008958091A00287FFE3
:1050B00011C08091E80082FD05C080919F0281119E
:1050C000F8CF11C08091E8008B770BC080919F02D0
:1050D000882349F08091E80080FFF8CF8091E800B4
:1050E0008E778093E80008952091E4003091E500E8
:1050F00095E64091EC00842F817040FF22C08091A2
:10510000E80080FD1CC080919F02882391F08530CB
:1051100091F08091EB0085FD10C04091E40050912A
:10512000E5004217530729F39A01915011F784E0E3
:10513000089582E0089583E0089581E0089580E075
:1051400008954091E80042FFDECF08950E9414299F
:105150000E941C29E0EEF0E0808181608083E8ED10
:10516000F0E080818F77808319BCA7EDB0E08C914F
:105170008E7F8C9380818F7E808310929E02089513
:105180000F931F93CF93DF930E9414290E941C2931
:10519000C8EDD0E088818F77888388818068888394
:1051A00088818F7D888319BC10929F0210929B0288
:1051B00010929D0210929C0200EE10E0F801808196
:1051C0008B7F808388818160888342E060E080E01B
:1051D0000E942028E1EEF0E080818E7F8083E2EE65
:1051E000F0E0808181608083808188608083F80125
:1051F00080818E7F8083888180618883DF91CF91D9
:105200001F910F910895E8EDF0E080818F7E8083FB
:10521000E7EDF0E080818160808384E082BF81E0FF
:1052200080939E020C94C028E8EDF0E080818E7F90
:1052300080831092E20008951092DA001092E1004B
:1052400008951F920F920FB60F9211242F933F9340
:105250004F935F936F937F938F939F93AF93BF937E
:10526000EF93FF938091E10082FF0BC08091E200F9
:1052700082FF07C08091E1008B7F8093E1000E9454
:10528000912B8091DA0080FF1FC08091D80080FFB1
:105290001BC08091DA008E7F8093DA008091D90064
:1052A00080FF0DC080E189BD82E189BD09B400FEA7
:1052B000FDCF81E080939F020E94672505C019BC45
:1052C00010929F020E9475258091E10080FF19C015
:1052D0008091E20080FF15C08091E2008E7F809374
:1052E000E2008091E20080618093E2008091D8002A
:1052F00080628093D80019BC85E080939F020E9451
:1053000079258091E10084FF30C08091E20084FF24
:105310002CC080E189BD82E189BD09B400FEFDCFCA
:105320008091D8008F7D8093D8008091E1008F7E9E
:105330008093E1008091E2008F7E8093E200809173
:10534000E20081608093E20080919B02882311F04B
:1053500084E007C08091E30087FD02C081E001C0C6
:1053600083E080939F020E947A258091E10083FF71
:1053700029C08091E20083FF25C08091E100877FF2
:105380008093E10082E080939F0210929B028091C3
:10539000E1008E7F8093E1008091E2008E7F809318
:1053A000E2008091E20080618093E20042E060E0F0
:1053B00080E00E9420288091F00088608093F000B7
:1053C0000E947825FF91EF91BF91AF919F918F91AE
:1053D0007F916F915F914F913F912F910F900FBEF1
:1053E0000F901F9018951F920F920FB60F921124D5
:1053F0002F933F934F935F936F937F938F939F93DD
:10540000AF93BF93CF93DF93EF93FF93C091E900E6
:10541000CF708091EC00D82FD17080FDD0E8109231
:10542000E9008091F000877F8093F00078940E94DB
:10543000372A1092E9008091F00088608093F00094
:10544000CD2BCF70C093E900FF91EF91DF91CF9109
:10545000BF91AF919F918F917F916F915F914F918C
:105460003F912F910F900FBE0F901F9018951F9393
:10547000CF93DF93CDB7DEB7AA970FB6F894DEBF10
:105480000FBECDBFE0EAF2E088E08E0F9091F10010
:1054900091938E13FBCF0E9486258091E80083FFB5
:1054A00028C18091A0029091A102492F50E04A307A
:1054B000510508F01EC1FA01EC58FF4F0C94072C5F
:1054C000803821F0823809F014C108C080919C0214
:1054D00090919D02992389F082600FC08091A4026F
:1054E0008F70873008F005C18093E9008091EB0050
:1054F00085FB882780F91092E9009091E800977F5A
:105500009093E8008093F1001092F100D0C0282F12
:105510002D7F09F0EEC0882319F0823061F0E9C0D8
:105520008091A202813009F0E4C0933009F080E05C
:1055300080939D022EC08091A20281112AC0809189
:10554000A4028F702FEF280F263008F0D2C080936E
:10555000E9002091EB0020FF1CC0933021F48091E2
:10556000EB00806214C09091EB0090619093EB008F
:1055700021E030E0A90102C0440F551F8A95E2F7EF
:105580004093EA001092EA008091EB0088608093DB
:10559000EB001092E9008091E800877F8093E8009B
:1055A0000E945528A6C08111A4C01091A2021F77A5
:1055B0008091E3008078812B8093E3008091E80064
:1055C000877F8093E8000E9455288091E80080FF43
:1055D000FCCF8091E30080688093E300111102C04A
:1055E00082E001C083E080939F0283C080588230B4
:1055F00008F07FC08091A2029091A3028C3D53E0FD
:10560000950779F583E08A838AE289834FB7F89416
:10561000DE01139620E03EE051E2E32FF0E05093EC
:105620005700E49120FF03C0E295EF703F5FEF70F9
:105630008E2F90E0EA3010F0C79601C0C0968D938F
:105640009D932F5F243149F74FBF8091E800877FFA
:105650008093E8006AE270E0CE0101960E945C2728
:1056600015C06091A4027091A502AE014F5F5F4F1B
:105670000E948026BC01892BE1F19091E800977F80
:105680009093E80089819A810E94BF278091E80069
:105690008B778093E8002DC0803859F58091E80021
:1056A000877F8093E80080919B028093F100809136
:1056B000E8008E7773CF81111CC09091A2029230C6
:1056C000C0F48091E800877F8093E80090939B026C
:1056D0000E94552880919B02811106C08091E300B1
:1056E00087FD02C081E001C084E080939F020E9498
:1056F0007C258091E80083FF0AC08091E800877FC5
:105700008093E8008091EB0080628093EB00AA9682
:105710000FB6F894DEBF0FBECDBFDF91CF911F91C2
:1057200008950895CF9380919F028823A1F0C0919E
:10573000E900CF709091EC00892F817090FD80E896
:10574000C82B1092E9008091E80083FD0E94372A5F
:10575000CF70C093E900CF910895DB018F939F93A1
:105760000E941C2CBF91AF91A29F800D911DA39F01
:10577000900DB29F900D11240895AA1BBB1B51E1FF
:1057800007C0AA1FBB1FA617B70710F0A61BB70BB1
:10579000881F991F5A95A9F780959095BC01CD0156
:1057A000089597FB072E16F4009407D077FD09D0D3
:1057B0000E94BD2B07FC05D03EF4909581959F4F2C
:1057C0000895709561957F4F0895A1E21A2EAA1B46
:1057D000BB1BFD010DC0AA1FBB1FEE1FFF1FA217A1
:1057E000B307E407F50720F0A21BB30BE40BF50B9E
:1057F000661F771F881F991F1A9469F76095709527
:10580000809590959B01AC01BD01CF010895EE0FED
:10581000FF1F0590F491E02D0994A29FB001B39F62
:10582000C001A39F700D811D1124911DB29F700DA9
:10583000811D1124911D08950E940D2CA59F900D8E
:10584000B49F900DA49F800D911D11240895FC011B
:105850004150504030F001900616D1F73197CF01FA
:105860000895882799270895F999FECF92BD81BDA3
:10587000F89A992780B50895A6E1B0E044E050E099
:105880000C946E2CA8E1B0E042E050E00C946E2C39
:10589000262FF999FECF92BD81BDF89A019700B4E9
:1058A000021639F01FBA20BD0FB6F894FA9AF99A89
:1058B0000FBE08950396272F0E94492C0E94482C62
:1058C000252F0E94492C242F0C94492C0196272F18
:1058D0000E94492C0C94482CDC01CB01FC01F99965
:1058E000FECF06C0F2BDE1BDF89A319600B40D922C
:0C58F00041505040B8F70895F894FFCFE5
:1058FC00010210101001191A1B1C1D1E1F20212241
:10590C000B022808140A321E81242025F524BF24FA
:10591C00842401F0F1C6676637943130353497969C
:10592C0033F490919293950001020202020606064E
:10593C000909090909090F0F0F0F0F0F1515151874
:0C594C001919191919191919191923240E
:00000001FF
